{"abi":[{"type":"constructor","inputs":[{"name":"_genesisNodes","type":"address[]","internalType":"address[]"}],"stateMutability":"nonpayable"},{"type":"receive","stateMutability":"payable"},{"type":"function","name":"CLOCK_MODE","inputs":[],"outputs":[{"name":"","type":"string","internalType":"string"}],"stateMutability":"view"},{"type":"function","name":"DOMAIN_SEPARATOR","inputs":[],"outputs":[{"name":"","type":"bytes32","internalType":"bytes32"}],"stateMutability":"view"},{"type":"function","name":"allowance","inputs":[{"name":"owner","type":"address","internalType":"address"},{"name":"spender","type":"address","internalType":"address"}],"outputs":[{"name":"","type":"uint256","internalType":"uint256"}],"stateMutability":"view"},{"type":"function","name":"approve","inputs":[{"name":"spender","type":"address","internalType":"address"},{"name":"value","type":"uint256","internalType":"uint256"}],"outputs":[{"name":"","type":"bool","internalType":"bool"}],"stateMutability":"nonpayable"},{"type":"function","name":"balanceOf","inputs":[{"name":"account","type":"address","internalType":"address"}],"outputs":[{"name":"","type":"uint256","internalType":"uint256"}],"stateMutability":"view"},{"type":"function","name":"batchClaimMerkleRewards","inputs":[{"name":"_distributionIds","type":"uint256[]","internalType":"uint256[]"},{"name":"_capacities","type":"uint256[]","internalType":"uint256[]"},{"name":"_merkleProofs","type":"bytes32[][]","internalType":"bytes32[][]"}],"outputs":[],"stateMutability":"nonpayable"},{"type":"function","name":"checkpoints","inputs":[{"name":"account","type":"address","internalType":"address"},{"name":"pos","type":"uint32","internalType":"uint32"}],"outputs":[{"name":"","type":"tuple","internalType":"struct Checkpoints.Checkpoint208","components":[{"name":"_key","type":"uint48","internalType":"uint48"},{"name":"_value","type":"uint208","internalType":"uint208"}]}],"stateMutability":"view"},{"type":"function","name":"claimMerkleRewards","inputs":[{"name":"_distributionId","type":"uint256","internalType":"uint256"},{"name":"_capacity","type":"uint256","internalType":"uint256"},{"name":"_merkleProof","type":"bytes32[]","internalType":"bytes32[]"}],"outputs":[],"stateMutability":"nonpayable"},{"type":"function","name":"clock","inputs":[],"outputs":[{"name":"","type":"uint48","internalType":"uint48"}],"stateMutability":"view"},{"type":"function","name":"createMerkleDistribution","inputs":[{"name":"_merkleRoot","type":"bytes32","internalType":"bytes32"},{"name":"_totalCapacity","type":"uint256","internalType":"uint256"},{"name":"_approvedValidators","type":"address[]","internalType":"address[]"},{"name":"_payments","type":"tuple","internalType":"struct SmartnodesERC20.PaymentAmounts","components":[{"name":"sno","type":"uint128","internalType":"uint128"},{"name":"eth","type":"uint128","internalType":"uint128"}]},{"name":"_dustValidator","type":"address","internalType":"address"}],"outputs":[],"stateMutability":"nonpayable"},{"type":"function","name":"decimals","inputs":[],"outputs":[{"name":"","type":"uint8","internalType":"uint8"}],"stateMutability":"view"},{"type":"function","name":"delegate","inputs":[{"name":"delegatee","type":"address","internalType":"address"}],"outputs":[],"stateMutability":"nonpayable"},{"type":"function","name":"delegateBySig","inputs":[{"name":"delegatee","type":"address","internalType":"address"},{"name":"nonce","type":"uint256","internalType":"uint256"},{"name":"expiry","type":"uint256","internalType":"uint256"},{"name":"v","type":"uint8","internalType":"uint8"},{"name":"r","type":"bytes32","internalType":"bytes32"},{"name":"s","type":"bytes32","internalType":"bytes32"}],"outputs":[],"stateMutability":"nonpayable"},{"type":"function","name":"delegates","inputs":[{"name":"account","type":"address","internalType":"address"}],"outputs":[{"name":"","type":"address","internalType":"address"}],"stateMutability":"view"},{"type":"function","name":"doubleDistributionInterval","inputs":[],"outputs":[],"stateMutability":"nonpayable"},{"type":"function","name":"eip712Domain","inputs":[],"outputs":[{"name":"fields","type":"bytes1","internalType":"bytes1"},{"name":"name","type":"string","internalType":"string"},{"name":"version","type":"string","internalType":"string"},{"name":"chainId","type":"uint256","internalType":"uint256"},{"name":"verifyingContract","type":"address","internalType":"address"},{"name":"salt","type":"bytes32","internalType":"bytes32"},{"name":"extensions","type":"uint256[]","internalType":"uint256[]"}],"stateMutability":"view"},{"type":"function","name":"escrowEthPayment","inputs":[{"name":"_user","type":"address","internalType":"address"},{"name":"_payment","type":"uint256","internalType":"uint256"}],"outputs":[],"stateMutability":"payable"},{"type":"function","name":"escrowPayment","inputs":[{"name":"_user","type":"address","internalType":"address"},{"name":"_payment","type":"uint256","internalType":"uint256"}],"outputs":[],"stateMutability":"nonpayable"},{"type":"function","name":"getCurrentEra","inputs":[],"outputs":[{"name":"","type":"uint256","internalType":"uint256"}],"stateMutability":"view"},{"type":"function","name":"getEmissionRate","inputs":[],"outputs":[{"name":"","type":"uint256","internalType":"uint256"}],"stateMutability":"view"},{"type":"function","name":"getEscrowedPayments","inputs":[{"name":"_user","type":"address","internalType":"address"}],"outputs":[{"name":"","type":"tuple","internalType":"struct SmartnodesERC20.PaymentAmounts","components":[{"name":"sno","type":"uint128","internalType":"uint128"},{"name":"eth","type":"uint128","internalType":"uint128"}]}],"stateMutability":"view"},{"type":"function","name":"getEthBreakdown","inputs":[],"outputs":[{"name":"","type":"tuple","internalType":"struct SmartnodesERC20.EthBreakdown","components":[{"name":"totalContractEth","type":"uint256","internalType":"uint256"},{"name":"unclaimedEth","type":"uint256","internalType":"uint256"},{"name":"escrowedEth","type":"uint256","internalType":"uint256"},{"name":"availableEth","type":"uint256","internalType":"uint256"}]}],"stateMutability":"view"},{"type":"function","name":"getLockInfo","inputs":[{"name":"user","type":"address","internalType":"address"}],"outputs":[{"name":"locked","type":"bool","internalType":"bool"},{"name":"isValidator","type":"bool","internalType":"bool"},{"name":"timestamp","type":"uint256","internalType":"uint256"},{"name":"lockAmount","type":"uint256","internalType":"uint256"}],"stateMutability":"view"},{"type":"function","name":"getPastTotalSupply","inputs":[{"name":"timepoint","type":"uint256","internalType":"uint256"}],"outputs":[{"name":"","type":"uint256","internalType":"uint256"}],"stateMutability":"view"},{"type":"function","name":"getPastVotes","inputs":[{"name":"account","type":"address","internalType":"address"},{"name":"timepoint","type":"uint256","internalType":"uint256"}],"outputs":[{"name":"","type":"uint256","internalType":"uint256"}],"stateMutability":"view"},{"type":"function","name":"getSmartnodesCore","inputs":[],"outputs":[{"name":"","type":"address","internalType":"address"}],"stateMutability":"view"},{"type":"function","name":"getSupplyBreakdown","inputs":[],"outputs":[{"name":"_totalSupply","type":"uint256","internalType":"uint256"},{"name":"_circulating","type":"uint256","internalType":"uint256"},{"name":"_locked","type":"uint256","internalType":"uint256"},{"name":"_unclaimed","type":"uint256","internalType":"uint256"},{"name":"_escrowed","type":"uint256","internalType":"uint256"},{"name":"_stateTime","type":"uint256","internalType":"uint256"},{"name":"_stateReward","type":"uint256","internalType":"uint256"}],"stateMutability":"view"},{"type":"function","name":"getVotes","inputs":[{"name":"account","type":"address","internalType":"address"}],"outputs":[{"name":"","type":"uint256","internalType":"uint256"}],"stateMutability":"view"},{"type":"function","name":"halveDistributionInterval","inputs":[],"outputs":[],"stateMutability":"nonpayable"},{"type":"function","name":"i_deploymentTimestamp","inputs":[],"outputs":[{"name":"","type":"uint256","internalType":"uint256"}],"stateMutability":"view"},{"type":"function","name":"isLocked","inputs":[{"name":"user","type":"address","internalType":"address"}],"outputs":[{"name":"","type":"bool","internalType":"bool"}],"stateMutability":"view"},{"type":"function","name":"lockTokens","inputs":[{"name":"_user","type":"address","internalType":"address"},{"name":"_isValidator","type":"bool","internalType":"bool"}],"outputs":[],"stateMutability":"nonpayable"},{"type":"function","name":"name","inputs":[],"outputs":[{"name":"","type":"string","internalType":"string"}],"stateMutability":"view"},{"type":"function","name":"nonces","inputs":[{"name":"owner","type":"address","internalType":"address"}],"outputs":[{"name":"","type":"uint256","internalType":"uint256"}],"stateMutability":"view"},{"type":"function","name":"numCheckpoints","inputs":[{"name":"account","type":"address","internalType":"address"}],"outputs":[{"name":"","type":"uint32","internalType":"uint32"}],"stateMutability":"view"},{"type":"function","name":"permit","inputs":[{"name":"owner","type":"address","internalType":"address"},{"name":"spender","type":"address","internalType":"address"},{"name":"value","type":"uint256","internalType":"uint256"},{"name":"deadline","type":"uint256","internalType":"uint256"},{"name":"v","type":"uint8","internalType":"uint8"},{"name":"r","type":"bytes32","internalType":"bytes32"},{"name":"s","type":"bytes32","internalType":"bytes32"}],"outputs":[],"stateMutability":"nonpayable"},{"type":"function","name":"releaseEscrowedEthPayment","inputs":[{"name":"_user","type":"address","internalType":"address"},{"name":"_amount","type":"uint256","internalType":"uint256"}],"outputs":[],"stateMutability":"nonpayable"},{"type":"function","name":"releaseEscrowedPayment","inputs":[{"name":"_user","type":"address","internalType":"address"},{"name":"_amount","type":"uint256","internalType":"uint256"}],"outputs":[],"stateMutability":"nonpayable"},{"type":"function","name":"s_claimed","inputs":[{"name":"","type":"uint256","internalType":"uint256"},{"name":"","type":"address","internalType":"address"}],"outputs":[{"name":"","type":"bool","internalType":"bool"}],"stateMutability":"view"},{"type":"function","name":"s_coreSet","inputs":[],"outputs":[{"name":"","type":"bool","internalType":"bool"}],"stateMutability":"view"},{"type":"function","name":"s_currentDistributionId","inputs":[],"outputs":[{"name":"","type":"uint256","internalType":"uint256"}],"stateMutability":"view"},{"type":"function","name":"s_dao","inputs":[],"outputs":[{"name":"","type":"address","internalType":"address"}],"stateMutability":"view"},{"type":"function","name":"s_daoSet","inputs":[],"outputs":[{"name":"","type":"bool","internalType":"bool"}],"stateMutability":"view"},{"type":"function","name":"s_distributionInterval","inputs":[],"outputs":[{"name":"","type":"uint256","internalType":"uint256"}],"stateMutability":"view"},{"type":"function","name":"s_distributions","inputs":[{"name":"","type":"uint256","internalType":"uint256"}],"outputs":[{"name":"merkleRoot","type":"bytes32","internalType":"bytes32"},{"name":"workerReward","type":"tuple","internalType":"struct SmartnodesERC20.PaymentAmounts","components":[{"name":"sno","type":"uint128","internalType":"uint128"},{"name":"eth","type":"uint128","internalType":"uint128"}]},{"name":"totalCapacity","type":"uint256","internalType":"uint256"},{"name":"timestamp","type":"uint256","internalType":"uint256"},{"name":"nonce","type":"uint256","internalType":"uint256"}],"stateMutability":"view"},{"type":"function","name":"s_escrowedPayments","inputs":[{"name":"","type":"address","internalType":"address"}],"outputs":[{"name":"sno","type":"uint128","internalType":"uint128"},{"name":"eth","type":"uint128","internalType":"uint128"}],"stateMutability":"view"},{"type":"function","name":"s_lastDistributionTime","inputs":[],"outputs":[{"name":"","type":"uint256","internalType":"uint256"}],"stateMutability":"view"},{"type":"function","name":"s_lockedTokens","inputs":[{"name":"","type":"address","internalType":"address"}],"outputs":[{"name":"locked","type":"bool","internalType":"bool"},{"name":"isValidator","type":"bool","internalType":"bool"},{"name":"unlockTime","type":"uint128","internalType":"uint128"},{"name":"lockedAmount","type":"uint256","internalType":"uint256"}],"stateMutability":"view"},{"type":"function","name":"s_smartnodesCoordinator","inputs":[],"outputs":[{"name":"","type":"address","internalType":"contract ISmartnodesCoordinator"}],"stateMutability":"view"},{"type":"function","name":"s_smartnodesCore","inputs":[],"outputs":[{"name":"","type":"address","internalType":"contract ISmartnodesCore"}],"stateMutability":"view"},{"type":"function","name":"s_totalETHDeposited","inputs":[],"outputs":[{"name":"","type":"uint256","internalType":"uint256"}],"stateMutability":"view"},{"type":"function","name":"s_totalETHWithdrawn","inputs":[],"outputs":[{"name":"","type":"uint256","internalType":"uint256"}],"stateMutability":"view"},{"type":"function","name":"s_totalEscrowed","inputs":[],"outputs":[{"name":"sno","type":"uint128","internalType":"uint128"},{"name":"eth","type":"uint128","internalType":"uint128"}],"stateMutability":"view"},{"type":"function","name":"s_totalLocked","inputs":[],"outputs":[{"name":"","type":"uint256","internalType":"uint256"}],"stateMutability":"view"},{"type":"function","name":"s_totalUnclaimed","inputs":[],"outputs":[{"name":"sno","type":"uint128","internalType":"uint128"},{"name":"eth","type":"uint128","internalType":"uint128"}],"stateMutability":"view"},{"type":"function","name":"s_userLockAmount","inputs":[],"outputs":[{"name":"","type":"uint256","internalType":"uint256"}],"stateMutability":"view"},{"type":"function","name":"s_validatorLockAmount","inputs":[],"outputs":[{"name":"","type":"uint256","internalType":"uint256"}],"stateMutability":"view"},{"type":"function","name":"setDAO","inputs":[{"name":"_dao","type":"address","internalType":"address"}],"outputs":[],"stateMutability":"nonpayable"},{"type":"function","name":"setSmartnodes","inputs":[{"name":"_smartnodesCore","type":"address","internalType":"address"},{"name":"_smartnodesCoordinator","type":"address","internalType":"address"}],"outputs":[],"stateMutability":"nonpayable"},{"type":"function","name":"setUserLockAmount","inputs":[{"name":"_newAmount","type":"uint256","internalType":"uint256"}],"outputs":[],"stateMutability":"nonpayable"},{"type":"function","name":"setValidatorLockAmount","inputs":[{"name":"_newAmount","type":"uint256","internalType":"uint256"}],"outputs":[],"stateMutability":"nonpayable"},{"type":"function","name":"slashAndUnlockValidator","inputs":[{"name":"_validator","type":"address","internalType":"address"},{"name":"_slashAmount","type":"uint256","internalType":"uint256"}],"outputs":[],"stateMutability":"nonpayable"},{"type":"function","name":"symbol","inputs":[],"outputs":[{"name":"","type":"string","internalType":"string"}],"stateMutability":"view"},{"type":"function","name":"totalSupply","inputs":[],"outputs":[{"name":"","type":"uint256","internalType":"uint256"}],"stateMutability":"view"},{"type":"function","name":"transfer","inputs":[{"name":"to","type":"address","internalType":"address"},{"name":"value","type":"uint256","internalType":"uint256"}],"outputs":[{"name":"","type":"bool","internalType":"bool"}],"stateMutability":"nonpayable"},{"type":"function","name":"transferFrom","inputs":[{"name":"from","type":"address","internalType":"address"},{"name":"to","type":"address","internalType":"address"},{"name":"value","type":"uint256","internalType":"uint256"}],"outputs":[{"name":"","type":"bool","internalType":"bool"}],"stateMutability":"nonpayable"},{"type":"function","name":"unlockTokens","inputs":[{"name":"_user","type":"address","internalType":"address"}],"outputs":[],"stateMutability":"nonpayable"},{"type":"event","name":"Approval","inputs":[{"name":"owner","type":"address","indexed":true,"internalType":"address"},{"name":"spender","type":"address","indexed":true,"internalType":"address"},{"name":"value","type":"uint256","indexed":false,"internalType":"uint256"}],"anonymous":false},{"type":"event","name":"ClaimFailed","inputs":[{"name":"distributionId","type":"uint256","indexed":true,"internalType":"uint256"},{"name":"user","type":"address","indexed":true,"internalType":"address"},{"name":"reason","type":"string","indexed":false,"internalType":"string"}],"anonymous":false},{"type":"event","name":"DAORewardsDistributed","inputs":[{"name":"distributionId","type":"uint256","indexed":true,"internalType":"uint256"},{"name":"snoAmount","type":"uint256","indexed":false,"internalType":"uint256"},{"name":"ethAmount","type":"uint256","indexed":false,"internalType":"uint256"}],"anonymous":false},{"type":"event","name":"DAOSet","inputs":[{"name":"dao","type":"address","indexed":true,"internalType":"address"}],"anonymous":false},{"type":"event","name":"DelegateChanged","inputs":[{"name":"delegator","type":"address","indexed":true,"internalType":"address"},{"name":"fromDelegate","type":"address","indexed":true,"internalType":"address"},{"name":"toDelegate","type":"address","indexed":true,"internalType":"address"}],"anonymous":false},{"type":"event","name":"DelegateVotesChanged","inputs":[{"name":"delegate","type":"address","indexed":true,"internalType":"address"},{"name":"previousVotes","type":"uint256","indexed":false,"internalType":"uint256"},{"name":"newVotes","type":"uint256","indexed":false,"internalType":"uint256"}],"anonymous":false},{"type":"event","name":"DistributionExpired","inputs":[{"name":"distributionId","type":"uint256","indexed":false,"internalType":"uint256"}],"anonymous":false},{"type":"event","name":"DistributionIntervalUpdated","inputs":[{"name":"oldInterval","type":"uint256","indexed":false,"internalType":"uint256"},{"name":"newInterval","type":"uint256","indexed":false,"internalType":"uint256"}],"anonymous":false},{"type":"event","name":"EIP712DomainChanged","inputs":[],"anonymous":false},{"type":"event","name":"ETHDeposited","inputs":[{"name":"from","type":"address","indexed":true,"internalType":"address"},{"name":"amount","type":"uint256","indexed":false,"internalType":"uint256"}],"anonymous":false},{"type":"event","name":"ETHWithdrawn","inputs":[{"name":"to","type":"address","indexed":true,"internalType":"address"},{"name":"amount","type":"uint256","indexed":false,"internalType":"uint256"}],"anonymous":false},{"type":"event","name":"EscrowReleased","inputs":[{"name":"user","type":"address","indexed":true,"internalType":"address"},{"name":"amount","type":"uint256","indexed":false,"internalType":"uint256"}],"anonymous":false},{"type":"event","name":"EthEscrowReleased","inputs":[{"name":"user","type":"address","indexed":true,"internalType":"address"},{"name":"amount","type":"uint256","indexed":false,"internalType":"uint256"}],"anonymous":false},{"type":"event","name":"EthPaymentEscrowed","inputs":[{"name":"user","type":"address","indexed":true,"internalType":"address"},{"name":"payment","type":"uint256","indexed":false,"internalType":"uint256"}],"anonymous":false},{"type":"event","name":"EthRewardsClaimed","inputs":[{"name":"user","type":"address","indexed":true,"internalType":"address"},{"name":"amount","type":"uint256","indexed":false,"internalType":"uint256"}],"anonymous":false},{"type":"event","name":"MerkleDistributionCreated","inputs":[{"name":"distributionId","type":"uint256","indexed":true,"internalType":"uint256"},{"name":"merkleRoot","type":"bytes32","indexed":false,"internalType":"bytes32"},{"name":"totalSnoRewards","type":"uint256","indexed":false,"internalType":"uint256"},{"name":"totalEthRewards","type":"uint256","indexed":false,"internalType":"uint256"},{"name":"timestamp","type":"uint256","indexed":false,"internalType":"uint256"}],"anonymous":false},{"type":"event","name":"PaymentEscrowed","inputs":[{"name":"user","type":"address","indexed":true,"internalType":"address"},{"name":"payment","type":"uint256","indexed":false,"internalType":"uint256"}],"anonymous":false},{"type":"event","name":"SlashedTokensBurned","inputs":[{"name":"amount","type":"uint256","indexed":false,"internalType":"uint256"}],"anonymous":false},{"type":"event","name":"SmartnodesSet","inputs":[{"name":"coreContract","type":"address","indexed":true,"internalType":"address"},{"name":"coordinatorContract","type":"address","indexed":true,"internalType":"address"}],"anonymous":false},{"type":"event","name":"TokenRewardsClaimed","inputs":[{"name":"distributionId","type":"uint256","indexed":true,"internalType":"uint256"},{"name":"user","type":"address","indexed":true,"internalType":"address"},{"name":"amount","type":"uint256","indexed":false,"internalType":"uint256"}],"anonymous":false},{"type":"event","name":"TokensLocked","inputs":[{"name":"user","type":"address","indexed":true,"internalType":"address"},{"name":"isValidator","type":"bool","indexed":false,"internalType":"bool"},{"name":"amount","type":"uint256","indexed":false,"internalType":"uint256"}],"anonymous":false},{"type":"event","name":"TokensUnlocked","inputs":[{"name":"user","type":"address","indexed":true,"internalType":"address"},{"name":"isValidator","type":"bool","indexed":false,"internalType":"bool"},{"name":"amount","type":"uint256","indexed":false,"internalType":"uint256"}],"anonymous":false},{"type":"event","name":"Transfer","inputs":[{"name":"from","type":"address","indexed":true,"internalType":"address"},{"name":"to","type":"address","indexed":true,"internalType":"address"},{"name":"value","type":"uint256","indexed":false,"internalType":"uint256"}],"anonymous":false},{"type":"event","name":"UnlockInitiated","inputs":[{"name":"user","type":"address","indexed":true,"internalType":"address"},{"name":"unlockTime","type":"uint256","indexed":false,"internalType":"uint256"}],"anonymous":false},{"type":"event","name":"UserLockAmountUpdated","inputs":[{"name":"oldAmount","type":"uint256","indexed":false,"internalType":"uint256"},{"name":"newAmount","type":"uint256","indexed":false,"internalType":"uint256"}],"anonymous":false},{"type":"event","name":"ValidatorLockAmountUpdated","inputs":[{"name":"oldAmount","type":"uint256","indexed":false,"internalType":"uint256"},{"name":"newAmount","type":"uint256","indexed":false,"internalType":"uint256"}],"anonymous":false},{"type":"event","name":"ValidatorRewardsDistributed","inputs":[{"name":"distributionId","type":"uint256","indexed":true,"internalType":"uint256"},{"name":"validators","type":"address[]","indexed":false,"internalType":"address[]"},{"name":"totalSno","type":"uint256","indexed":false,"internalType":"uint256"},{"name":"totalEth","type":"uint256","indexed":false,"internalType":"uint256"}],"anonymous":false},{"type":"event","name":"ValidatorSlashed","inputs":[{"name":"validator","type":"address","indexed":true,"internalType":"address"},{"name":"slashedAmount","type":"uint256","indexed":false,"internalType":"uint256"},{"name":"remainingAmount","type":"uint256","indexed":false,"internalType":"uint256"}],"anonymous":false},{"type":"error","name":"CheckpointUnorderedInsertion","inputs":[]},{"type":"error","name":"ECDSAInvalidSignature","inputs":[]},{"type":"error","name":"ECDSAInvalidSignatureLength","inputs":[{"name":"length","type":"uint256","internalType":"uint256"}]},{"type":"error","name":"ECDSAInvalidSignatureS","inputs":[{"name":"s","type":"bytes32","internalType":"bytes32"}]},{"type":"error","name":"ERC20ExceededSafeSupply","inputs":[{"name":"increasedSupply","type":"uint256","internalType":"uint256"},{"name":"cap","type":"uint256","internalType":"uint256"}]},{"type":"error","name":"ERC20InsufficientAllowance","inputs":[{"name":"spender","type":"address","internalType":"address"},{"name":"allowance","type":"uint256","internalType":"uint256"},{"name":"needed","type":"uint256","internalType":"uint256"}]},{"type":"error","name":"ERC20InsufficientBalance","inputs":[{"name":"sender","type":"address","internalType":"address"},{"name":"balance","type":"uint256","internalType":"uint256"},{"name":"needed","type":"uint256","internalType":"uint256"}]},{"type":"error","name":"ERC20InvalidApprover","inputs":[{"name":"approver","type":"address","internalType":"address"}]},{"type":"error","name":"ERC20InvalidReceiver","inputs":[{"name":"receiver","type":"address","internalType":"address"}]},{"type":"error","name":"ERC20InvalidSender","inputs":[{"name":"sender","type":"address","internalType":"address"}]},{"type":"error","name":"ERC20InvalidSpender","inputs":[{"name":"spender","type":"address","internalType":"address"}]},{"type":"error","name":"ERC2612ExpiredSignature","inputs":[{"name":"deadline","type":"uint256","internalType":"uint256"}]},{"type":"error","name":"ERC2612InvalidSigner","inputs":[{"name":"signer","type":"address","internalType":"address"},{"name":"owner","type":"address","internalType":"address"}]},{"type":"error","name":"ERC5805FutureLookup","inputs":[{"name":"timepoint","type":"uint256","internalType":"uint256"},{"name":"clock","type":"uint48","internalType":"uint48"}]},{"type":"error","name":"ERC6372InconsistentClock","inputs":[]},{"type":"error","name":"InvalidAccountNonce","inputs":[{"name":"account","type":"address","internalType":"address"},{"name":"currentNonce","type":"uint256","internalType":"uint256"}]},{"type":"error","name":"InvalidShortString","inputs":[]},{"type":"error","name":"ReentrancyGuardReentrantCall","inputs":[]},{"type":"error","name":"SafeCastOverflowedUintDowncast","inputs":[{"name":"bits","type":"uint8","internalType":"uint8"},{"name":"value","type":"uint256","internalType":"uint256"}]},{"type":"error","name":"StringTooLong","inputs":[{"name":"str","type":"string","internalType":"string"}]},{"type":"error","name":"Token__AlreadyLocked","inputs":[]},{"type":"error","name":"Token__CoreAlreadySet","inputs":[]},{"type":"error","name":"Token__CoreNotSet","inputs":[]},{"type":"error","name":"Token__DAOAlreadySet","inputs":[]},{"type":"error","name":"Token__DAONotSet","inputs":[]},{"type":"error","name":"Token__DistributionTooEarly","inputs":[]},{"type":"error","name":"Token__DistributionTooOld","inputs":[]},{"type":"error","name":"Token__ETHTransferFailed","inputs":[]},{"type":"error","name":"Token__InsufficientBalance","inputs":[]},{"type":"error","name":"Token__InvalidAddress","inputs":[]},{"type":"error","name":"Token__InvalidArrayLength","inputs":[]},{"type":"error","name":"Token__InvalidInterval","inputs":[]},{"type":"error","name":"Token__InvalidMerkleProof","inputs":[]},{"type":"error","name":"Token__InvalidMerkleRoot","inputs":[]},{"type":"error","name":"Token__NotLocked","inputs":[]},{"type":"error","name":"Token__NotValidator","inputs":[]},{"type":"error","name":"Token__OnlyDAO","inputs":[]},{"type":"error","name":"Token__RewardsAlreadyClaimed","inputs":[]},{"type":"error","name":"Token__TransferFailed","inputs":[]},{"type":"error","name":"Token__UnlockPending","inputs":[]},{"type":"error","name":"VotesExpiredSignature","inputs":[{"name":"expiry","type":"uint256","internalType":"uint256"}]}],"bytecode":{"object":"0x6101806040523462000097576200001f6200001962000106565b62000237565b6040516147949081620010f78239608051816133ae015260a05181613469015260c05181613378015260e051816133fd0152610100518161342301526101205181611591015261014051816115ba0152610160518181816104770152818161136201528181611ceb01528181611fac01526128200152f35b5f80fd5b634e487b7160e01b5f52604160045260245ffd5b604081019081106001600160401b03821117620000cb57604052565b6200009b565b601f909101601f19168101906001600160401b03821190821017620000cb57604052565b604051906200010482620000af565b565b620058cb80380380604051926200011e8285620000d1565b833981016020908183820312620000975782516001600160401b039384821162000097570181601f8201121562000097578051938411620000cb578360051b90604051946200017085840187620000d1565b8552838086019282010192831162000097578301905b82821062000195575050505090565b81516001600160a01b03811681036200009757815290830190830162000186565b60405190620001c582620000af565b60038252565b60405190620001da82620000af565b60018252565b60405190620001ef82620000af565b600a825269536d6172746e6f64657360b01b6020830152565b634e487b7160e01b5f52603260045260245ffd5b8051821015620002315760209160051b010190565b62000208565b62000241620001e0565b6200024b620001e0565b9062000256620001b6565b90602062534e4f60e81b818401526200026e620001cb565b603160f81b828201908152855190959194916001600160401b038211620000cb57620002a782620002a160035462000465565b620004a0565b8390601f8311600114620003d8579180620002de92620002e795945f92620003cc575b50508160011b915f199060031b1c19161790565b600355620005f4565b620002f282620007ab565b610120526200030183620008b5565b61014052815191012060e052519020610100524660a05262000322620009bc565b6080523060c052620003346001600b55565b4261016052600d805460ff60a01b19169055600e805460ff60a01b191690556200035e6008601755565b6200037269d3c21bcecceda1000000600f55565b6200038568056bc75e2d63100000601055565b8051905f5b8281106200039757505050565b80620003c5620003bb620003ae600194866200021c565b516001600160a01b031690565b600f5490620006dd565b016200038a565b015190505f80620002ca565b60035f52601f19831691907fc2575a0e9e593c00f959f8c92f12db2869c3395a3b0502d05e2516446f71f85b925f5b878282106200044e575050916001939185620002e79796941062000435575b505050811b01600355620005f4565b01515f1960f88460031b161c191690555f808062000426565b600185968293968601518155019501930162000407565b90600182811c9216801562000495575b60208310146200048157565b634e487b7160e01b5f52602260045260245ffd5b91607f169162000475565b601f8111620004ad575050565b60035f5260205f20906020601f840160051c83019310620004ea575b601f0160051c01905b818110620004de575050565b5f8155600101620004d2565b9091508190620004c9565b601f811162000502575050565b60045f5260205f20906020601f840160051c830193106200053f575b601f0160051c01905b81811062000533575050565b5f815560010162000527565b90915081906200051e565b601f811162000557575050565b60055f5260205f20906020601f840160051c8301931062000594575b601f0160051c01905b81811062000588575050565b5f81556001016200057c565b909150819062000573565b601f8111620005ac575050565b60065f5260205f20906020601f840160051c83019310620005e9575b601f0160051c01905b818110620005dd575050565b5f8155600101620005d1565b9091508190620005c8565b80519091906001600160401b038111620000cb5762000620816200061a60045462000465565b620004f5565b602080601f831160011462000658575081906200065393945f92620003cc5750508160011b915f199060031b1c19161790565b600455565b60045f52601f198316949091907f8a35acfbc15ff81a39ae7d344fd709f28e8600b4aa8c65c6b64bfe7fe36bd19b925f905b878210620006c4575050836001959610620006ab575b505050811b01600455565b01515f1960f88460031b161c191690555f8080620006a0565b806001859682949686015181550195019301906200068a565b91906001600160a01b038316801562000793576002548281018091116200078d576002556001600160a01b0384165f90815260208181526040808320805486019055518481527fddf252ad1be2c89b69c2b068fc378daa952ba7f163c4a11628f55a4df523b3ef9190a3600254926001600160d01b03841162000767576200010492935062000ada565b604051630e58ae9360e11b8152600481018590526001600160d01b036024820152604490fd5b62000ac6565b60405163ec442f0560e01b81525f6004820152602490fd5b90815160208082105f14620007cb57505090620007c89062000a4b565b90565b6001600160401b038211620000cb57620007f282620007ec60055462000465565b6200054a565b602090601f83116001146200082d575081906200082593945f92620003cc5750508160011b915f199060031b1c19161790565b60055560ff90565b60055f52601f198316949091907f036b6384b5eca791c62761152d0c79bb0604c104a5fb6f4eb0703f3154bb3db0925f905b8782106200089c57505083600195961062000883575b505050811b0160055560ff90565b01515f1960f88460031b161c191690555f808062000875565b806001859682949686015181550195019301906200085f565b90815160208082105f14620008d257505090620007c89062000a4b565b6001600160401b038211620000cb57620008f982620008f360065462000465565b6200059f565b602090601f831160011462000934575081906200092c93945f92620003cc5750508160011b915f199060031b1c19161790565b60065560ff90565b60065f52601f198316949091907ff652222313e28459528d920b65115c16c04f3efc82aaedc97be59f3f377c0d3f925f905b878210620009a35750508360019596106200098a575b505050811b0160065560ff90565b01515f1960f88460031b161c191690555f80806200097c565b8060018596829496860151815501950193019062000966565b60e051610100516040519060208201927f8b73c3c69bb8fe3d512ecc4cf759cc79239f7b179b0ffacaa9a75d522b39400f8452604083015260608201524660808201523060a082015260a0815260c0810181811060018060401b03821117620000cb5760405251902090565b60208151910151906020811062000a3d575090565b5f199060200360031b1b1690565b601f81511162000a665762000a608162000a28565b90511790565b6040519063305a27a960e01b82528160208060048301528251908160248401525f935b82851062000aac575050604492505f838284010152601f80199101168101030190fd5b848101820151868601604401529381019385935062000a89565b634e487b7160e01b5f52601160045260245ffd5b9062000ae68162000bdc565b9165ffffffffffff80431162000bbd57600a548062000b8c575062000b1e9062000b1562000104955f620010c2565b90431662000efe565b50506001600160a01b0390811690811562000b6f575b60086020527f5eff886ea0ce6ca488a3d6e336d6c0f75f46d19b42c06ce5ee98e42c96d256c7545f9283526040909220548116911662000cd1565b62000b8462000b7e8462000bdc565b62000c10565b505062000b34565b905f199180838101116200078d57620001049562000b1e9362000b1592600a5f5260205f2001015460301c620010c2565b6040516306dfcc6560e41b815260306004820152436024820152604490fd5b6001600160d01b039081811162000bf1571690565b604490604051906306dfcc6560e41b825260d060048301526024820152fd5b65ffffffffffff80431162000bbd57600a548062000c3d575062000b1562000c39925f620010dc565b9091565b5f199281848101116200078d57600a5f5292015f805160206200588b833981519152015462000c399262000b159160301c620010dc565b65ffffffffffff9081431162000bbd5780548062000ca7575062000c9d62000c39935f620010c2565b9143169062000ff7565b5f199381858101116200078d5762000c399462000c9d92845f5260205f2001015460301c620010c2565b6001600160a01b0380831693929190811690818514158062000e30575b62000cfb575b5050505050565b8162000d75575b50508262000d13575b808062000cf4565b6001600160a01b03165f9081526009602052604090205f80516020620058ab8339815191529162000d519162000d4a909162000bdc565b9062000c74565b604080516001600160d01b039384168152919092166020820152a25f808062000d0b565b6001600160a01b03165f90815260096020526040902062000d968462000bdc565b9065ffffffffffff9081431162000bbd5780548062000df457509062000dd19162000c9d5f80516020620058ab833981519152945f620010dc565b604080516001600160d01b039384168152919092166020820152a25f8062000d02565b91905f199280848101116200078d575f80516020620058ab8339815191529462000dd19462000c9d92845f5260205f2001015460301c620010dc565b5083151562000cee565b5f198101919082116200078d57565b600a549068010000000000000000821015620000cb576001820180600a558210156200023157600a5f5280516020919091015160301b65ffffffffffff191665ffffffffffff91909116175f805160206200588b83398151915290910155565b90815468010000000000000000811015620000cb576001810180845581101562000231575f9283526020928390208251929093015160301b65ffffffffffff191665ffffffffffff9290921691909117910155565b600a54919291801562000fc95762000f1a62000f319162000e3a565b600a5f525f805160206200588b8339815191520190565b9081549165ffffffffffff9081841691831680831162000fb75786920362000f795762000f7292509065ffffffffffff82549181199060301b169116179055565b60301c9190565b505062000fb19062000f9c62000f8e620000f5565b65ffffffffffff9092168252565b6001600160d01b038516602082015262000e49565b62000f72565b604051632520601d60e01b8152600490fd5b5062000ff29062000fdd62000f8e620000f5565b6001600160d01b038416602082015262000e49565b5f9190565b805492939280156200109857620010126200101d9162000e3a565b825f5260205f200190565b9182549265ffffffffffff9182851692811680841162000fb7578793036200105f575062000f7292509065ffffffffffff82549181199060301b169116179055565b91505062000fb1916200108362001075620000f5565b65ffffffffffff9093168352565b6001600160d01b038616602083015262000ea9565b509062000ff291620010ad62001075620000f5565b6001600160d01b038516602083015262000ea9565b6001600160d01b03918216908216019081116200078d5790565b6001600160d01b03918216908216039081116200078d579056fe60806040526004361015610022575b3615610018575f80fd5b610020612ef1565b005b5f3560e01c8063012775911461044757806306fdde0314610442578063095ea7b31461043d57806312bc9f8c146104385780631342c7271461043357806318160ddd1461042e5780631f7635311461042957806323b872dd14610424578063243f72b31461041f5780632e54575d1461041a578063313ce567146104155780633644e515146104105780633a46b1a81461040b5780634a4fbeec146104065780634b667916146104015780634bf5d7e9146103fc57806353803211146103f7578063587cde1e146103f257806359bfafad146103ed5780635c19a95c146103e85780635dc437e3146103e3578063601c438d146103de5780636b451ba9146103ca5780636fcfff45146103d957806370a08231146103d457806370e2709a146103cf578063714bd915146103ca5780637238ccdb146103b1578063765c542a146103c557806377bea8c5146103c05780637855328f146103bb5780637ecebe00146103b65780638109fff1146103b15780638180c1c2146103ac57806384b0196e146103a75780638b1297e0146103a25780638e539e8c1461039d578063918a93d11461039857806391ddadf41461039357806395d89b411461038e57806396169017146103895780639a3e13f0146103845780639ab24eb01461037f5780639fb404131461037a578063a9059cbb14610375578063addfbd7614610370578063c0a77da91461036b578063c2227ac714610366578063c3cda52014610361578063cb67f9481461035c578063d25074cf14610357578063d250b6cb14610352578063d505accf1461034d578063dc8bde8114610348578063dd62ed3e14610343578063e21f2df81461033e578063e73a914c14610339578063ec5188b514610334578063f0c0189a1461032f578063f1127ed81461032a578063f1a9e63114610325578063f63b773814610320578063f6a897271461031b578063f721ed1214610316578063f76dfeac14610311578063f91c67ed1461030c5763fd4f19ea0361000e57612540565b612497565b61243e565b6123e9565b6123cc565b61236a565b61234d565b61229b565b612276565b61224e565b6121c0565b6121a3565b61214c565b612106565b611fd3565b611f93565b611f76565b611e21565b611d58565b611d1b565b611ccc565b611c51565b611b24565b611af3565b611aac565b6119b4565b611907565b611862565b611837565b611812565b61174b565b611669565b611579565b611504565b6112e3565b6114cc565b6113d3565b611385565b61134b565b611200565b6112c6565b61128e565b611228565b6110c0565b6110a3565b611081565b610f0a565b610ed1565b610d8f565b610cfe565b610bcc565b610b8f565b610ab6565b610a94565b610a79565b6109cd565b61094c565b6108a1565b61079b565b61077e565b610761565b6106d9565b6106a8565b610576565b61045a565b5f91031261045657565b5f80fd5b34610456575f3660031901126104565760025461049e6301e133807f0000000000000000000000000000000000000000000000000000000000000000420304613741565b906104ac6017548093612800565b601354908183039383851161051f576001600160801b0380601154169081870396871161051f57601254169081870396871161051f5761051b946040519788978893909796959260c0959260e08601998652602086015260408501526060840152608083015260a08201520152565b0390f35b612568565b91908251928382525f5b84811061054e575050825f602080949584010152601f8019910116010190565b60208183018101518483018201520161052e565b906020610573928181520190610524565b90565b34610456575f366003190112610456576040515f600354610596816125a7565b8084529060209060019081811690811561062857506001146105cf575b61051b856105c381870382611be2565b60405191829182610562565b60035f90815293507fc2575a0e9e593c00f959f8c92f12db2869c3395a3b0502d05e2516446f71f85b5b838510610615575050505081016020016105c38261051b6105b3565b80548686018401529382019381016105f9565b86955061051b969350602092506105c394915060ff191682840152151560051b82010192936105b3565b600435906001600160a01b038216820361045657565b602435906001600160a01b038216820361045657565b60a435906001600160a01b038216820361045657565b35906001600160a01b038216820361045657565b34610456576040366003190112610456576106ce6106c4610652565b6024359033613b05565b602060405160018152f35b3461045657602036600319011261045657600e54600435906001600160a01b031680610743575b601080549083905560408051918252602082018490527fed5bb45b5ea80d4d6d134cc17453fb509c42ac4ac7da4a2a68036b6f41184c4c9190819081015b0390a1005b330361074f575f610700565b60405163077d5fb960e01b8152600490fd5b34610456575f366003190112610456576020601654604051908152f35b34610456575f366003190112610456576020600254604051908152f35b34610456575f36600319011261045657600e546001600160a01b031680610895575b506107c6612f2f565b6017546001811115610883576107de8160011c601755565b600d546001600160a01b03169060175491803b1561045657604051631b8ee6f960e11b815260048101939093525f908390602490829084905af191821561087e577f86ae1dce805c6398d216b494416bfb4e21b626edcde2225efe26154daebb9ff592610865575b5060175460408051928352602083019190915290a16100206001600b55565b8061087261087892611b5e565b8061044c565b5f610846565b6125fd565b604051632ceea16160e11b8152600490fd5b330361074f575f6107bd565b34610456576060366003190112610456576108ba610652565b6108c2610668565b6001600160a01b0382165f9081526001602090815260408083203384529091529020604435919054925f19841061090a575b6108fe9350612f52565b60405160018152602090f35b82841061092657610921836108fe95033383613b9e565b6108f4565b604051637dc7a0d960e11b81523360048201526024810185905260448101849052606490fd5b34610456576020366003190112610456576001600160a01b0361096d610652565b165f908152601c60209081526040918290205482516001600160801b038216815260809190911c91810191909152f35b9181601f84011215610456578235916001600160401b038311610456576020808501948460051b01011161045657565b34610456576060366003190112610456576044356001600160401b038111610456576109fd90369060040161099d565b90610a06612f2f565b610a0e612608565b91610a17612608565b90610a2061267a565b92845115610a74576004356020860152825115610a7457610a4a916024356020850152369161272c565b92825115610a7457610a6a936020840152610a648361270b565b5061305d565b6100206001600b55565b6126f7565b34610456575f36600319011261045657602060405160128152f35b34610456575f366003190112610456576020610aae613375565b604051908152f35b34610456576040366003190112610456576001600160a01b03610ad7610652565b165f52600960205260405f20610aee60243561348f565b8154905f829160058411610b41575b610b08935084613e95565b9081610b2657505060205f5b6040516001600160d01b039091168152f35b610b3160209261258c565b905f52815f20015460301c610b14565b9192610b4c81613d04565b810390811161051f57610b0893855f5265ffffffffffff808360205f20015416908516105f14610b7d575091610afd565b929150610b8990612857565b90610afd565b34610456576020366003190112610456576001600160a01b03610bb0610652565b165f52601b602052602060ff60405f2054166040519015158152f35b34610456576060366003190112610456576001600160401b0360043581811161045657610bfd90369060040161099d565b909160243581811161045657610c1790369060040161099d565b93909160443581811161045657610c3290369060040161099d565b610c3a612f2f565b610c4386612648565b96610c4d87612648565b95610c57886126ae565b975f5b818110610c6c57610a6a8a8a8d61305d565b610c7781838a61277a565b35610c82828d612718565b52610c8e81858561277a565b35610c99828b612718565b5284811015610a745760059080821b870135601e1988360301811215610456578701803590898211610456576020829101931b3603831361045657600192610ce291369161272c565b610cec828d612718565b52610cf7818c612718565b5001610c5a565b34610456575f36600319011261045657610d1743613cd2565b65ffffffffffff80610d2843613cd2565b16911603610d7d5761051b604051610d3f81611b91565b601d81527f6d6f64653d626c6f636b6e756d6265722666726f6d3d64656661756c740000006020820152604051918291602083526020830190610524565b6040516301bfc1c560e61b8152600490fd5b60408060031936011261045657610da4610652565b600c549091602435916001600160a01b039081168015610ec0573303610eaf578316928315610eaf5782158015610ea6575b610e955791610e9091610e82610e677f2e2b30c44aa6173c25ae27b0cd4614d3f9abaa2aa6da86969b0f6b25709edd4495610e5c610e2e6001600160801b0387169260018060a01b03165f52601c60205260405f2090565b610e3c83825460801c61278a565b81546001600160801b031660809190911b6001600160801b031916179055565b60125460801c61278a565b6001600160801b036012549181199060801b16911617601255565b519081529081906020820190565b0390a2005b815163e1c399a560e01b8152600490fd5b50823410610dd6565b8151633682629560e11b8152600490fd5b825163bb4b979b60e01b8152600490fd5b346104565760203660031901126104565760206001600160a01b0380610ef5610652565b165f526008825260405f205416604051908152f35b346104565760408060031936011261045657610f24610652565b600e5460243591906001600160a01b0390811680611064575b50610f46612f2f565b8116918215611053576001600160a01b0382165f908152601b60205260409020805460ff811615908115611044575b50611033577f83b04ecf7330997e742429a641e136d9f3698c3e9ac9cb9ce0cc2d6da36a244d9394610fd0826001610fec940195610fb486885461259a565b8097610fca610fc58960135461259a565b601355565b556134d0565b82610ff9575b5191825260208201929092529081906040820190565b0390a26100206001600b55565b611003833061354c565b80518381527fa14bbe699b05e82496d33230d156aed7aa953754b5bc6578d152aa3d577c6fdd90602090a1610fd6565b8451636693c0b160e01b8152600490fd5b60ff915060081c16155f610f75565b8351633682629560e11b8152600490fd5b3303611070575f610f3d565b835163077d5fb960e01b8152600490fd5b346104565760203660031901126104565761002061109d610652565b33613654565b34610456575f366003190112610456576020601554604051908152f35b3461045657604080600319360112610456576110da610652565b600c549091602435916001600160a01b039081168015610ec0573303610eaf578316928315610eaf57821580156111c5575b610e955791610e9091610e826111a97fe327b247066bdf32cf2493778e3fce4339b69c1e379a3b0dc780779bf67fe155956111986111646001600160801b0387169260018060a01b03165f52601c60205260405f2090565b61117e8361117983546001600160801b031690565b6127a5565b6001600160801b03166001600160801b0319825416179055565b6012546001600160801b03166127a5565b6001600160801b03166001600160801b03196012541617601255565b50826111fa6001600160801b036111ec8460018060a01b03165f52601c60205260405f2090565b54166001600160801b031690565b1061110c565b34610456575f36600319011261045657600c546040516001600160a01b039091168152602090f35b34610456576020366003190112610456576001600160a01b03611249610652565b165f52600960205260405f205463ffffffff9081811161126f5760209160405191168152f35b604490604051906306dfcc6560e41b8252602060048301526024820152fd5b34610456576020366003190112610456576020610aae6112ac610652565b6001600160a01b03165f9081526020819052604090205490565b34610456575f366003190112610456576020601854604051908152f35b34610456576020366003190112610456576001600160a01b03611304610652565b165f52601b602052608060405f20600181549101546001600160801b036040519260ff81161515845260ff8160081c161515602085015260101c1660408301526060820152f35b34610456575f3660031901126104565760206040517f00000000000000000000000000000000000000000000000000000000000000008152f35b3461045657604036600319011261045657602060ff6113c76113a5610668565b6004355f52601a845260405f209060018060a01b03165f5260205260405f2090565b54166040519015158152f35b3461045657604080600319360112610456576113ed610652565b600c549091602435916001600160a01b039081168015610ec0573303610eaf578316928315610eaf57821580156114ab575b610e955791610e9091610e826111a97fd00ba715ae3c46d053c474becf1eac7e6e95a328aa284790d807e1d8a0d9a5459561145b853083612f52565b6001600160a01b03165f908152601c602052604090206001600160801b0385169061149a9061117e8361149583546001600160801b031690565b61278a565b6012546001600160801b031661278a565b506001600160a01b0381165f9081526020819052604090208390541061141f565b34610456576020366003190112610456576001600160a01b036114ed610652565b165f526007602052602060405f2054604051908152f35b3461045657602036600319011261045657600e54600435906001600160a01b03168061156d575b600f80549083905560408051918252602082018490527f9c9b85b44c3f57e8968e60b806f2fdac5ccdb819a9eb784900cc23cbf804516791908190810161073e565b330361074f575f61152b565b34610456575f3660031901126104565761161a6115b57f0000000000000000000000000000000000000000000000000000000000000000614044565b6115de7f0000000000000000000000000000000000000000000000000000000000000000614142565b906115e7612622565b90604051938493600f60f81b855261160c60209360e0602088015260e0870190610524565b908582036040870152610524565b4660608501523060808501525f60a085015283810360c0850152602080845192838152019301915f5b82811061165257505050500390f35b835185528695509381019392810192600101611643565b346104565760408060031936011261045657611683610652565b600c549091602435916001600160a01b039081168015610ec0573303610eaf578316928315610eaf5782158015611727575b610e955791610e9091610e82610e677f3356fc2afc21a405a1995355aed4bcb93f799b0b103e3c32c6035e9158dc34889561171c61170d6001600160801b0387169260018060a01b03165f52601c60205260405f2090565b610e3c83611179835460801c90565b60125460801c6127a5565b506001600160a01b0381165f908152601c6020526040902054839060801c106116b5565b346104565760203660031901126104565761176760043561348f565b600a54905f8291600584116117b9575b6117819350613e2f565b8061179257506040515f8152602090f35b61179d60209161258c565b600a5f525f8051602061473f833981519152015460301c610b14565b91926117c481613d04565b810390811161051f5761178193600a5f5265ffffffffffff80835f8051602061473f833981519152015416908516105f14611800575091611777565b92915061180c90612857565b90611777565b34610456575f36600319011261045657602060ff600e5460a01c166040519015158152f35b34610456575f36600319011261045657602061185243613cd2565b65ffffffffffff60405191168152f35b34610456575f366003190112610456576040515f600454611882816125a7565b8084529060209060019081811690811561062857506001146118ae5761051b856105c381870382611be2565b60045f90815293507f8a35acfbc15ff81a39ae7d344fd709f28e8600b4aa8c65c6b64bfe7fe36bd19b5b8385106118f4575050505081016020016105c38261051b6105b3565b80548686018401529382019381016118d8565b34610456575f366003190112610456575f606060405161192681611b76565b828152826020820152826040820152015261051b4761194760115460801c90565b60125460801c61196f6001600160801b0380931692611966848661259a565b9216809261259a565b91611978611c03565b84815260208082019283526040808301948552606092830195865280519687529251908601529151908401529051908201529081906080820190565b34610456576040366003190112610456576119cd610652565b6119d5610668565b600e5490916001600160a01b0391821680611aa0575b5060ff600d5460a01c16611a8e578116918215611a7c57826bffffffffffffffffffffffff60a01b600c541617600c551690611a438260018060a01b03166bffffffffffffffffffffffff60a01b600d541617600d55565b600d805460ff60a01b1916600160a01b1790557f83de200b1ed6a3409606cc977ec14552eb63af6b7323e3791825056342f2312e5f80a3005b604051633682629560e11b8152600490fd5b60405163653ce49960e01b8152600490fd5b330361074f575f6119eb565b34610456576020366003190112610456576001600160a01b03611acd610652565b165f526009602052602060018060d01b03611aea60405f20613719565b16604051908152f35b34610456575f36600319011261045657601154604080516001600160801b038316815260809290921c602083015290f35b34610456576040366003190112610456576106ce611b40610652565b6024359033612f52565b634e487b7160e01b5f52604160045260245ffd5b6001600160401b038111611b7157604052565b611b4a565b608081019081106001600160401b03821117611b7157604052565b604081019081106001600160401b03821117611b7157604052565b60a081019081106001600160401b03821117611b7157604052565b60c081019081106001600160401b03821117611b7157604052565b90601f801991011681019081106001600160401b03821117611b7157604052565b60405190611c1082611b76565b565b60405190611c1082611b91565b60405190611c1082611bac565b90604051611c3981611b91565b91546001600160801b038116835260801c6020830152565b34610456576020366003190112610456576004355f52601960205260c060405f20805490611c8160018201611c2c565b906002810154611cbb60046003840154930154936040519586526020860190602090816001600160801b0391828151168552015116910152565b6060840152608083015260a0820152f35b34610456575f366003190112610456576020610aae611d126301e133807f0000000000000000000000000000000000000000000000000000000000000000420304613741565b60175490612800565b34610456575f366003190112610456576020601454604051908152f35b6064359060ff8216820361045657565b6084359060ff8216820361045657565b346104565760c036600319011261045657611d71610652565b60443590602435611d80611d38565b834211611e0857611dfc61002094611e03926040519060208201927fe48329057bfd03d55e49b547132e39cffd9c1820ad7b9d4c5307691425d15adf845260018060a01b0388166040840152866060840152608083015260808252611de482611bac565b611df760a43593608435935190206137b0565b6137d6565b91826137ee565b613654565b604051632341d78760e11b815260048101859052602490fd5b3461045657602036600319011261045657611e3a610652565b600c546001600160a01b039081168015611f64573303611a7c578116908115611a7c576001600160a01b0381165f908152601b6020526040902090611e87611e83835460ff1690565b1590565b15611f5a57815460101c6001600160801b03168015611f4857611ea990612847565b4210611f3657611f1b82611f1160017f4923eb765bbfdcb92d06db224c77f6826606231d7bee79a6d0668c3c0988895c9501548094611eed610fc58360135461259a565b6001600160a01b0381165f908152601b602052604081208181556001015530612f52565b5460081c60ff1690565b60408051911515825260208201929092529081908101610e90565b604051631441f76b60e31b8152600490fd5b6040516310818add60e31b8152600490fd5b61002092506134d0565b60405163bb4b979b60e01b8152600490fd5b34610456575f366003190112610456576020601754604051908152f35b34610456575f3660031901126104565760206301e133807f0000000000000000000000000000000000000000000000000000000000000000420304610aae565b346104565760e036600319011261045657611fec610652565b611ff4610668565b60443590606435612003611d48565b8142116120ed576001600160a01b038581165f8181526007602090815260409182902080546001810190915582517f6e71edae12b1b97f4d1f60370fef10105fa2faae0126114a169c64845d6126c99281019283529283019390935292861660608201526080810187905260a081019190915260c0808201949094529283526120a692909161209360e083611be2565b611df760c4359360a435935190206137b0565b6001600160a01b03848116908216036120c3575061002092613b05565b6040516325c0072360e11b81526001600160a01b0391821660048201529084166024820152604490fd5b60405163313c898160e11b815260048101839052602490fd5b346104565760403660031901126104565761211f610652565b602435801515810361045657600c546001600160a01b03168015611f64573303611a7c5761002091612872565b3461045657604036600319011261045657602061219a61216a610652565b612172610668565b6001600160a01b039182165f9081526001855260408082209290931681526020919091522090565b54604051908152f35b34610456575f366003190112610456576020601354604051908152f35b34610456576020366003190112610456576121d9610652565b600e549060ff8260a01c1661223c576001600160a01b0316908115611a7c5760ff60a01b1982166001600160a81b031990911617600160a01b17600e557f8aad84fcad50e723fa3bcf0fb32c5bea4c71078b77b9aedfa638f146f3a3f7b95f80a2005b60405163271270ff60e01b8152600490fd5b34610456575f36600319011261045657600d546040516001600160a01b039091168152602090f35b34610456575f36600319011261045657602060ff600d5460a01c166040519015158152f35b34610456576040366003190112610456576122b4610652565b6024359063ffffffff821682036104565761051b91612303916122d5612984565b506122de612984565b506001600160a01b03165f9081526009602052604090206122fd612984565b5061432c565b506040519061231182611b91565b5465ffffffffffff811680835260309190911c60209283019081526040805192835290516001600160d01b031692820192909252918291820190565b34610456575f366003190112610456576020601054604051908152f35b3461045657602036600319011261045657612383610652565b61238b612984565b5060018060a01b03165f52601c60205260406123a8815f20611c2c565b6123ca82518092602090816001600160801b0391828151168552015116910152565bf35b34610456575f366003190112610456576020600f54604051908152f35b34610456575f36600319011261045657600e546001600160a01b031680612432575b50612414612f2f565b601754610100811015610883576107de61242d826127be565b601755565b330361074f575f61240b565b34610456575f36600319011261045657601254604080516001600160801b038316815260809290921c602083015290f35b6001600160401b038111611b715760051b60200190565b604090606319011261045657606490565b346104565760c0366003190112610456576044356001600160401b0381116104565736602382011215610456578060040135906124d38261246f565b906124e16040519283611be2565b8282526020926024602084019160051b8301019136831161045657602401905b828210612529576100208461251536612486565b61251d61067e565b9160243560043561299c565b84809161253584610694565b815201910190612501565b34610456575f36600319011261045657600e546040516001600160a01b039091168152602090f35b634e487b7160e01b5f52601160045260245ffd5b6101f31981019190821161051f57565b5f1981019190821161051f57565b9190820391821161051f57565b90600182811c921680156125d5575b60208310146125c157565b634e487b7160e01b5f52602260045260245ffd5b91607f16916125b6565b81156125e9570490565b634e487b7160e01b5f52601260045260245ffd5b6040513d5f823e3d90fd5b6040519061261582611b91565b6001825260203681840137565b604051602081018181106001600160401b03821117611b71576040525f8152905f368137565b906126528261246f565b61265f6040519182611be2565b8281528092612670601f199161246f565b0190602036910137565b60405161268681611b91565b60018152805f5b6020808210156126a85790606060209282850101520161268d565b50505090565b906126b88261246f565b6126c56040519182611be2565b82815280926126d6601f199161246f565b01905f5b8281106126e657505050565b8060606020809385010152016126da565b634e487b7160e01b5f52603260045260245ffd5b805115610a745760200190565b8051821015610a745760209160051b010190565b92916127378261246f565b916127456040519384611be2565b829481845260208094019160051b810192831161045657905b82821061276b5750505050565b8135815290830190830161275e565b9190811015610a745760051b0190565b9190916001600160801b038080941691160191821161051f57565b6001600160801b03918216908216039190821161051f57565b908160011b918083046002149015171561051f57565b9060058202918083046005149015171561051f57565b90600a820291808304600a149015171561051f57565b8181029291811591840414171561051f57565b610573611d126301e133807f0000000000000000000000000000000000000000000000000000000000000000420304613741565b9062278d00820180921161051f57565b906001820180921161051f57565b9190820180921161051f57565b6001600160a01b038116918215611a7c57801561297b57600f54905b6001600160a01b0383165f90815260208190526040902082905410612969576001600160a01b0383165f908152601b60205260409020926128d0845460ff1690565b612957578261293b918160018761290f7fd282563949681e6cfdb94fd670bbab7a4b30fafa6b5da45661f03e04685d75ab99600160ff19825416179055565b805461ff00191687151560081b61ff00161781550155612934610fc583601354612865565b3090612f52565b604080519115158252602082019290925290819081015b0390a2565b6040516339ae9ed160e21b8152600490fd5b60405163e1c399a560e01b8152600490fd5b6010549061288e565b6040519061299182611b91565b5f6020838281520152565b600c5490949392906001600160a01b03168015611f64573303611a7c576129c1612f2f565b60ff6129ce825160ff1690565b1615612e3d5760185480612e13575b506129e742601855565b612a4c612a226020612a1b612a096129fd612813565b612a15612a098a612e4f565b6001600160801b031690565b90612865565b9501612e4f565b612a3c612a2d611c12565b6001600160801b039096168652565b6001600160801b03166020850152565b6001600160801b03612a6860208501516001600160801b031690565b168015159081612e09575b5061296957612c2b947f0aaf6549779ef42fddc20bd28c3cd20c8e59d204a284de7da0eb6f80d00fa894612a3c612aab601654612e63565b80968194612ab883601655565b612ae1612a09612ada612ad5612a0986516001600160801b031690565b6127d4565b6064900490565b91612b1f612b05612a09612ada612ad5612a0960208701516001600160801b031690565b612b0d611c12565b96879586906001600160801b03169052565b612b41612a09612ada612b3c612a0985516001600160801b031690565b6127ea565b98612b8f612b65612a09612ada612b3c612a0960208801516001600160801b031690565b612b7f612b70611c12565b6001600160801b03909d168d52565b6001600160801b031660208c0152565b8981612c42575b50505050506101f410612c35575b600e54612be6906001600160a01b031682516001600160801b0316906001600160801b0380612bdd60208701516001600160801b031690565b169216906138b1565b612c0b6020612bfc83516001600160801b031690565b9201516001600160801b031690565b604080516001600160801b039384168152919092166020820152a26139be565b611c106001600b55565b612c3d613843565b612ba4565b612d7e612da492612d44612d62612d5187612d448a612d3f8e612cdd7ff352171dfced38c74ab597e5a5447272758c10820c878b8f9cb2bbd4385c45849f612cb86020612bfc612d899f612cb883612bfc81612cce8f612cac612cbe91516001600160801b031690565b87516001600160801b03165b906127a5565b8a516001600160801b0316612cb8565b9e01516001600160801b031690565b98612cf8612ce9611c12565b6001600160801b039097168752565b612d0f602087019a8b906001600160801b03169052565b612d17611c1f565b93845285602085015260408401524260608401528060808401525f52601960205260405f2090565b612e71565b516001600160801b031690565b6011546001600160801b031661278a565b6001600160801b03166001600160801b03196011541617601155565b60115460801c61278a565b6001600160801b036011549181199060801b16911617601155565b612dfb612dcc6020612dbd84516001600160801b031690565b9301516001600160801b031690565b604080519485526001600160801b03938416602086015292169183019190915242606083015281906080820190565b0390a282815f808089612b96565b905047105f612a73565b601754612e1f91612865565b4210612e2b575f6129dd565b604051633d9fd52f60e11b8152600490fd5b604051637025699960e11b8152600490fd5b356001600160801b03811681036104565790565b5f19811461051f5760010190565b90608060049180518455612ed660018501602083015160206001600160801b0391612eb58382511685906001600160801b03166001600160801b0319825416179055565b015182546001600160801b0316911660801b6001600160801b031916179055565b60408101516002850155606081015160038501550151910155565b60145434810180911161051f576014556040513481527f6c703791f399558807424f489ccd811c72b4ff0b74af547264fad7c646776df060203392a2565b6002600b5414612f40576002600b55565b604051633ee5aeb560e01b8152600490fd5b6001600160a01b0380821694939291908515613045578216801561302d576001600160a01b0382165f9081526020819052604090205495848710612ffe5784611c10969703612fb08460018060a01b03165f525f60205260405f2090565b556001600160a01b0384165f908152602081815260409182902080548801905590518681527fddf252ad1be2c89b69c2b068fc378daa952ba7f163c4a11628f55a4df523b3ef9190a3614485565b60405163391434e360e21b81526001600160a01b03841660048201526024810188905260448101869052606490fd5b60405163ec442f0560e01b81525f6004820152602490fd5b604051634b637e8f60e11b81525f6004820152602490fd5b9190918051908351821480159061336a575b8015613360575b612e3d57601654935f935f955f926101f482119283155b8786106131f3575050505050505f5b8281106131a5575050508061313a575b50806130b55750565b804710612969576130d8612d896001600160801b03831661117960115460801c90565b6130ec6130e782601554612865565b601555565b5f80808084335af11561312d5760405190815233907fd47529329a0e6a3a4d8321064e299cc377b5a846bf6c5a0e261f2b29f2cc1ecf908060208101612952565b6390b8ec185f526004601cfd5b61315c612d626001600160801b0383166111796011546001600160801b031690565b6131668133613c27565b5f7f83ea025cb0f1356f7a6aba9597cca4b56e7362112686c985ef83704ba49f1ce86040518061319c3395829190602083019252565b0390a35f6130ac565b6001906131ed6131e0336131cb6131bc8588612718565b515f52601a60205260405f2090565b9060018060a01b03165f5260205260405f2090565b805460ff19166001179055565b0161309c565b9091929394986132038a88612718565b5190613217825f52601960205260405f2090565b918784613341575b6132e5575b508a6132308187612718565b51600484810154604080513360208201908152818301959095526060808201939093529182529193919261328692611e8392909161327d91613273608082611be2565b519020918a612718565b51875490613bd6565b6132d85750506132968b86612718565b5160028301546001938401549b9091906132bb836001600160801b038f1684026125df565b019b60801c02906132cb916125df565b019901949392919061308d565b5163676bf8dd60e01b8152fd5b6133056132fe336131cb845f52601a60205260405f2090565b5460ff1690565b61332f576133128761257c565b1161331d575f613224565b60405163554abc4760e01b8152600490fd5b604051633b5bf5d560e01b8152600490fd5b5061335b6132fe336131cb845f52601a60205260405f2090565b61321f565b5060648211613076565b50825182141561306f565b307f00000000000000000000000000000000000000000000000000000000000000006001600160a01b03161480613466575b156133d0577f000000000000000000000000000000000000000000000000000000000000000090565b60405160208101907f8b73c3c69bb8fe3d512ecc4cf759cc79239f7b179b0ffacaa9a75d522b39400f82527f000000000000000000000000000000000000000000000000000000000000000060408201527f000000000000000000000000000000000000000000000000000000000000000060608201524660808201523060a082015260a0815261346081611bc7565b51902090565b507f000000000000000000000000000000000000000000000000000000000000000046146133a7565b65ffffffffffff61349f43613cd2565b16808210156134b2575061057390613cd2565b6044925060405191637669fc0f60e11b835260048301526024820152fd5b815471ffffffffffffffffffffffffffffffff00ff191642601090811b71ffffffffffffffffffffffffffffffff000016919091179283905560405192901c6001600160801b031682526001600160a01b0316907f77635f8f13ee1a01d11246347c649817c6ee9fa7620ce4c6adfa2452bfa162b290602090a2565b91906001600160a01b038084168015613045576001600160a01b0385165f90815260208190526040902054948386106136235761359f84611c109697039160018060a01b03165f525f60205260405f2090565b5582600254036002555f817fddf252ad1be2c89b69c2b068fc378daa952ba7f163c4a11628f55a4df523b3ef6020604051878152a36135e56135e084614341565b6143db565b50505f908152600860205260408120549080527f5eff886ea0ce6ca488a3d6e336d6c0f75f46d19b42c06ce5ee98e42c96d256c75482169116613ef4565b60405163391434e360e21b81526001600160a01b039190911660048201526024810186905260448101849052606490fd5b6001600160a01b038181165f81815260086020526040812080548685166001600160a01b031982168117909255611c10969416946136cf9390928691907f3134e8a2e6d97e929a7e54011ea5485d7d196dd5f0ba4d4ef95803e8e3fc257f9080a46001600160a01b03165f9081526020819052604090205490565b91613ef4565b600a54806136e257505f90565b805f1981011161051f57600a5f527fc65a7bb8d6351c1cf70c95a316cc6a92839c986682d98bc35f958f4883f9d2a7015460301c90565b8054806137265750505f90565b5f1991818381011161051f575f5260205f2001015460301c90565b80156137a157690130ee8e717904440000905f905b80821061376257505090565b909161012c9081810291818304149015171561051f576101f49004916816c4abbebea01000008084111561379a575060010190613756565b9250505090565b50690130ee8e71790444000090565b6042906137bb613375565b906040519161190160f01b8352600283015260228201522090565b9161057393916137e5936141ff565b9092919261429f565b6001600160a01b0381165f908152600760205260409020805460018101909155909181900361381b575050565b6040516301d4b62360e61b81526001600160a01b039092166004830152602482015260449150fd5b6016546101f481116138525750565b6101f319810190811161051f576020817fe0a4066fee20bf0526d812a62ca63b351283196f8b44e008b1c1dde72214a71b925f52601982525f6004604082208281558260018201558260028201558260038201550155604051908152a1565b9190811515908180613952575b6129695780613942575b506138d1575050565b6015549181830180931161051f575f80939281939282936015555af13d1561393d573d6001600160401b038111611b71576040519061391a601f8201601f191660200183611be2565b81525f60203d92013e5b1561392b57565b604051630414e46960e21b8152600490fd5b613924565b61394c9084613c27565b5f6138c8565b508247106138be565b9190939293606083019060608452805180925260808401916020809201915f5b8281106139a1575050505090604091946001600160801b03809216602085015216910152565b83516001600160a01b03168552938101939281019260010161397b565b9091926139cc825160ff1690565b906139e1612a0985516001600160801b031690565b9160ff6139fb612a0960208801516001600160801b031690565b911691613a0883856125df565b93613a35613a2a613a1986866125df565b92613a248789612800565b9061259a565b93613a248684612800565b905f5b858110613a9d5750505050505050907fb51a41382edfd0798f2ed160e2936e3327b0be1c4d536bb8bba6dc0e09bcdca591612952613a916020613a8285516001600160801b031690565b9401516001600160801b031690565b6040519384938461395b565b613ab7613aaa828a612718565b516001600160a01b031690565b6001600160a01b038082169291908315611a7c57600193613ae2928b9187938a1614613ae8576138b1565b01613a38565b915050613af5888b612865565b613aff8787612865565b916138b1565b6001600160a01b038082169291908315613b86578216938415613b6e5780613b647f8c5be1e5ebec7d5bd14f71427d1e84f3dd0314c0f7b2291e5b200ac8c7c3b925946131cb60209560018060a01b03165f52600160205260405f2090565b55604051908152a3565b604051634a1406b160e11b81525f6004820152602490fd5b60405163e602df0560e01b81525f6004820152602490fd5b906001600160a01b0380831615613b8657811615613b6e576131cb613bd39260018060a01b03165f52600160205260405f2090565b55565b929091905f915b8451831015613c1f57613bf08386612718565b519081811015613c0e575f52602052600160405f205b920191613bdd565b905f52602052600160405f20613c06565b915092501490565b91906001600160a01b038316801561302d5760025482810180911161051f576002556001600160a01b0384165f90815260208181526040808320805486019055518481527fddf252ad1be2c89b69c2b068fc378daa952ba7f163c4a11628f55a4df523b3ef9190a3600254926001600160d01b038411613cac57611c1092935061440d565b604051630e58ae9360e11b8152600481018590526001600160d01b036024820152604490fd5b65ffffffffffff90818111613ce5571690565b604490604051906306dfcc6560e41b8252603060048301526024820152fd5b600181111561057357600181600160801b811015613e1d575b613dc5613dbb613db1613da7613d9d613d93613dd197600488600160401b613dcc9a1015613e10575b640100000000811015613e03575b62010000811015613df6575b610100811015613dea575b6010811015613dde575b1015613dd6575b60030260011c613d8c818b6125df565b0160011c90565b613d8c818a6125df565b613d8c81896125df565b613d8c81886125df565b613d8c81876125df565b613d8c81866125df565b80936125df565b821190565b900390565b60011b613d7c565b811c9160021b91613d75565b60081c91811b91613d6b565b60101c9160081b91613d60565b60201c9160101b91613d54565b60401c9160201b91613d46565b50600160401b9050608082901c613d1d565b905b828110613e3d57505090565b90918082169080831860011c820180921161051f57600a5f5265ffffffffffff80835f8051602061473f833981519152015416908516105f14613e835750915b90613e31565b929150613e8f90612857565b90613e7d565b91905b838210613ea55750505090565b9091928083169080841860011c820180921161051f57845f5265ffffffffffff808360205f20015416908416105f14613ee25750925b9190613e98565b939250613eee90612857565b91613edb565b6001600160a01b0380831693929190811690818514158061403b575b613f1c575b5050505050565b81613fa0575b505082613f31575b8080613f15565b6001600160a01b03165f9081526009602052604090207fdec2bacdd2f05b59de34da9b523dff8be42e5e38e818c82fdb0bae774387a72491613f7d91613f779091614341565b90614374565b604080516001600160d01b039384168152919092166020820152a25f8080613f2a565b6001600160a01b03165f908152600960205260409020613fbf84614341565b613fc843613cd2565b6001600160d01b03918280613fdc86613719565b16911690039282841161051f577fdec2bacdd2f05b59de34da9b523dff8be42e5e38e818c82fdb0bae774387a724936140319261401892614684565b6040805192851683529316602082015291829190820190565b0390a25f80613f22565b50831515613f10565b60ff81146140825760ff811690601f8211614070576040519161406683611b91565b8252602082015290565b604051632cd44ac360e21b8152600490fd5b50604051600554815f614094836125a7565b8083529260209060019081811690811561411e57506001146140bf575b505061057392500382611be2565b91509260055f527f036b6384b5eca791c62761152d0c79bb0604c104a5fb6f4eb0703f3154bb3db0935f925b82841061410657506105739450505081016020015f806140b1565b855487850183015294850194869450928101926140eb565b9150506020925061057394915060ff191682840152151560051b8201015f806140b1565b60ff81146141645760ff811690601f8211614070576040519161406683611b91565b50604051600654815f614176836125a7565b8083529260209060019081811690811561411e57506001146141a057505061057392500382611be2565b91509260065f527ff652222313e28459528d920b65115c16c04f3efc82aaedc97be59f3f377c0d3f935f925b8284106141e757506105739450505081016020015f806140b1565b855487850183015294850194869450928101926141cc565b91907f7fffffffffffffffffffffffffffffff5d576e7357a4501ddfe92f46681b20a08411614276579160209360809260ff5f9560405194855216868401526040830152606082015282805260015afa1561087e575f516001600160a01b0381161561426c57905f905f90565b505f906001905f90565b5050505f9160039190565b6004111561428b57565b634e487b7160e01b5f52602160045260245ffd5b6142a881614281565b806142b1575050565b6142ba81614281565b600181036142d45760405163f645eedf60e01b8152600490fd5b6142dd81614281565b600281036142fe5760405163fce698f760e01b815260048101839052602490fd5b8061430a600392614281565b146143125750565b6040516335e2f38360e21b81526004810191909152602490fd5b8054821015610a74575f5260205f2001905f90565b6001600160d01b0390818111614355571690565b604490604051906306dfcc6560e41b825260d060048301526024820152fd5b9061437e43613cd2565b6001600160d01b0391828061439286613719565b1691160191821161051f576143a692614684565b9091565b6143b343613cd2565b906001600160d01b039081806143c76136d5565b1691160190811161051f576143a69161459e565b6143e443613cd2565b906001600160d01b039081806143f86136d5565b169116900390811161051f576143a69161459e565b90611c109161442361441e83614341565b6143aa565b50506001600160a01b03908116908115614472575b60086020527f5eff886ea0ce6ca488a3d6e336d6c0f75f46d19b42c06ce5ee98e42c96d256c7545f92835260409092205481169116613ef4565b61447e6135e084614341565b5050614438565b611c1092916001600160a01b039182169190819083156144d9575b169182156144c6575b5f5260086020528060405f205416915f5260405f20541690613ef4565b6144d26135e085614341565b50506144a9565b6144e561441e86614341565b50506144a0565b600a5490600160401b821015611b71576001820180600a55821015610a7457600a5f52805160209091015160301b65ffffffffffff191665ffffffffffff91909116175f8051602061473f83398151915290910155565b8054600160401b811015611b71576145609160018201815561432c565b61458b57815160209092015160301b65ffffffffffff191665ffffffffffff92909216919091179055565b634e487b7160e01b5f525f60045260245ffd5b600a54919291801561465b576145b66145cc9161258c565b600a5f525f8051602061473f8339815191520190565b9081549165ffffffffffff90818416918316808311614649578692036146115761460a92509065ffffffffffff82549181199060301b169116179055565b60301c9190565b505061464490614630614622611c12565b65ffffffffffff9092168252565b6001600160d01b03851660208201526144ec565b61460a565b604051632520601d60e01b8152600490fd5b5061467f9061466b614622611c12565b6001600160d01b03841660208201526144ec565b5f9190565b805492939280156147195761469b6146a69161258c565b825f5260205f200190565b9182549265ffffffffffff91828516928116808411614649578793036146e5575061460a92509065ffffffffffff82549181199060301b169116179055565b915050614644916147056146f7611c12565b65ffffffffffff9093168352565b6001600160d01b0386166020830152614543565b509061467f9161472a6146f7611c12565b6001600160d01b038516602083015261454356fec65a7bb8d6351c1cf70c95a316cc6a92839c986682d98bc35f958f4883f9d2a8a2646970667358221220c012cdc497fae944c13573a9c1503a0210bcb697b844d5732848db86d885bae564736f6c63430008180033c65a7bb8d6351c1cf70c95a316cc6a92839c986682d98bc35f958f4883f9d2a8dec2bacdd2f05b59de34da9b523dff8be42e5e38e818c82fdb0bae774387a724","linkReferences":{}},"methodIdentifiers":{"CLOCK_MODE()":"4bf5d7e9","DOMAIN_SEPARATOR()":"3644e515","allowance(address,address)":"dd62ed3e","approve(address,uint256)":"095ea7b3","balanceOf(address)":"70a08231","batchClaimMerkleRewards(uint256[],uint256[],bytes32[][])":"4b667916","checkpoints(address,uint32)":"f1127ed8","claimMerkleRewards(uint256,uint256,bytes32[])":"2e54575d","clock()":"91ddadf4","createMerkleDistribution(bytes32,uint256,address[],(uint128,uint128),address)":"f91c67ed","decimals()":"313ce567","delegate(address)":"5c19a95c","delegateBySig(address,uint256,uint256,uint8,bytes32,bytes32)":"c3cda520","delegates(address)":"587cde1e","doubleDistributionInterval()":"f721ed12","eip712Domain()":"84b0196e","escrowEthPayment(address,uint256)":"53803211","escrowPayment(address,uint256)":"7855328f","getCurrentEra()":"d250b6cb","getEmissionRate()":"c0a77da9","getEscrowedPayments(address)":"f63b7738","getEthBreakdown()":"96169017","getLockInfo(address)":"7238ccdb","getPastTotalSupply(uint256)":"8e539e8c","getPastVotes(address,uint256)":"3a46b1a8","getSmartnodesCore()":"714bd915","getSupplyBreakdown()":"01277591","getVotes(address)":"9ab24eb0","halveDistributionInterval()":"1f763531","i_deploymentTimestamp()":"765c542a","isLocked(address)":"4a4fbeec","lockTokens(address,bool)":"dc8bde81","name()":"06fdde03","nonces(address)":"7ecebe00","numCheckpoints(address)":"6fcfff45","permit(address,address,uint256,uint256,uint8,bytes32,bytes32)":"d505accf","releaseEscrowedEthPayment(address,uint256)":"8b1297e0","releaseEscrowedPayment(address,uint256)":"601c438d","s_claimed(uint256,address)":"77bea8c5","s_coreSet()":"f0c0189a","s_currentDistributionId()":"1342c727","s_dao()":"fd4f19ea","s_daoSet()":"918a93d1","s_distributionInterval()":"d25074cf","s_distributions(uint256)":"addfbd76","s_escrowedPayments(address)":"243f72b3","s_lastDistributionTime()":"70e2709a","s_lockedTokens(address)":"8109fff1","s_smartnodesCoordinator()":"ec5188b5","s_smartnodesCore()":"6b451ba9","s_totalETHDeposited()":"c2227ac7","s_totalETHWithdrawn()":"5dc437e3","s_totalEscrowed()":"f76dfeac","s_totalLocked()":"e21f2df8","s_totalUnclaimed()":"9fb40413","s_userLockAmount()":"f1a9e631","s_validatorLockAmount()":"f6a89727","setDAO(address)":"e73a914c","setSmartnodes(address,address)":"9a3e13f0","setUserLockAmount(uint256)":"12bc9f8c","setValidatorLockAmount(uint256)":"8180c1c2","slashAndUnlockValidator(address,uint256)":"59bfafad","symbol()":"95d89b41","totalSupply()":"18160ddd","transfer(address,uint256)":"a9059cbb","transferFrom(address,address,uint256)":"23b872dd","unlockTokens(address)":"cb67f948"},"id":69}