{"abi":[{"type":"constructor","inputs":[{"name":"_tokenContract","type":"address","internalType":"address"}],"stateMutability":"nonpayable"},{"type":"function","name":"addNetwork","inputs":[{"name":"_name","type":"string","internalType":"string"}],"outputs":[],"stateMutability":"nonpayable"},{"type":"function","name":"createUser","inputs":[{"name":"publicKeyHash","type":"bytes32","internalType":"bytes32"}],"outputs":[],"stateMutability":"nonpayable"},{"type":"function","name":"createValidator","inputs":[{"name":"publicKeyHash","type":"bytes32","internalType":"bytes32"}],"outputs":[],"stateMutability":"nonpayable"},{"type":"function","name":"getCoordinator","inputs":[],"outputs":[{"name":"","type":"address","internalType":"address"}],"stateMutability":"view"},{"type":"function","name":"getJobCount","inputs":[],"outputs":[{"name":"","type":"uint256","internalType":"uint256"}],"stateMutability":"view"},{"type":"function","name":"isLockedValidator","inputs":[{"name":"validator","type":"address","internalType":"address"}],"outputs":[{"name":"","type":"bool","internalType":"bool"}],"stateMutability":"view"},{"type":"function","name":"jobs","inputs":[{"name":"","type":"bytes32","internalType":"bytes32"}],"outputs":[{"name":"payment","type":"uint128","internalType":"uint128"},{"name":"networkId","type":"uint8","internalType":"uint8"},{"name":"state","type":"uint8","internalType":"uint8"},{"name":"payWithSNO","type":"bool","internalType":"bool"},{"name":"owner","type":"address","internalType":"address"}],"stateMutability":"view"},{"type":"function","name":"networkCounter","inputs":[],"outputs":[{"name":"","type":"uint8","internalType":"uint8"}],"stateMutability":"view"},{"type":"function","name":"networks","inputs":[{"name":"","type":"uint8","internalType":"uint8"}],"outputs":[{"name":"networkId","type":"uint8","internalType":"uint8"},{"name":"exists","type":"bool","internalType":"bool"},{"name":"name","type":"string","internalType":"string"}],"stateMutability":"view"},{"type":"function","name":"removeNetwork","inputs":[{"name":"_networkId","type":"uint8","internalType":"uint8"}],"outputs":[],"stateMutability":"nonpayable"},{"type":"function","name":"requestJob","inputs":[{"name":"_userId","type":"bytes32","internalType":"bytes32"},{"name":"_jobId","type":"bytes32","internalType":"bytes32"},{"name":"_networkId","type":"uint8","internalType":"uint8"},{"name":"_capacities","type":"uint256[]","internalType":"uint256[]"},{"name":"_payment","type":"uint128","internalType":"uint128"}],"outputs":[],"stateMutability":"payable"},{"type":"function","name":"setCoordinator","inputs":[{"name":"_validatorContract","type":"address","internalType":"address"}],"outputs":[],"stateMutability":"nonpayable"},{"type":"function","name":"updateContract","inputs":[{"name":"_jobIds","type":"bytes32[]","internalType":"bytes32[]"},{"name":"_validators","type":"address[]","internalType":"address[]"},{"name":"_workers","type":"address[]","internalType":"address[]"},{"name":"_capacities","type":"uint256[]","internalType":"uint256[]"}],"outputs":[],"stateMutability":"nonpayable"},{"type":"function","name":"users","inputs":[{"name":"","type":"address","internalType":"address"}],"outputs":[{"name":"publicKeyHash","type":"bytes32","internalType":"bytes32"},{"name":"reputation","type":"uint8","internalType":"uint8"},{"name":"locked","type":"bool","internalType":"bool"},{"name":"exists","type":"bool","internalType":"bool"}],"stateMutability":"view"},{"type":"function","name":"validators","inputs":[{"name":"","type":"address","internalType":"address"}],"outputs":[{"name":"publicKeyHash","type":"bytes32","internalType":"bytes32"},{"name":"reputation","type":"uint8","internalType":"uint8"},{"name":"locked","type":"bool","internalType":"bool"},{"name":"exists","type":"bool","internalType":"bool"}],"stateMutability":"view"},{"type":"event","name":"JobCompleted","inputs":[{"name":"jobId","type":"bytes32","indexed":true,"internalType":"bytes32"},{"name":"networkId","type":"uint8","indexed":false,"internalType":"uint8"},{"name":"payment","type":"uint128","indexed":false,"internalType":"uint128"},{"name":"payWithSNO","type":"bool","indexed":false,"internalType":"bool"}],"anonymous":false},{"type":"event","name":"JobCreated","inputs":[{"name":"jobId","type":"bytes32","indexed":true,"internalType":"bytes32"},{"name":"owner","type":"bytes32","indexed":true,"internalType":"bytes32"},{"name":"networkId","type":"uint8","indexed":false,"internalType":"uint8"},{"name":"payment","type":"uint128","indexed":false,"internalType":"uint128"},{"name":"payWithSNO","type":"bool","indexed":false,"internalType":"bool"}],"anonymous":false},{"type":"event","name":"NetworkAdded","inputs":[{"name":"networkId","type":"uint8","indexed":true,"internalType":"uint8"},{"name":"name","type":"string","indexed":false,"internalType":"string"}],"anonymous":false},{"type":"event","name":"NetworkRemoved","inputs":[{"name":"networkId","type":"uint8","indexed":true,"internalType":"uint8"}],"anonymous":false},{"type":"error","name":"Core__InsufficientBalance","inputs":[]},{"type":"error","name":"Core__InvalidArrayLength","inputs":[]},{"type":"error","name":"Core__InvalidNetworkId","inputs":[]},{"type":"error","name":"Core__InvalidPayment","inputs":[]},{"type":"error","name":"Core__InvalidUser","inputs":[]},{"type":"error","name":"Core__JobExists","inputs":[]},{"type":"error","name":"Core__NodeExists","inputs":[]},{"type":"error","name":"Core__NotValidatorMultisig","inputs":[]}],"bytecode":{"object":"0x60a03461009d57601f6111dc38819003918201601f19168301916001600160401b038311848410176100a15780849260209460405283398101031261009d57516001600160a01b0381169081900361009d576080525f60015560ff196002541660025560405161112690816100b6823960805181818161027a015281816103550152818161086b01528181610bec01528181610d230152610e710152f35b5f80fd5b634e487b7160e01b5f52604160045260245ffdfe6080806040526004361015610012575f80fd5b5f3560e01c908163010196b114610f975750806338ed7cfc14610f2e5780635c182a7114610b2d57806371977fe014610b065780637ad9028f14610ac35780637c93e7d214610a085780638a21e639146108d65780638dca9a19146108275780638ea98117146107e557806391ef735714610567578063a87430ba146104f1578063abf7bfd81461049b578063b02b4a2f1461047e578063b3010c021461013f5763fa52c7d8146100c1575f80fd5b3461013b57602036600319011261013b576001600160a01b036100e2610fe5565b165f52600360205260405f2060018154910154610137604051928260ff859460101c169160ff808360081c16921690859260ff6060939695929660808601978652166020850152151560408401521515910152565b0390f35b5f80fd5b60a036600319011261013b5760443560243560ff821680830361013b5760643567ffffffffffffffff811161013b5761017c903690600401610fb4565b6001600160801b03926084359250838316919082840361013b5760ff600254168111908115610475575b50610463571561045257835f52600560205260405f2090335f52600460205260405f2091600181019384549260018060a01b0394858516610440576001015460ff8160101c1615908115610434575b506104225715158080610419575b6104075734156103f9575050843416945f945b82546001600160a01b031990941633179055608088901b60ff60801b1671ffffffffffffffffffffffffffffffffffff199093169086161791909117600160881b1760ff60901b1916831515609081901b60ff60901b1691909117909155610353577f00000000000000000000000000000000000000000000000000000000000000001691823b1561013b57604051630cdb80e360e21b81523360048201526001600160801b038216602482015260ff86166044820152925f908490606490829034905af1928315610348577f1e5837348769105684cda816327cb2153712ecb587371272fa078b1fb24d3bd893610339575b505b6040805160ff9690961686526001600160801b039190911660208601529015159084015260043592606090a3005b61034290611043565b85610309565b6040513d5f823e3d90fd5b7f00000000000000000000000000000000000000000000000000000000000000001691823b1561013b5760405163812a56bf60e01b81523360048201526001600160801b038216602482015260ff86166044820152925f908490606490829084905af1928315610348577f1e5837348769105684cda816327cb2153712ecb587371272fa078b1fb24d3bd8936103ea575b5061030b565b6103f390611043565b856103e4565b156104075794600194610216565b60405163f89736d160e01b8152600490fd5b50341515610203565b60405163c99cc94960e01b8152600490fd5b60ff915016158a6101f5565b604051632e460d6b60e21b8152600490fd5b6040516243f5c760e11b8152600490fd5b6040516334e10f3960e21b8152600490fd5b905015876101a6565b3461013b575f36600319011261013b576020600154604051908152f35b3461013b57602036600319011261013b57335f52600460205260405f206001810190815460ff8160101c166104df5760043590915562ff00ff191662010001179055005b60405163c107245560e01b8152600490fd5b3461013b57602036600319011261013b576001600160a01b03610512610fe5565b165f52600460205260405f2060018154910154610137604051928260ff859460101c169160ff808360081c16921690859260ff6060939695929660808601978652166020850152151560408401521515910152565b3461013b5760208060031936011261013b5760043567ffffffffffffffff80821161013b573660238301121561013b5781600401359080821161013b576024830192602483369201011161013b576002549260ff841660108110156104635760ff81146107d15760ff600180920116809560ff1916176002556040519260608401848110828211176107bd5760405285845286840191808352601f198181601f890116966040519561061b8c8a0188611057565b89875289888d8901375f8c8b89010152604082019687528a5f5260068c5260ff60405f2092511661ff0083549251151560081b169161ffff19161717815501935180519384116107bd5761066f855461100b565b601f8111610784575b508991601f85116001146106f757507f789058c6d820226a3716faa58ff581dcf7d5f1999d848965ec5129b48e0a31d29899956040979585805f978b978d9788978b946106ec575b50501b9188199060031b1c19161790555b835198878a98895288015283870137840101528101030190a2005b015192505f806106c0565b8493949291921691855f528a5f20925f5b81811061076f5750955f95858b9586957f789058c6d820226a3716faa58ff581dcf7d5f1999d848965ec5129b48e0a31d29e9f9b9560409d9b998e9a10610757575b505050811b0190556106d1565b0151891960f88460031b161c191690558e808061074a565b82840151855593860193928c01928c01610708565b6107ad90865f528b5f20601f870160051c8101918d88106107b3575b601f0160051c01906110bf565b8a610678565b90915081906107a0565b634e487b7160e01b5f52604160045260245ffd5b634e487b7160e01b5f52601160045260245ffd5b3461013b57602036600319011261013b576107fe610fe5565b5f54906001600160a01b03908183161561081457005b6001600160a01b03199092169116175f55005b3461013b57602036600319011261013b57335f52600360205260405f206001810190815460ff8160101c166104df5760043590915562ffff001916620101001790557f00000000000000000000000000000000000000000000000000000000000000006001600160a01b0316803b1561013b575f809160446040518094819363dc8bde8160e01b8352336004840152600160248401525af18015610348576108cb57005b6108d490611043565b005b3461013b5760208060031936011261013b5760ff6108f2610ffb565b165f526006815260405f20805491600180920160405180935f908354936109188561100b565b94858552866001821691825f146109e65750506001146109aa575b505060ff9593925090610947910384611057565b604051938281869416845260081c16151581830152606060408301528251908160608401525f935b828510610991575050608092505f838284010152601f80199101168101030190f35b848101820151868601608001529381019385935061096f565b8592505f52815f20905f915b8583106109ce57505061094793508201018680610933565b805483890185015287945086939092019181016109b6565b925093505061094794915060ff191682840152151560051b8201018680610933565b3461013b57602036600319011261013b5760ff610a23610ffb565b16805f52600660205260ff60405f205460081c161561046357805f526006602052600160405f205f815501610a58815461100b565b9081610a86575b827f8734406cb2bd2ee742cf44452608ee0edd2cdc74d63d00ff9c1ddeb3b82d5f6f5f80a2005b81601f5f9311600114610a9d5750555b8180610a5f565b908083918252610abc601f60208420940160051c8401600185016110bf565b5555610a96565b3461013b57602036600319011261013b576001600160a01b03610ae4610fe5565b165f526003602052602060ff600160405f20015460081c166040519015158152f35b3461013b575f36600319011261013b575f546040516001600160a01b039091168152602090f35b3461013b57608036600319011261013b5767ffffffffffffffff60043581811161013b57610b5f903690600401610fb4565b60249291923582811161013b57610b7a903690600401610fb4565b9360443584811161013b57610b93903690600401610fb4565b929060643586811161013b57610bad903690600401610fb4565b959093868614801590610f26575b61045257604051976040890190898210908211176107bd576040525f88525f60208901525f5b828110610cb75750507f00000000000000000000000000000000000000000000000000000000000000006001600160a01b0316949050843b1561013b576040516303c0389960e61b815260a0600482015297610c5793610c459160a48b0191611079565b8881036003190160248a015291611079565b8581036003190160448701528381526001600160fb1b03841161013b576020868095935f97938894839660051b809386840137846001600160801b03918281511660648701520151166084840152010301925af18015610348576108cb57005b8060051b8201355f52600560205260405f2090815460018060a01b036001840154169260ff8260801c16610cf2575b50506001915001610be1565b60ff8260901c16155f14610e54576001600160801b03610d1b8d826020818716920151166110d5565b1660208d01527f00000000000000000000000000000000000000000000000000000000000000006001600160a01b0316803b1561013b5760405163045894bf60e51b81526001600160a01b039590951660048601526001600160801b03831660248601525f908590604490829084905af19384156103485760ff7f52d4e670c8ea6ccc11b558971137442d7609a96d41515a17f0f9a38b7151e63c92610e3b92600197610e45575b505b600360881b8260881b198254161781558560051b8801355f5260056020525f876040822082815501555460801c16926040519182918660051b890135956001600160801b0360ff8360901c169216908491926001600160801b03604092959460ff60608601971685521660208401521515910152565b0390a28b80610ce6565b610e4e90611043565b5f610dc3565b6001600160801b03610e6c8d828086169151166110d5565b168c527f00000000000000000000000000000000000000000000000000000000000000006001600160a01b0316803b1561013b5760405163601c438d60e01b81526001600160a01b039590951660048601526001600160801b03831660248601525f908590604490829084905af19384156103485760ff7f52d4e670c8ea6ccc11b558971137442d7609a96d41515a17f0f9a38b7151e63c92610e3b92600197610f17575b50610dc5565b610f2090611043565b5f610f11565b508815610bbb565b3461013b57602036600319011261013b576004355f52600560205260a060405f2080549060018080851b039101541660ff604051926001600160801b0381168452818160801c166020850152818160881c16604085015260901c16151560608301526080820152f35b3461013b575f36600319011261013b5760209060ff600254168152f35b9181601f8401121561013b5782359167ffffffffffffffff831161013b576020808501948460051b01011161013b57565b600435906001600160a01b038216820361013b57565b6004359060ff8216820361013b57565b90600182811c92168015611039575b602083101461102557565b634e487b7160e01b5f52602260045260245ffd5b91607f169161101a565b67ffffffffffffffff81116107bd57604052565b90601f8019910116810190811067ffffffffffffffff8211176107bd57604052565b9190808252602080920192915f5b828110611095575050505090565b9091929384359060018060a01b03821680920361013b579081528201938201929190600101611087565b8181106110ca575050565b5f81556001016110bf565b9190916001600160801b03808094169116019182116107d15756fea26469706673582212202b77cb4e6fc50e9ba184b2d9978e7e5c8dc793b9ed53361cd0c3895052287d0c64736f6c63430008160033","linkReferences":{}},"methodIdentifiers":{"addNetwork(string)":"91ef7357","createUser(bytes32)":"abf7bfd8","createValidator(bytes32)":"8dca9a19","getCoordinator()":"71977fe0","getJobCount()":"b02b4a2f","isLockedValidator(address)":"7ad9028f","jobs(bytes32)":"38ed7cfc","networkCounter()":"010196b1","networks(uint8)":"8a21e639","removeNetwork(uint8)":"7c93e7d2","requestJob(bytes32,bytes32,uint8,uint256[],uint128)":"b3010c02","setCoordinator(address)":"8ea98117","updateContract(bytes32[],address[],address[],uint256[])":"5c182a71","users(address)":"a87430ba","validators(address)":"fa52c7d8"},"id":24}