{"abi":[{"type":"constructor","inputs":[{"name":"_updateTime","type":"uint128","internalType":"uint128"},{"name":"_requiredApprovalsPercentage","type":"uint8","internalType":"uint8"},{"name":"_smartnodesCore","type":"address","internalType":"address"},{"name":"_genesisNodes","type":"address[]","internalType":"address[]"}],"stateMutability":"nonpayable"},{"type":"function","name":"CLEANUP_BATCH_SIZE","inputs":[],"outputs":[{"name":"","type":"uint256","internalType":"uint256"}],"stateMutability":"view"},{"type":"function","name":"MAX_PROPOSAL_AGE","inputs":[],"outputs":[{"name":"","type":"uint256","internalType":"uint256"}],"stateMutability":"view"},{"type":"function","name":"addValidator","inputs":[{"name":"validator","type":"address","internalType":"address"}],"outputs":[],"stateMutability":"nonpayable"},{"type":"function","name":"cleanupOldProposals","inputs":[],"outputs":[{"name":"cleanedCount","type":"uint256","internalType":"uint256"}],"stateMutability":"nonpayable"},{"type":"function","name":"createProposal","inputs":[{"name":"proposalHash","type":"bytes32","internalType":"bytes32"}],"outputs":[],"stateMutability":"nonpayable"},{"type":"function","name":"currentRoundValidators","inputs":[{"name":"","type":"uint256","internalType":"uint256"}],"outputs":[{"name":"","type":"address","internalType":"address"}],"stateMutability":"view"},{"type":"function","name":"executeProposal","inputs":[{"name":"proposalId","type":"uint256","internalType":"uint256"},{"name":"validatorsToRemove","type":"address[]","internalType":"address[]"},{"name":"jobHashes","type":"bytes32[]","internalType":"bytes32[]"},{"name":"jobWorkers","type":"address[]","internalType":"address[]"},{"name":"jobCapacities","type":"uint256[]","internalType":"uint256[]"}],"outputs":[],"stateMutability":"nonpayable"},{"type":"function","name":"expireProposal","inputs":[{"name":"proposalId","type":"uint256","internalType":"uint256"}],"outputs":[],"stateMutability":"nonpayable"},{"type":"function","name":"getCleanupInfo","inputs":[],"outputs":[{"name":"oldestId","type":"uint256","internalType":"uint256"},{"name":"nextId","type":"uint256","internalType":"uint256"},{"name":"maxAge","type":"uint256","internalType":"uint256"}],"stateMutability":"view"},{"type":"function","name":"getCurrentRoundValidators","inputs":[],"outputs":[{"name":"","type":"address[]","internalType":"address[]"}],"stateMutability":"view"},{"type":"function","name":"getProposal","inputs":[{"name":"proposalId","type":"uint256","internalType":"uint256"}],"outputs":[{"name":"","type":"tuple","internalType":"struct SmartnodesCoordinator.Proposal","components":[{"name":"hash","type":"bytes32","internalType":"bytes32"},{"name":"creator","type":"address","internalType":"address"},{"name":"votes","type":"uint16","internalType":"uint16"},{"name":"createdAt","type":"uint32","internalType":"uint32"},{"name":"executed","type":"bool","internalType":"bool"}]}],"stateMutability":"view"},{"type":"function","name":"getRequiredApprovals","inputs":[],"outputs":[{"name":"","type":"uint256","internalType":"uint256"}],"stateMutability":"view"},{"type":"function","name":"getState","inputs":[],"outputs":[{"name":"roundId","type":"uint256","internalType":"uint256"},{"name":"proposalId","type":"uint256","internalType":"uint256"},{"name":"executionTime","type":"uint256","internalType":"uint256"},{"name":"roundValidators","type":"address[]","internalType":"address[]"}],"stateMutability":"view"},{"type":"function","name":"getValidatorCount","inputs":[],"outputs":[{"name":"","type":"uint256","internalType":"uint256"}],"stateMutability":"view"},{"type":"function","name":"getValidators","inputs":[],"outputs":[{"name":"","type":"address[]","internalType":"address[]"}],"stateMutability":"view"},{"type":"function","name":"halfStateTime","inputs":[],"outputs":[],"stateMutability":"nonpayable"},{"type":"function","name":"isProposalExpired","inputs":[{"name":"proposalId","type":"uint256","internalType":"uint256"}],"outputs":[{"name":"","type":"bool","internalType":"bool"}],"stateMutability":"view"},{"type":"function","name":"isProposalReady","inputs":[{"name":"proposalId","type":"uint256","internalType":"uint256"}],"outputs":[{"name":"","type":"bool","internalType":"bool"}],"stateMutability":"view"},{"type":"function","name":"isRoundExpired","inputs":[],"outputs":[{"name":"","type":"bool","internalType":"bool"}],"stateMutability":"view"},{"type":"function","name":"isValidator","inputs":[{"name":"","type":"address","internalType":"address"}],"outputs":[{"name":"","type":"bool","internalType":"bool"}],"stateMutability":"view"},{"type":"function","name":"oldestProposalId","inputs":[],"outputs":[{"name":"","type":"uint256","internalType":"uint256"}],"stateMutability":"view"},{"type":"function","name":"proposals","inputs":[{"name":"","type":"uint256","internalType":"uint256"}],"outputs":[{"name":"hash","type":"bytes32","internalType":"bytes32"},{"name":"creator","type":"address","internalType":"address"},{"name":"votes","type":"uint16","internalType":"uint16"},{"name":"createdAt","type":"uint32","internalType":"uint32"},{"name":"executed","type":"bool","internalType":"bool"}],"stateMutability":"view"},{"type":"function","name":"removeValidator","inputs":[],"outputs":[],"stateMutability":"nonpayable"},{"type":"function","name":"requiredValidators","inputs":[],"outputs":[{"name":"","type":"uint256","internalType":"uint256"}],"stateMutability":"view"},{"type":"function","name":"roundData","inputs":[],"outputs":[{"name":"currentRoundId","type":"uint128","internalType":"uint128"},{"name":"nextProposalId","type":"uint128","internalType":"uint128"}],"stateMutability":"view"},{"type":"function","name":"timeConfig","inputs":[],"outputs":[{"name":"updateTime","type":"uint128","internalType":"uint128"},{"name":"lastExecutionTime","type":"uint128","internalType":"uint128"}],"stateMutability":"view"},{"type":"function","name":"validatorToProposal","inputs":[{"name":"","type":"address","internalType":"address"}],"outputs":[{"name":"","type":"uint256","internalType":"uint256"}],"stateMutability":"view"},{"type":"function","name":"validatorVote","inputs":[{"name":"","type":"address","internalType":"address"}],"outputs":[{"name":"","type":"uint256","internalType":"uint256"}],"stateMutability":"view"},{"type":"function","name":"validators","inputs":[{"name":"","type":"uint256","internalType":"uint256"}],"outputs":[{"name":"","type":"address","internalType":"address"}],"stateMutability":"view"},{"type":"function","name":"voteForProposal","inputs":[{"name":"proposalId","type":"uint256","internalType":"uint256"}],"outputs":[],"stateMutability":"nonpayable"},{"type":"event","name":"ConfigUpdated","inputs":[{"name":"updateTime","type":"uint256","indexed":false,"internalType":"uint256"}],"anonymous":false},{"type":"event","name":"ProposalCreated","inputs":[{"name":"proposalId","type":"uint256","indexed":true,"internalType":"uint256"},{"name":"proposalHash","type":"bytes32","indexed":true,"internalType":"bytes32"},{"name":"creator","type":"address","indexed":true,"internalType":"address"}],"anonymous":false},{"type":"event","name":"ProposalExecuted","inputs":[{"name":"proposalId","type":"uint256","indexed":true,"internalType":"uint256"},{"name":"proposalHash","type":"bytes32","indexed":true,"internalType":"bytes32"}],"anonymous":false},{"type":"event","name":"ProposalExpired","inputs":[{"name":"proposalId","type":"uint256","indexed":true,"internalType":"uint256"}],"anonymous":false},{"type":"event","name":"ProposalsCleanedUp","inputs":[{"name":"fromId","type":"uint256","indexed":false,"internalType":"uint256"},{"name":"toId","type":"uint256","indexed":false,"internalType":"uint256"},{"name":"count","type":"uint256","indexed":false,"internalType":"uint256"}],"anonymous":false},{"type":"event","name":"RoundStarted","inputs":[{"name":"roundId","type":"uint256","indexed":true,"internalType":"uint256"},{"name":"selectedValidators","type":"address[]","indexed":false,"internalType":"address[]"}],"anonymous":false},{"type":"event","name":"ValidatorAdded","inputs":[{"name":"validator","type":"address","indexed":true,"internalType":"address"}],"anonymous":false},{"type":"event","name":"ValidatorRemoved","inputs":[{"name":"validator","type":"address","indexed":true,"internalType":"address"}],"anonymous":false},{"type":"error","name":"Coordinator__AlreadySubmittedProposal","inputs":[]},{"type":"error","name":"Coordinator__AlreadyVoted","inputs":[]},{"type":"error","name":"Coordinator__InvalidAddress","inputs":[]},{"type":"error","name":"Coordinator__InvalidApprovalPercentage","inputs":[]},{"type":"error","name":"Coordinator__InvalidProposalNumber","inputs":[]},{"type":"error","name":"Coordinator__MustBeProposalCreator","inputs":[]},{"type":"error","name":"Coordinator__NotCoreContract","inputs":[]},{"type":"error","name":"Coordinator__NotEligibleValidator","inputs":[]},{"type":"error","name":"Coordinator__NotEnoughActiveValidators","inputs":[]},{"type":"error","name":"Coordinator__NotEnoughVotes","inputs":[]},{"type":"error","name":"Coordinator__NotValidator","inputs":[]},{"type":"error","name":"Coordinator__ProposalDataMismatch","inputs":[]},{"type":"error","name":"Coordinator__ProposalExpired","inputs":[]},{"type":"error","name":"Coordinator__ProposalTooEarly","inputs":[]},{"type":"error","name":"Coordinator__ValidatorAlreadyExists","inputs":[]},{"type":"error","name":"Coordinator__ValidatorNotRegistered","inputs":[]},{"type":"error","name":"ReentrancyGuardReentrantCall","inputs":[]}],"bytecode":{"object":"0x60c0604052346200025157620023ce803803806200001d8162000275565b928339810190608081830312620002515780516001600160801b0381169081900362000251576020908183015160ff811694858203620002515762000065604086016200029b565b60608601516001600160401b03969194918782116200025157019282601f850112156200025157835192878411620001f2578360051b9487620000aa81880162000275565b809681520190888297820101928311620002515788809101915b838310620002365750505050600197885f558860045580159081156200022a575b5062000218576001600160a01b039485168015620002065760805260a0525f856200010f62000255565b8381520152865551938411620001f257680100000000000000008411620001f25760065484600655808510620001c7575b509060065f52825f2090855f5b868110620001b25750846200016162000255565b828152015270010000000000000000000000000000000160025560405161211d9081620002b1823960805181818161059901528181610b340152818161129401526116ed015260a051816117510152f35b8583865116950194818501550186906200014d565b60065f528585855f2092830192015b828110620001e657505062000140565b5f8155018690620001d6565b634e487b7160e01b5f52604160045260245ffd5b604051630af8bce760e31b8152600490fd5b604051630c6698b360e21b8152600490fd5b60649150115f620000e5565b819062000243846200029b565b8152019101908890620000c4565b5f80fd5b60408051919082016001600160401b03811183821017620001f257604052565b6040519190601f01601f191682016001600160401b03811183821017620001f257604052565b51906001600160a01b0382168203620002515756fe60806040526004361015610011575f80fd5b5f3560e01c8063013cf08b146101f4578063045c6ce0146101ef5780630632a4d6146101ea5780631865c57d146101e55780632542bf06146101e057806335aa2e44146101db5780633e15e01a146101d65780634d238c8e146101d15780634ff2f814146101cc5780635114e842146101c7578063669c1df2146101c25780636b6f3cd9146101bd5780637071688a146101b85780637f77403d146101b357806389bfe549146101ae5780638b1e24ab146101a9578063926b9304146101a457806397c875dd1461019f57806398e88c951461019a5780639d54bdc114610195578063b6b5d65f14610190578063b7ab4db51461018b578063be7d694914610186578063c7f758a814610181578063e1b526b01461017c578063e8bb594614610177578063ea7f3d2714610172578063ee33bda31461016d578063facd743b146101685763ff8c2e7d14610163575f80fd5b610c10565b610bd0565b610b22565b610b05565b610abe565b610aa2565b6109bb565b61092e565b6108da565b6108bd565b61087f565b610844565b610827565b6107f1565b6107cf565b61079e565b610770565b610753565b610739565b6106fe565b6106cd565b6106a5565b610555565b610529565b6104e2565b6103fb565b610384565b610313565b61025d565b34610259576020366003190112610259576004355f52600860205260a060405f2060ff60018254920154604051928352600180851b038116602084015261ffff81851c16604084015263ffffffff8160b01c16606084015260d01c1615156080820152f35b5f80fd5b3461025957602036600319011261025957600435335f526007602052604060ff815f205416156102f9575f8281526008602052819020600101546001600160a01b038116156102e85760d01c60ff166102d8576102b9826114de565b6102c8576102c682610c2a565b005b51638541f8cd60e01b8152600490fd5b51635119e6a360e11b8152600490fd5b8151635119e6a360e11b8152600490fd5b51631c6a4ddd60e01b8152600490fd5b5f91031261025957565b34610259575f36600319011261025957600254604080516001600160801b038316815260809290921c602083015290f35b0390f35b9081518082526020808093019301915f5b828110610367575050505090565b83516001600160a01b031685529381019392810192600101610359565b34610259575f3660031901126102595761039c610e01565b6103a4610e27565b906103446001600160801b0360208181818651169501511694015116604051906103d8826103d181610e4d565b0383610dd2565b604051948594855260208501526040840152608060608401526080830190610348565b3461025957602036600319011261025957610415336117a8565b61041d611540565b901580610479575b6104675715610441576104366117fb565b6102c6600435610f51565b335f90815260096020526040902054156104365760405163de81385760e01b8152600490fd5b604051632c38d4f760e21b8152600490fd5b50335f908152600760205260409020610494905b5460ff1690565b806104a0575b15610425565b508061049a565b634e487b7160e01b5f52603260045260245ffd5b6005548110156104dd5760055f525f805160206120a883398151915201905f90565b6104a7565b34610259576020366003190112610259576004356005548110156102595760055f525f805160206120a883398151915201546040516001600160a01b039091168152602090f35b34610259575f36600319011261025957602060405160328152f35b6001600160a01b0381160361025957565b346102595760203660031901126102595760043561057281610544565b604051637ad9028f60e01b81526001600160a01b03828116600483015291906020816024817f000000000000000000000000000000000000000000000000000000000000000087165afa9081156106a0575f91610671575b501561065f576001600160a01b0381165f9081526007602052604090206105f09061048d565b61064d576105fd81611596565b6001600160a01b0381165f908152600760205260409020610626905b805460ff19166001179055565b167fe366c1c0452ed8eec96861e9e54141ebff23c9ec89fe27b996b45f5ec38849875f80a2005b60405163028de34960e31b8152600490fd5b604051631c6a4ddd60e01b8152600490fd5b610693915060203d602011610699575b61068b8183610dd2565b81019061157e565b5f6105ca565b503d610681565b611441565b346102595760203660031901126102595760206106c36004356114de565b6040519015158152f35b34610259575f36600319011261025957606060045460025460801c604051918252602082015262093a806040820152f35b346102595760203660031901126102595760043561071b81610544565b60018060a01b03165f526009602052602060405f2054604051908152f35b34610259575f3660031901126102595760206106c3611540565b34610259575f366003190112610259576020600554604051908152f35b34610259575f36600319011261025957335f52600760205260ff60405f2054161561065f576102c6336118a9565b34610259575f36600319011261025957600154604080516001600160801b038316815260809290921c602083015290f35b34610259575f3660031901126102595760206107e961174a565b604051908152f35b346102595760203660031901126102595760206004358060081c5f52600b825260405f2054600160ff60405193161b1615158152f35b34610259575f366003190112610259576020600354604051908152f35b346102595760203660031901126102595760043561086181610544565b60018060a01b03165f52600a602052602060405f2054604051908152f35b34610259575f366003190112610259576103446040516108a9816108a281610e4d565b0382610dd2565b604051918291602083526020830190610348565b34610259575f36600319011261025957602060405162093a808152f35b34610259575f366003190112610259576103446040516108a9816108a281610e9e565b9181601f840112156102595782359167ffffffffffffffff8311610259576020808501948460051b01011161025957565b346102595760a03660031901126102595767ffffffffffffffff602435818111610259576109609036906004016108fd565b90604435838111610259576109799036906004016108fd565b90606435858111610259576109929036906004016108fd565b929091608435968711610259576109b06102c69736906004016108fd565b969095600435611156565b346102595760203660031901126102595761034460405f608082516109df81610d81565b828152826020820152828482015282606082015201526004355f526008602052805f2090610a5560ff6001835194610a1686610d81565b8054865201546001600160a01b038116602086015260a081901c61ffff168486015260b081901c63ffffffff16606086015260d01c1615156080840152565b519182918291909160808060a08301948051845260018060a01b03602082015116602085015261ffff604082015116604085015263ffffffff606082015116606085015201511515910152565b34610259576020366003190112610259576102c660043561144c565b34610259576020366003190112610259576004356006548110156102595760065f525f805160206120c883398151915201546040516001600160a01b039091168152602090f35b34610259575f366003190112610259576020600454604051908152f35b34610259575f366003190112610259577f00000000000000000000000000000000000000000000000000000000000000006001600160a01b03163303610bbe577fc4dcf1e7351cef05b0dcbe5903857cd86c5a9510ae387d20a71166cd6abe57b460206f7fffffffffffffffffffffffffffffff610b9e610e27565b5160011c16806001600160801b03196001541617600155604051908152a1005b604051639386ed7b60e01b8152600490fd5b3461025957602036600319011261025957600435610bed81610544565b60018060a01b03165f526007602052602060ff60405f2054166040519015158152f35b34610259575f3660031901126102595760206107e9611d54565b610c3261151f565b610c3a611540565b1580610d2a575b610d1857335f908152600760205260409020610c619060ff905b54161590565b610d0a575b335f908152600a602052604090208190556001610c8b825f52600860205260405f2090565b01610cc3610ca7610ca2835461ffff9060a01c1690565b610d55565b825461ffff60a01b191660a082901b61ffff60a01b1617909255565b61ffff610cce61174a565b91161015610ce3575b50610ce160015f55565b565b610d04908060081c5f52600b602052600160ff60405f2092161b8154179055565b5f610cd7565b610d133361163c565b610c66565b604051635803953f60e01b8152600490fd5b50335f908152600a60205260409020541515610c41565b634e487b7160e01b5f52601160045260245ffd5b61ffff809116908114610d685760010190565b610d41565b634e487b7160e01b5f52604160045260245ffd5b60a0810190811067ffffffffffffffff821117610d9d57604052565b610d6d565b6040810190811067ffffffffffffffff821117610d9d57604052565b67ffffffffffffffff8111610d9d57604052565b90601f8019910116810190811067ffffffffffffffff821117610d9d57604052565b60405190610ce182610d81565b60405190610e0e82610da2565b6002546001600160801b038116835260801c6020830152565b60405190610e3482610da2565b6001546001600160801b038116835260801c6020830152565b6006549081815260208091019160065f525f805160206120c8833981519152915f905b828210610e7e575050505090565b83546001600160a01b031685529384019360019384019390910190610e70565b6005549081815260208091019160055f525f805160206120a8833981519152915f905b828210610ecf575050505090565b83546001600160a01b031685529384019360019384019390910190610ec1565b6006549081815260208091019160065f525f805160206120c8833981519152915f905b828210610f20575050505090565b83546001600160a01b031685529384019360019384019390910190610f12565b60405190610ce1826103d181610eef565b610f5961151f565b610f9e610f92610f67610e27565b610f8c610f7e60208301516001600160801b031690565b91516001600160801b031690565b90611111565b6001600160801b031690565b42106110e757610fc2610f926020610fb4610e01565b01516001600160801b031690565b90610fed610fd2610f928461112c565b6001600160801b036002549181199060801b16911617600255565b6110a7610ff8610df4565b8281523360208201525f60408201524263ffffffff1660608201525f608082015261102b845f52600860205260405f2090565b81518155602082015160019091018054604084015161ffff60a01b60a09190911b166001600160a01b039093166001600160b01b031990911617919091178155906060810151825460809092015164ffffffffff60b01b1990921660b09190911b63ffffffff60b01b161790151560d01b60ff60d01b16179055565b335f90815260096020526040902082905533917f18606676ae94dc828c91c323dfd6416c7671259f5637da4bbfbf91ecb3f437835f80a4610ce160015f55565b6040516309af6f5760e01b8152600490fd5b9060016001600160801b0380931601918211610d6857565b9190916001600160801b0380809416911601918211610d6857565b9060018201809211610d6857565b9060328201809211610d6857565b9060198201809211610d6857565b989796959493929190335f52600760205260409960ff8b5f205416156111ea575f81815260086020528b9020600101546001600160a01b038116156111d95760d01c60ff166111c8576111a8816114de565b6111b757610ce1999a506111fb565b8a51638541f8cd60e01b8152600490fd5b8a51635119e6a360e11b8152600490fd5b8b51635119e6a360e11b8152600490fd5b8a51631c6a4ddd60e01b8152600490fd5b9794959296909693919361120d61151f565b61121f895f52600860205260405f2090565b97600189019586549660018060a01b039733898216036113755761124161174a565b61ffff8260a01c16106113635763ffffffff6112689160b01c16888c8c898b8a898b6119ca565b8b540361135157805460ff60d01b1916600160d01b17905580611341575b505061129189611a94565b947f00000000000000000000000000000000000000000000000000000000000000001693843b15610259575f9687936112e1926040519a8b998a988997635c182a7160e01b8952600489016113f2565b03925af180156106a057611328575b5054907f56a007d3eea04bd347e571f3451382cb2a33ef5fd102b9a63846ff8d787f43cf5f80a361131f611b3b565b610ce160015f55565b8061133561133b92610dbe565b80610309565b5f6112f0565b61134a91611a4d565b5f80611286565b6040516345e679d360e11b8152600490fd5b60405163dea7e86b60e01b8152600490fd5b604051631f046f9760e21b8152600490fd5b81835290916001600160fb1b0383116102595760209260051b809284830137010190565b9190808252602080920192915f5b8281106113c7575050505090565b90919293828060019287356113db81610544565b848060a01b031681520195019101929190926113b9565b9593916114309361141461143e9997936114229360808b5260808b0191611387565b9088820360208a0152610348565b9186830360408801526113ab565b926060818503910152611387565b90565b6040513d5f823e3d90fd5b611455816114de565b156110e757600161146e825f52600860205260405f2090565b01546001600160a01b038116156114cc5760d01c60ff166114c9575f600161149e835f52600860205260405f2090565b82815501557f88e53c486703527139dfc8d97a1e559d9bd93d3f9d52cda4e06564111e7a26435f80a2565b50565b604051635119e6a360e11b8152600490fd5b5f908152600860205260409020600101546001600160a01b0381161561151a5763ffffffff9060b01c1662093a808101809111610d6857421190565b505f90565b60025f541461152e5760025f55565b604051633ee5aeb560e01b8152600490fd5b611548610e27565b6115786001600160801b03916ffffffffffffffffffffffffffffffffe83602083015116915160011b1690611111565b16421190565b90816020910312610259575180151581036102595790565b60055490600160401b821015610d9d5760018201806005558210156104dd5760055f525f805160206120a883398151915290910180546001600160a01b0319166001600160a01b03909216919091179055565b60065490600160401b821015610d9d5760018201806006558210156104dd5760065f525f805160206120c883398151915290910180546001600160a01b0319166001600160a01b03909216919091179055565b6001600160a01b0381165f90815260076020526040902061165f9060ff90610c5b565b806116c4575b61166c5750565b61167581611596565b6001600160a01b0381165f90815260076020526040902061169590610619565b6001600160a01b03167fe366c1c0452ed8eec96861e9e54141ebff23c9ec89fe27b996b45f5ec38849875f80a2565b50604051637ad9028f60e01b81526001600160a01b0382166004820152602081806024810103817f00000000000000000000000000000000000000000000000000000000000000006001600160a01b03165afa9081156106a0575f9161172b575b50611665565b611744915060203d6020116106995761068b8183610dd2565b5f611725565b60055460ff7f00000000000000000000000000000000000000000000000000000000000000001690818102918183041490151715610d685760638101809111610d68576064900490565b80518210156104dd5760209160051b010190565b604051906117b9826103d181610e4d565b8151915f5b8381106117cd57505050505f90565b6001600160a01b03806117e08385611794565b5116908416146117f2576001016117be565b50505050600190565b611803611f7b565b61180b611e9c565b506001600160801b03600254167f88e53c486703527139dfc8d97a1e559d9bd93d3f9d52cda4e06564111e7a26435f80a2565b6005548015611895575f19810190808210156104dd577f036b6384b5eca791c62761152d0c79bb0604c104a5fb6f4eb0703f3154bb3daf9060055f52016bffffffffffffffffffffffff60a01b8154169055600555565b634e487b7160e01b5f52603160045260245ffd5b6001600160a01b0381165f9081526007602052604090206118d1906118cd9061048d565b1590565b6119b8576001600160a01b0381165f908152600760205260409020805460ff19169055600554905f5b828110611934575b506001600160a01b031690507fe1434e25d6611e0db941968fdc97811c982ac1602e951637d206f5fdda9dd8f15f80a2565b611955611940826104bb565b905460039190911b1c6001600160a01b031690565b6001600160a01b0383811691161461196f576001016118fa565b61198b6119856119406119a994955f19016104bb565b916104bb565b90919060018060a01b038084549260031b9316831b921b1916179055565b6119b161183e565b805f611902565b604051634dc80a9b60e11b8152600490fd5b9497939097969196959295604051978896602088019a60a08c5260c08901906119f2926113ab565b601f1998898983030160408a0152611a0992611387565b9087878303016060880152611a1d92611387565b9085858303016080860152611a31926113ab565b9060a0830152039081018252611a479082610dd2565b51902090565b5f5b828110611a5b57505050565b80611a7660019260051b840135611a7181610544565b6118a9565b01611a4f565b67ffffffffffffffff8111610d9d5760051b60200190565b604051611aa4816108a281610e9e565b8051611aaf81611a7c565b92611abd6040519485610dd2565b818452601f19611acc83611a7c565b013660208601375f925f5b838110611ae75750505050815290565b6001906001600160a01b03611afc8285611794565b511684611b198260018060a01b03165f52600a60205260405f2090565b5414611b27575b5001611ad7565b611b348388019789611794565b525f611b20565b611b43611f7b565b6005546003548110611d2357611b57612030565b600254604080514260208083019182526001600160801b039094168284015282825291939291601f1991611b8c606082610dd2565b519020915f946003548581105f14611d1b57935b848710611c5a5750505050505050611bc3610f926002546001600160801b031690565b7f39bdb574ce93d149b08d8842d8aa51d5b9c5414db5ad5e752164aab671e06de160405180611bf181612098565b0390a2610ce1611c3e611c39611c05610e01565b600180546001600160801b03164260801b6fffffffffffffffffffffffffffffffff1916179055516001600160801b031690565b6110f9565b6001600160801b03166001600160801b03196002541617600255565b8151838101918252611c76816020840103868101835282610dd2565b51902093611c8f611940611c8a888861206c565b6104bb565b5f611c98610f40565b6001600160a01b0383165f5b8b8110611cd6575b50505015611cbc575b5093611ba0565b96611cca611ccf92986115e9565b61208a565b955f611cb5565b81611d00611cf4611ce78487611794565b516001600160a01b031690565b6001600160a01b031690565b14611d0d57600101611ca4565b5050505060015f8080611cac565b508493611ba0565b60405163100a3a6560e21b8152600490fd5b62093a7f19810191908211610d6857565b5f19810191908211610d6857565b5f611d64610f9260025460801c90565b600454611d708161113a565b91808311611e94575b5081811015611e8d57611d8b42611d35565b815b838110611def575b5050611da082600455565b82611daa57505090565b611dd47fe8639a5c4206f10ae797f276c277ba233ee8ae9021f20748150eee727c8fc46c92611d46565b6040805192835260208301919091528101839052606090a190565b600180611e04835f52600860205260405f2090565b01546001600160a01b038116611e205750506001905b01611d8d565b8363ffffffff8260b01c1611611e865760d01c60ff168015611e77575b611e4b575b50600190611e1a565b8195611e6f611e646001945f52600860205260405f2090565b60015f918281550155565b019490611e42565b50611e81826114de565b611e3d565b5050611d95565b5050505f90565b91505f611d79565b5f611eac610f9260025460801c90565b600454611eb881611148565b91808311611f73575b5081811015611e8d57611ed342611d35565b815b838110611ee7575050611da082600455565b600180611efc835f52600860205260405f2090565b01546001600160a01b038116611f185750506001905b01611ed5565b8363ffffffff8260b01c1611611e865760d01c60ff168015611f64575b611f43575b50600190611f12565b8195611f5c611e646001945f52600860205260405f2090565b019490611f3a565b50611f6e826114de565b611f35565b91505f611ec1565b604051611f8b816108a281610e9e565b604051611f9b816108a281610e4d565b81518151925f5b828110611ff5575050505f5b828110611fba57505050565b6001905f611fee6001600160a01b03611fd38487611794565b51166001600160a01b03165f90815260096020526040902090565b5501611fae565b6001905f6120296001600160a01b0361200e8487611794565b51166001600160a01b03165f908152600a6020526040902090565b5501611fa2565b6006545f6006558061203f5750565b60065f525f805160206120c8833981519152908101905b818110612061575050565b5f8155600101612056565b8115612076570690565b634e487b7160e01b5f52601260045260245ffd5b5f198114610d685760010190565b602061143e9181815201610eef56fe036b6384b5eca791c62761152d0c79bb0604c104a5fb6f4eb0703f3154bb3db0f652222313e28459528d920b65115c16c04f3efc82aaedc97be59f3f377c0d3fa26469706673582212204099b041cc826a1837dd693f0e1ea6333c9361172d2a34c14b8b8c6155b3b52d64736f6c63430008160033","linkReferences":{}},"methodIdentifiers":{"CLEANUP_BATCH_SIZE()":"3e15e01a","MAX_PROPOSAL_AGE()":"b6b5d65f","addValidator(address)":"4d238c8e","cleanupOldProposals()":"ff8c2e7d","createProposal(bytes32)":"2542bf06","currentRoundValidators(uint256)":"e8bb5946","executeProposal(uint256,address[],bytes32[],address[],uint256[])":"be7d6949","expireProposal(uint256)":"e1b526b0","getCleanupInfo()":"5114e842","getCurrentRoundValidators()":"9d54bdc1","getProposal(uint256)":"c7f758a8","getRequiredApprovals()":"8b1e24ab","getState()":"1865c57d","getValidatorCount()":"7071688a","getValidators()":"b7ab4db5","halfStateTime()":"ee33bda3","isProposalExpired(uint256)":"4ff2f814","isProposalReady(uint256)":"926b9304","isRoundExpired()":"6b6f3cd9","isValidator(address)":"facd743b","oldestProposalId()":"ea7f3d27","proposals(uint256)":"013cf08b","removeValidator()":"7f77403d","requiredValidators()":"97c875dd","roundData()":"0632a4d6","timeConfig()":"89bfe549","validatorToProposal(address)":"669c1df2","validatorVote(address)":"98e88c95","validators(uint256)":"35aa2e44","voteForProposal(uint256)":"045c6ce0"},"id":23}