{"abi":[{"type":"constructor","inputs":[{"name":"_tokenContract","type":"address","internalType":"address"},{"name":"_smartnodesCore","type":"address","internalType":"address"}],"stateMutability":"nonpayable"},{"type":"function","name":"cancelProposal","inputs":[{"name":"_proposalId","type":"uint256","internalType":"uint256"}],"outputs":[],"stateMutability":"nonpayable"},{"type":"function","name":"castVote","inputs":[{"name":"_proposalId","type":"uint256","internalType":"uint256"},{"name":"_support","type":"bool","internalType":"bool"}],"outputs":[],"stateMutability":"nonpayable"},{"type":"function","name":"executeProposal","inputs":[{"name":"_proposalId","type":"uint256","internalType":"uint256"}],"outputs":[],"stateMutability":"nonpayable"},{"type":"function","name":"getProposal","inputs":[{"name":"_proposalId","type":"uint256","internalType":"uint256"}],"outputs":[{"name":"","type":"tuple","internalType":"struct SmartnodesDAO.Proposal","components":[{"name":"id","type":"uint256","internalType":"uint256"},{"name":"proposer","type":"address","internalType":"address"},{"name":"proposalType","type":"uint8","internalType":"enum SmartnodesDAO.ProposalType"},{"name":"status","type":"uint8","internalType":"enum SmartnodesDAO.ProposalStatus"},{"name":"forVotes","type":"uint256","internalType":"uint256"},{"name":"againstVotes","type":"uint256","internalType":"uint256"},{"name":"startTime","type":"uint256","internalType":"uint256"},{"name":"endTime","type":"uint256","internalType":"uint256"},{"name":"executionData","type":"bytes","internalType":"bytes"},{"name":"description","type":"string","internalType":"string"},{"name":"executed","type":"bool","internalType":"bool"}]}],"stateMutability":"view"},{"type":"function","name":"getVote","inputs":[{"name":"_proposalId","type":"uint256","internalType":"uint256"},{"name":"_user","type":"address","internalType":"address"}],"outputs":[{"name":"","type":"tuple","internalType":"struct SmartnodesDAO.Vote","components":[{"name":"hasVoted","type":"bool","internalType":"bool"},{"name":"support","type":"bool","internalType":"bool"},{"name":"votingPower","type":"uint256","internalType":"uint256"}]}],"stateMutability":"view"},{"type":"function","name":"getVotingPower","inputs":[{"name":"_user","type":"address","internalType":"address"}],"outputs":[{"name":"votingPower","type":"uint256","internalType":"uint256"}],"stateMutability":"view"},{"type":"function","name":"i_smartnodesCore","inputs":[],"outputs":[{"name":"","type":"address","internalType":"contract ISmartnodesCore"}],"stateMutability":"view"},{"type":"function","name":"i_tokenContract","inputs":[],"outputs":[{"name":"","type":"address","internalType":"contract ISmartnodesToken"}],"stateMutability":"view"},{"type":"function","name":"owner","inputs":[],"outputs":[{"name":"","type":"address","internalType":"address"}],"stateMutability":"view"},{"type":"function","name":"proposalCounter","inputs":[],"outputs":[{"name":"","type":"uint256","internalType":"uint256"}],"stateMutability":"view"},{"type":"function","name":"proposals","inputs":[{"name":"","type":"uint256","internalType":"uint256"}],"outputs":[{"name":"id","type":"uint256","internalType":"uint256"},{"name":"proposer","type":"address","internalType":"address"},{"name":"proposalType","type":"uint8","internalType":"enum SmartnodesDAO.ProposalType"},{"name":"status","type":"uint8","internalType":"enum SmartnodesDAO.ProposalStatus"},{"name":"forVotes","type":"uint256","internalType":"uint256"},{"name":"againstVotes","type":"uint256","internalType":"uint256"},{"name":"startTime","type":"uint256","internalType":"uint256"},{"name":"endTime","type":"uint256","internalType":"uint256"},{"name":"executionData","type":"bytes","internalType":"bytes"},{"name":"description","type":"string","internalType":"string"},{"name":"executed","type":"bool","internalType":"bool"}],"stateMutability":"view"},{"type":"function","name":"proposeAddNetwork","inputs":[{"name":"_networkName","type":"string","internalType":"string"},{"name":"_description","type":"string","internalType":"string"}],"outputs":[{"name":"proposalId","type":"uint256","internalType":"uint256"}],"stateMutability":"nonpayable"},{"type":"function","name":"proposeRemoveNetwork","inputs":[{"name":"_networkId","type":"uint8","internalType":"uint8"},{"name":"_description","type":"string","internalType":"string"}],"outputs":[{"name":"proposalId","type":"uint256","internalType":"uint256"}],"stateMutability":"nonpayable"},{"type":"function","name":"renounceOwnership","inputs":[],"outputs":[],"stateMutability":"nonpayable"},{"type":"function","name":"transferOwnership","inputs":[{"name":"newOwner","type":"address","internalType":"address"}],"outputs":[],"stateMutability":"nonpayable"},{"type":"function","name":"votes","inputs":[{"name":"","type":"uint256","internalType":"uint256"},{"name":"","type":"address","internalType":"address"}],"outputs":[{"name":"hasVoted","type":"bool","internalType":"bool"},{"name":"support","type":"bool","internalType":"bool"},{"name":"votingPower","type":"uint256","internalType":"uint256"}],"stateMutability":"view"},{"type":"event","name":"OwnershipTransferred","inputs":[{"name":"previousOwner","type":"address","indexed":true,"internalType":"address"},{"name":"newOwner","type":"address","indexed":true,"internalType":"address"}],"anonymous":false},{"type":"event","name":"ProposalCancelled","inputs":[{"name":"proposalId","type":"uint256","indexed":true,"internalType":"uint256"}],"anonymous":false},{"type":"event","name":"ProposalCreated","inputs":[{"name":"proposalId","type":"uint256","indexed":true,"internalType":"uint256"},{"name":"proposer","type":"address","indexed":true,"internalType":"address"},{"name":"proposalType","type":"uint8","indexed":false,"internalType":"enum SmartnodesDAO.ProposalType"},{"name":"description","type":"string","indexed":false,"internalType":"string"}],"anonymous":false},{"type":"event","name":"ProposalExecuted","inputs":[{"name":"proposalId","type":"uint256","indexed":true,"internalType":"uint256"}],"anonymous":false},{"type":"event","name":"VoteCast","inputs":[{"name":"proposalId","type":"uint256","indexed":true,"internalType":"uint256"},{"name":"voter","type":"address","indexed":true,"internalType":"address"},{"name":"support","type":"bool","indexed":false,"internalType":"bool"},{"name":"votingPower","type":"uint256","indexed":false,"internalType":"uint256"}],"anonymous":false},{"type":"error","name":"DAO__AlreadyVoted","inputs":[]},{"type":"error","name":"DAO__ExecutionFailed","inputs":[]},{"type":"error","name":"DAO__InsufficientVotingPower","inputs":[]},{"type":"error","name":"DAO__InvalidProposal","inputs":[]},{"type":"error","name":"DAO__ProposalAlreadyExecuted","inputs":[]},{"type":"error","name":"DAO__ProposalNotActive","inputs":[]},{"type":"error","name":"DAO__ProposalNotPassed","inputs":[]},{"type":"error","name":"OwnableInvalidOwner","inputs":[{"name":"owner","type":"address","internalType":"address"}]},{"type":"error","name":"OwnableUnauthorizedAccount","inputs":[{"name":"account","type":"address","internalType":"address"}]}],"bytecode":{"object":"0x60c0346100fa57601f61186138819003918201601f19168301916001600160401b038311848410176100fe5780849260409485528339810103126100fa57610052602061004b83610112565b9201610112565b9033156100e2575f8054336001600160a01b0319821681178355604051946001600160a01b0394909385939192918416907f8be0079c531659141344cd1fd0a4f28419497f9722a3daafe3b4186f6b6457e09080a3166080521660a05261173a908161012782396080518181816105c701528181610f7f0152611604015260a0518181816109df01526110740152f35b604051631e4fbdf760e01b81525f6004820152602490fd5b5f80fd5b634e487b7160e01b5f52604160045260245ffd5b51906001600160a01b03821682036100fa5756fe6080806040526004361015610012575f80fd5b5f3560e01c908163013cf08b146111f7575080630c0512e9146111da5780630d61b51914610f0e57806315373e3d14610deb578063163445dd14610a0e578063246e1665146109ca5780633a6840be146105f657806361ded4eb146105b2578063715018a61461055b5780638da5cb5b14610534578063bb4d443614610509578063bc3f931f1461046d578063c7f758a814610283578063d23254b414610222578063e0a8f6f51461015a5763f2fde38b146100cc575f80fd5b34610156576020366003190112610156576100e561149b565b6100ed6116b9565b6001600160a01b0390811690811561013e575f54826bffffffffffffffffffffffff60a01b8216175f55167f8be0079c531659141344cd1fd0a4f28419497f9722a3daafe3b4186f6b6457e05f80a3005b604051631e4fbdf760e01b81525f6004820152602490fd5b5f80fd5b34610156576020366003190112610156576004356101766116b9565b805f526002602052600160405f2001805460ff8160a81c16600681101561020e576001036101d35760ff60a81b1916600560a81b1790557f416e669c63d9a3a5e36ee7cc7e2104b8db28ccd286aa18966e98fa230c73b08c5f80a2005b60405162461bcd60e51b815260206004820152601360248201527250726f706f73616c206e6f742061637469766560681b6044820152606490fd5b634e487b7160e01b5f52602160045260245ffd5b346101565760403660031901126101565761023b6114b1565b6004355f52600360205260405f209060018060a01b03165f52602052606060405f206001815491015460ff604051928181161515845260081c16151560208301526040820152f35b34610156576020366003190112610156575f6101406040516102a4816113be565b8281528260208201528260408201528260608201528260808201528260a08201528260c08201528260e08201526060610100820152606061012082015201526004355f52600260205260405f20604051906102fe826113be565b8054825260018101546001600160a01b038116602084015260a081901c60ff1690600282101561020e5760ff91604085015260a81c16600681101561020e5760ff91600891606085015260028101546080850152600381015460a0850152600481015460c0850152600581015460e085015260405161038b81610384816006860161132d565b03826113f5565b6101008501526040516103a581610384816007860161132d565b61012085015201541615156101408201526040518091602082528051602083015260018060a01b0360208201511660408301526103ea60408201516060840190611416565b6103fc60608201516080840190611423565b608081015160a083015260a081015160c083015260c081015160e083015260e081015161010083015261010081015161014061046061044a6101609384610120880152610180870190611430565b610120850151868203601f190184880152611430565b9201511515908301520390f35b34610156576040366003190112610156576104866114b1565b5f60408051610494816113da565b82815282602082015201526004355f52600360205260405f209060018060a01b03165f52602052606060405f206040516104cd816113da565b81546040600160ff831615159485855260ff602086019460081c1615158452015492019182526040519283525115156020830152516040820152f35b3461015657602036600319011261015657602061052c61052761149b565b6115da565b604051908152f35b34610156575f366003190112610156575f546040516001600160a01b039091168152602090f35b34610156575f366003190112610156576105736116b9565b5f80546001600160a01b0319811682556001600160a01b03167f8be0079c531659141344cd1fd0a4f28419497f9722a3daafe3b4186f6b6457e08280a3005b34610156575f366003190112610156576040517f00000000000000000000000000000000000000000000000000000000000000006001600160a01b03168152602090f35b346101565760403660031901126101565760043560ff8116809103610156576024356001600160401b0381116101565761063490369060040161146e565b683635c9adc5dea0000061064a939293336115da565b106109b85761065a600154611527565b918260015560405190633e49f3e960e11b6020830152602482015260248152610682816113da565b62093a804201908142116109a4576040519161069d836113be565b84835233602084015260016040840152600160608401525f60808401525f60a08401524260c084015260e08301526101008201526106dc368386611555565b6101208201525f610140820152825f52600260205260405f2093815185556001850160018060a01b036020840151168154906040850151600281101561020e576001600160a81b03199092161760a09190911b60ff60a01b161781556060830151600681101561020e5761074f916114e8565b6080820151600286015560a0820151600386015560c0820151600486015560e08201516005860155600685016101008301518051906001600160401b038211610921576107a6826107a085546112f5565b8561158b565b602090601f8311600114610940576107d592915f9183610935575b50508160011b915f199060031b1c19161790565b90555b6007850194610120830151928351966001600160401b0388116109215787879561080860209a6107a085546112f5565b8990601f831160011461089f575f805160206116e5833981519152969461086d94610853856108899996600896610140965f926108945750508160011b915f199060031b1c19161790565b90555b0151151591019060ff801983541691151516179055565b6040519182916001835260408984015233966040840191611535565b0390a3604051908152f35b015190505f806107c1565b90601f19831691845f528b5f20925f5b818110610907575094600185600895610140955f805160206116e58339815191529c9a956108899c9961086d9b106108ef575b505050811b019055610856565b01515f1960f88460031b161c191690558f80806108e2565b8284015185558c9a50600190940193928d01928d016108af565b634e487b7160e01b5f52604160045260245ffd5b0151905089806107c1565b90601f19831691845f5260205f20925f5b81811061098c5750908460019594939210610974575b505050811b0190556107d8565b01515f1960f88460031b161c19169055888080610967565b92936020600181928786015181550195019301610951565b634e487b7160e01b5f52601160045260245ffd5b604051632be7c7fd60e01b8152600490fd5b34610156575f366003190112610156576040517f00000000000000000000000000000000000000000000000000000000000000006001600160a01b03168152602090f35b34610156576040366003190112610156576004356001600160401b03811161015657610a3e90369060040161146e565b602480356001600160401b03811161015657610a5e90369060040161146e565b919093683635c9adc5dea00000610a74336115da565b106109b857610ac0610a87600154611527565b9485600155610ab26040519384926391ef735760e01b60208501526020878501526044840191611535565b03601f1981018352826113f5565b62093a80420190814211610dd85760405191610adb836113be565b8583523360208401525f6040840152600160608401525f60808401525f60a08401524260c084015260e0830152610100820152610b19368487611555565b6101208201525f610140820152835f52600260205260405f2091815183556001830160018060a01b0360208401511681549060408501516002811015610dc5576001600160a81b03199092161760a09190911b60ff60a01b161781556060830151906006821015610db25790610b8e916114e8565b6080820151600284015560a0820151600384015560c0820151600484015560e082015160058401556101008201518051906001600160401b038211610d9f57610be782610bde60068801546112f5565b6006880161158b565b602090601f8311600114610d3157610c1592915f91836109355750508160011b915f199060031b1c19161790565b60068401555b60078301906101208301518051916001600160401b038311610d1e57509181879593610c4f60209a96946107a085546112f5565b8990601f8311600114610cb5575f805160206116e58339815191529694610c9a94610853856108899996600896610140965f926108945750508160011b915f199060031b1c19161790565b6040519182915f835260408984015233966040840191611535565b90601f19831691845f528b5f20925f5b818110610d04575094600185600895610140955f805160206116e58339815191529c9a956108899c99610c9a9b106108ef57505050811b019055610856565b8284015185558c9a50600190940193928d01928d01610cc5565b634e487b7160e01b5f9081526041600452fd5b9190600686015f5260205f20905f935b601f1984168510610d84576001945083601f19811610610d6c575b505050811b016006840155610c1b565b01515f1960f88460031b161c19169055888080610d5c565b81810151835560209485019460019093019290910190610d41565b82634e487b7160e01b5f5260416004525ffd5b82634e487b7160e01b5f5260216004525ffd5b84634e487b7160e01b5f5260216004525ffd5b82634e487b7160e01b5f5260116004525ffd5b3461015657604036600319011261015657600435602435908115159182810361015657815f52600260205260405f2060ff600182015460a81c16600681101561020e57600103610efc5760058101544211610efc57825f52600360205260405f20335f5260205260405f209182549260ff8416610eea57610e6b336115da565b9384156109b85761ffff1916600887901b61ff001617600190811782550183905515610ed557600201610e9f8282546114c7565b90555b60405192835260208301527fcbdf6214089cba887ecbf35a0b6a734589959c9763342c756bb2a80ca2bc9f6e60403393a3005b600301610ee38282546114c7565b9055610ea2565b6040516357a9a89f60e01b8152600490fd5b60405163e5c3e17960e01b8152600490fd5b34610156576020806003193601126101565760043590815f526002815260405f20906008820190815460ff81166111c8576005840154421115610efc57600284015490610f5f6003860154836114c7565b604080516314ceceff60e21b81526001600160a01b0394909291836004817f000000000000000000000000000000000000000000000000000000000000000089165afa9283156111bd575f93611175575b50606482028215938382046064148517156109a4576001600160801b031690600a820291808304600a14901517156109a45710926064820291808304606414901517156109a4576033830292830460331417156109a457821561116b575b5050611159576001906006600187019660ff60a81b1996600160a91b888a5416178955600160ff198095161790550190604051925f92805461104f816112f5565b936001821691821561114357505060011461110c575b50505091815f809493819403927f0000000000000000000000000000000000000000000000000000000000000000165af1903d15611106575f3d916110a98361150c565b926110b760405194856113f5565b83523d92013e5b156110f457815416600160aa1b1790557f712ae1383f79ac853f8d882153778e0260ef8f03b504e2866e0593e04d2b291f5f80a2005b604051639ba77b9f60e01b8152600490fd5b506110be565b909192505f52845f2090855f925b848410611131575050509082019050815f80611065565b8054868501529201918690820161111a565b1686525050508015150282019050815f80611065565b6040516324c4a96760e01b8152600490fd5b109050878061100e565b9092506040813d6040116111b5575b81611191604093836113f5565b81010312610156576111ad866111a6836114d4565b92016114d4565b509189610fb0565b3d9150611184565b6040513d5f823e3d90fd5b6040516301d7051760e31b8152600490fd5b34610156575f366003190112610156576020600154604051908152f35b3461015657602036600319011261015657606060ff916004355f5260026020526112e860405f206112d981549360018301549460028401546003850154600486015490600587015492611258866112518160068c0161132d565b03876113f5565b6112b68c60086040519a61127a8c611273816007850161132d565b038d6113f5565b0154169a6040519d8e9d8e61016099815260018060a01b03841660208201526112ab60408201848660a01c16611416565b019160a81c16611423565b60808b015260a08a015260c089015260e088015280610100880152860190611430565b90848203610120860152611430565b9015156101408301520390f35b90600182811c92168015611323575b602083101461130f57565b634e487b7160e01b5f52602260045260245ffd5b91607f1691611304565b80545f939261133b826112f5565b918282526020936001916001811690815f1461139f5750600114611361575b5050505050565b90939495505f92919252835f2092845f945b83861061138b57505050500101905f8080808061135a565b805485870183015294019385908201611373565b60ff19168685015250505090151560051b010191505f8080808061135a565b61016081019081106001600160401b0382111761092157604052565b606081019081106001600160401b0382111761092157604052565b90601f801991011681019081106001600160401b0382111761092157604052565b90600282101561020e5752565b90600682101561020e5752565b91908251928382525f5b84811061145a575050825f602080949584010152601f8019910116010190565b60208183018101518483018201520161143a565b9181601f84011215610156578235916001600160401b038311610156576020838186019501011161015657565b600435906001600160a01b038216820361015657565b602435906001600160a01b038216820361015657565b919082018092116109a457565b51906001600160801b038216820361015657565b90600681101561020e57815460ff60a81b191660a89190911b60ff60a81b16179055565b6001600160401b03811161092157601f01601f191660200190565b5f1981146109a45760010190565b908060209392818452848401375f828201840152601f01601f1916010190565b9291926115618261150c565b9161156f60405193846113f5565b829481845281830111610156578281602093845f960137010152565b601f821161159857505050565b5f5260205f20906020601f840160051c830193106115d0575b601f0160051c01905b8181106115c5575050565b5f81556001016115ba565b90915081906115b1565b604080516369a69e2960e01b81526001600160a01b039283166004820152918190839060249082907f0000000000000000000000000000000000000000000000000000000000000000165afa9081156116b0575f91611644575b506001600160801b039150511690565b80915082813d83116116a9575b61165b81836113f5565b8101031261015657805190808201908282106001600160401b03831117610921576001600160801b039361169e9260209252611696816114d4565b8452016114d4565b60208201525f611634565b503d611651565b513d5f823e3d90fd5b5f546001600160a01b031633036116cc57565b60405163118cdaa760e01b8152336004820152602490fdfe8356bc5007056a642094f44da4e8e22469db3e8a36b5811c0f91f735f1491c79a26469706673582212204e56064c8b1947793455e802045cc88ac6186d4e5a475f2aab602af5918f686a64736f6c63430008160033","linkReferences":{}},"methodIdentifiers":{"cancelProposal(uint256)":"e0a8f6f5","castVote(uint256,bool)":"15373e3d","executeProposal(uint256)":"0d61b519","getProposal(uint256)":"c7f758a8","getVote(uint256,address)":"bc3f931f","getVotingPower(address)":"bb4d4436","i_smartnodesCore()":"246e1665","i_tokenContract()":"61ded4eb","owner()":"8da5cb5b","proposalCounter()":"0c0512e9","proposals(uint256)":"013cf08b","proposeAddNetwork(string,string)":"163445dd","proposeRemoveNetwork(uint8,string)":"3a6840be","renounceOwnership()":"715018a6","transferOwnership(address)":"f2fde38b","votes(uint256,address)":"d23254b4"},"id":25}