{"abi":[{"type":"constructor","inputs":[{"name":"_updateTime","type":"uint128","internalType":"uint128"},{"name":"_requiredApprovalsPercentage","type":"uint8","internalType":"uint8"},{"name":"_smartnodesCore","type":"address","internalType":"address"},{"name":"_smartnodesToken","type":"address","internalType":"address"},{"name":"_genesisNodes","type":"address[]","internalType":"address[]"}],"stateMutability":"nonpayable"},{"type":"function","name":"addValidator","inputs":[],"outputs":[],"stateMutability":"nonpayable"},{"type":"function","name":"createProposal","inputs":[{"name":"proposalHash","type":"bytes32","internalType":"bytes32"}],"outputs":[],"stateMutability":"nonpayable"},{"type":"function","name":"currentProposals","inputs":[{"name":"","type":"uint256","internalType":"uint256"}],"outputs":[{"name":"creator","type":"address","internalType":"address"},{"name":"proposalNum","type":"uint8","internalType":"uint8"},{"name":"votes","type":"uint32","internalType":"uint32"},{"name":"proposalHash","type":"bytes32","internalType":"bytes32"}],"stateMutability":"view"},{"type":"function","name":"currentRoundNumber","inputs":[],"outputs":[{"name":"","type":"uint256","internalType":"uint256"}],"stateMutability":"view"},{"type":"function","name":"currentRoundValidators","inputs":[{"name":"","type":"uint256","internalType":"uint256"}],"outputs":[{"name":"","type":"address","internalType":"address"}],"stateMutability":"view"},{"type":"function","name":"executeProposal","inputs":[{"name":"proposalId","type":"uint8","internalType":"uint8"},{"name":"merkleRoot","type":"bytes32","internalType":"bytes32"},{"name":"totalCapacity","type":"uint256","internalType":"uint256"},{"name":"validatorsToRemove","type":"address[]","internalType":"address[]"},{"name":"jobHashes","type":"bytes32[]","internalType":"bytes32[]"},{"name":"workersHash","type":"bytes32","internalType":"bytes32"},{"name":"capacitiesHash","type":"bytes32","internalType":"bytes32"}],"outputs":[],"stateMutability":"nonpayable"},{"type":"function","name":"getCurrentProposals","inputs":[],"outputs":[{"name":"","type":"tuple[]","internalType":"struct SmartnodesCoordinator.Proposal[]","components":[{"name":"creator","type":"address","internalType":"address"},{"name":"proposalNum","type":"uint8","internalType":"uint8"},{"name":"votes","type":"uint32","internalType":"uint32"},{"name":"proposalHash","type":"bytes32","internalType":"bytes32"}]}],"stateMutability":"view"},{"type":"function","name":"getCurrentRoundInfo","inputs":[],"outputs":[{"name":"roundNumber","type":"uint256","internalType":"uint256"},{"name":"selectedValidatorCount","type":"uint256","internalType":"uint256"},{"name":"requiredValidatorCount","type":"uint256","internalType":"uint256"},{"name":"requiredVotes","type":"uint256","internalType":"uint256"}],"stateMutability":"view"},{"type":"function","name":"getCurrentRoundValidators","inputs":[],"outputs":[{"name":"","type":"address[]","internalType":"address[]"}],"stateMutability":"view"},{"type":"function","name":"getNumProposals","inputs":[],"outputs":[{"name":"","type":"uint8","internalType":"uint8"}],"stateMutability":"view"},{"type":"function","name":"getProposal","inputs":[{"name":"proposalId","type":"uint8","internalType":"uint8"}],"outputs":[{"name":"","type":"tuple","internalType":"struct SmartnodesCoordinator.Proposal","components":[{"name":"creator","type":"address","internalType":"address"},{"name":"proposalNum","type":"uint8","internalType":"uint8"},{"name":"votes","type":"uint32","internalType":"uint32"},{"name":"proposalHash","type":"bytes32","internalType":"bytes32"}]}],"stateMutability":"view"},{"type":"function","name":"getRequiredApprovals","inputs":[],"outputs":[{"name":"","type":"uint256","internalType":"uint256"}],"stateMutability":"view"},{"type":"function","name":"getState","inputs":[],"outputs":[{"name":"proposalId","type":"uint256","internalType":"uint256"},{"name":"executionTime","type":"uint256","internalType":"uint256"},{"name":"roundValidators","type":"address[]","internalType":"address[]"}],"stateMutability":"view"},{"type":"function","name":"getValidatorActivity","inputs":[{"name":"validator","type":"address","internalType":"address"}],"outputs":[{"name":"lastActiveRound","type":"uint256","internalType":"uint256"},{"name":"isCurrentlySelected","type":"bool","internalType":"bool"}],"stateMutability":"view"},{"type":"function","name":"getValidatorCount","inputs":[],"outputs":[{"name":"","type":"uint256","internalType":"uint256"}],"stateMutability":"view"},{"type":"function","name":"getValidators","inputs":[],"outputs":[{"name":"","type":"address[]","internalType":"address[]"}],"stateMutability":"view"},{"type":"function","name":"hasSubmittedProposal","inputs":[{"name":"","type":"address","internalType":"address"}],"outputs":[{"name":"","type":"uint8","internalType":"uint8"}],"stateMutability":"view"},{"type":"function","name":"isProposalReady","inputs":[{"name":"proposalId","type":"uint8","internalType":"uint8"}],"outputs":[{"name":"","type":"bool","internalType":"bool"}],"stateMutability":"view"},{"type":"function","name":"isRoundExpired","inputs":[],"outputs":[{"name":"","type":"bool","internalType":"bool"}],"stateMutability":"view"},{"type":"function","name":"isValidator","inputs":[{"name":"","type":"address","internalType":"address"}],"outputs":[{"name":"","type":"bool","internalType":"bool"}],"stateMutability":"view"},{"type":"function","name":"nextProposalId","inputs":[],"outputs":[{"name":"","type":"uint256","internalType":"uint256"}],"stateMutability":"view"},{"type":"function","name":"removeValidator","inputs":[],"outputs":[],"stateMutability":"nonpayable"},{"type":"function","name":"timeConfig","inputs":[],"outputs":[{"name":"updateTime","type":"uint128","internalType":"uint128"},{"name":"lastExecutionTime","type":"uint128","internalType":"uint128"}],"stateMutability":"view"},{"type":"function","name":"updateTiming","inputs":[{"name":"_newInterval","type":"uint256","internalType":"uint256"}],"outputs":[],"stateMutability":"nonpayable"},{"type":"function","name":"validatorLastActiveRound","inputs":[{"name":"","type":"address","internalType":"address"}],"outputs":[{"name":"","type":"uint256","internalType":"uint256"}],"stateMutability":"view"},{"type":"function","name":"validatorVote","inputs":[{"name":"","type":"address","internalType":"address"}],"outputs":[{"name":"","type":"uint256","internalType":"uint256"}],"stateMutability":"view"},{"type":"function","name":"validators","inputs":[{"name":"","type":"uint256","internalType":"uint256"}],"outputs":[{"name":"","type":"address","internalType":"address"}],"stateMutability":"view"},{"type":"function","name":"voteForProposal","inputs":[{"name":"proposalId","type":"uint8","internalType":"uint8"}],"outputs":[],"stateMutability":"nonpayable"},{"type":"event","name":"ConfigUpdated","inputs":[{"name":"updateTime","type":"uint256","indexed":false,"internalType":"uint256"}],"anonymous":false},{"type":"event","name":"NewRoundStarted","inputs":[{"name":"roundNumber","type":"uint256","indexed":true,"internalType":"uint256"},{"name":"selectedValidators","type":"address[]","indexed":false,"internalType":"address[]"}],"anonymous":false},{"type":"event","name":"ProposalCreated","inputs":[{"name":"proposalId","type":"uint256","indexed":true,"internalType":"uint256"},{"name":"proposalHash","type":"bytes32","indexed":true,"internalType":"bytes32"},{"name":"creator","type":"address","indexed":true,"internalType":"address"}],"anonymous":false},{"type":"event","name":"ProposalExecuted","inputs":[{"name":"proposalId","type":"uint256","indexed":true,"internalType":"uint256"},{"name":"proposalHash","type":"bytes32","indexed":true,"internalType":"bytes32"}],"anonymous":false},{"type":"event","name":"ValidatorAdded","inputs":[{"name":"validator","type":"address","indexed":true,"internalType":"address"}],"anonymous":false},{"type":"event","name":"ValidatorRemoved","inputs":[{"name":"validator","type":"address","indexed":true,"internalType":"address"}],"anonymous":false},{"type":"error","name":"Coordinator__AlreadySubmittedProposal","inputs":[]},{"type":"error","name":"Coordinator__AlreadyVoted","inputs":[]},{"type":"error","name":"Coordinator__InvalidAddress","inputs":[]},{"type":"error","name":"Coordinator__InvalidApprovalPercentage","inputs":[]},{"type":"error","name":"Coordinator__InvalidProposalNumber","inputs":[]},{"type":"error","name":"Coordinator__MustBeProposalCreator","inputs":[]},{"type":"error","name":"Coordinator__NotCoreContract","inputs":[]},{"type":"error","name":"Coordinator__NotEligibleValidator","inputs":[]},{"type":"error","name":"Coordinator__NotEnoughActiveValidators","inputs":[]},{"type":"error","name":"Coordinator__NotEnoughVotes","inputs":[]},{"type":"error","name":"Coordinator__NotTokenContract","inputs":[]},{"type":"error","name":"Coordinator__NotValidator","inputs":[]},{"type":"error","name":"Coordinator__ProposalDataMismatch","inputs":[]},{"type":"error","name":"Coordinator__ProposalTooEarly","inputs":[]},{"type":"error","name":"Coordinator__ValidatorAlreadyExists","inputs":[]},{"type":"error","name":"Coordinator__ValidatorNotRegistered","inputs":[]},{"type":"error","name":"ReentrancyGuardReentrantCall","inputs":[]}],"bytecode":{"object":"0x60e06040908082523462000392576200263680380380916200002282856200040f565b833981019060a081830312620003925780516001600160801b038116908190036200039257602090818301519360ff9360ff86169586810362000392576200006c88830162000433565b956200007b6060840162000433565b94608092608085015160018060401b03958682116200039257019686601f8901121562000392578b96885198620000c0620000b68b62000448565b9951998a6200040f565b8989528a8901908b829b60051b82010192831162000392578b809101915b838310620003f4575050505060019a8b5f558015908115620003e8575b50620003d7576001600160a01b03998a168015620003c657608052891660a05260c0528951808b0194851181861017620003b257875f918b968d9b999a9b5283815201528355825f905b620001f9575b505050600a558551928391858301956080840191428852448a8601526060808601525180925260a0840192945f905b89848310620001dd5750505050506200019d925003601f1981018352826200040f565b519020600b55620001ad62000568565b60025551611cd590816200096182396080518181816104c50152610950015260a05181610f15015260c051815050f35b875182168652968301968896509483019491909101906200017a565b849796959751811015620003a8578762000214828762000460565b511662000229575b8301839795969762000145565b90919250866200023a828662000460565b5116878451168a5190637ad9028f60e01b8252818981600493868583015260249586915afa9081156200039e575f916200035d575b50156200034f57825f52600691828a52858d5f2054166200034057600390815492680100000000000000008410156200032f578d84018084558410156200031e5750505f90815289812090910180546001600160a01b031916841790558281529088528a8120805460ff19168b179055600a54600989528b82205589949392859290917fe366c1c0452ed8eec96861e9e54141ebff23c9ec89fe27b996b45f5ec38849879080a290506200021c565b603290634e487b7160e01b5f52525ffd5b604190634e487b7160e01b5f52525ffd5b508b5163028de34960e31b8152fd5b8b51631c6a4ddd60e01b8152fd5b90508981813d831162000396575b6200037781836200040f565b81010312620003925751801515810362000392575f6200026f565b5f80fd5b503d6200036b565b8d513d5f823e3d90fd5b969495966200014b565b634e487b7160e01b5f52604160045260245ffd5b8c51630af8bce760e31b8152600490fd5b8b51630c6698b360e21b8152600490fd5b60649150115f620000fb565b8190620004018462000433565b8152019101908b90620000de565b601f909101601f19168101906001600160401b03821190821017620003b257604052565b51906001600160a01b03821682036200039257565b6001600160401b038111620003b25760051b60200190565b8051821015620004755760209160051b010190565b634e487b7160e01b5f52603260045260245ffd5b60045468010000000000000000811015620003b2576001810180600455811015620004755760045f527f8a35acfbc15ff81a39ae7d344fd709f28e8600b4aa8c65c6b64bfe7fe36bd19b0180546001600160a01b0319166001600160a01b03909216919091179055565b6004545f60045580620005035750565b60045f527f8a35acfbc15ff81a39ae7d344fd709f28e8600b4aa8c65c6b64bfe7fe36bd19b908101905b81811062000539575050565b5f81556001016200052d565b5f198114620005545760010190565b634e487b7160e01b5f52601160045260245ffd5b600380549081156200091f576200057e6200092d565b9182811062000916575b62000592620004f3565b6200059d8162000448565b93604094620005af865191826200040f565b828152620005bd8362000448565b60209490601f190136838701376003545f5b858110620008e257505050600b8054600a54915f19928343019243841162000554578a5193898501918252428c86015260609244606087015260808601524060a085015260a0845260c084019360018060401b039481811086821117620003b2578c52519020600b55865b60018111620008405750505050505f92600a54600381115f14620008375760021981019081116200055457925b5f5b828110806200082d575b15620006d7576001600160a01b036200068d828662000460565b5116805f5260098852858a5f205411620006b4575b50620006ae9062000545565b62000669565b620006ae9196620006c9620006cf9262000489565b62000545565b9590620006a2565b5090959694965f5b8781108062000823575b15620007a2576001600160a01b038062000704838762000460565b511690815f5260098b5286895f205411156200072e575b5050620007289062000545565b620006df565b8a5f915f600490858254945b85831062000774575b5050505050501562000757575b806200071b565b620007289196620006c96200076c9262000489565b959062000750565b5f848152208201548416146200078f57600101858f6200073a565b505050505060015f808080858f62000743565b505095939450505050600a54918051918083019181845260045480935283019160045f52815f20915f905b82821062000802575050505090807f5a67d50d80c07ddacffffa43d630a2de733fe87ffa46a8c0d5fe3e3dcd0b8e6e920390a2565b83546001600160a01b031685529384019360019384019390910190620007cd565b50818610620006e9565b5087861062000673565b505f9262000667565b82548b518a8101918252828d8201528c815283810181811087821117620003b2578d525190208084558115620008ce578190066001600160a01b038062000888838a62000460565b511691878401908482116200055457620008b6620008be93620008ac848d62000460565b5116918b62000460565b528862000460565b528015620005545784016200063a565b634e487b7160e01b5f52601260045260245ffd5b8181101562000475575f838152879020810154600191906001600160a01b03166200090e828762000460565b5201620005cf565b91508162000588565b50506200092b620004f3565b565b600354600281106200095a57600581106200095457600a116200094f57600590565b600390565b50600290565b5060019056fe6080806040526004361015610012575f80fd5b5f905f3560e01c9081630f42f3c91461126e575080631865c57d146112135780632542bf0614610fe35780632ab09d1414610fc657806335aa2e4414610f9d578063371dcdf214610eff5780633eeb907b14610eb5578063502e122314610e7d5780636b6f3cd914610e595780637071688a14610e3c578063747dff4214610dfc578063798974dd14610ddc5780637f77403d14610cd85780638105f3b614610bdf57806389bfe54914610bb15780638b1e24ab14610b8f57806398e88c9514610b575780639a17162914610b1c5780639c4780d814610aff5780639c5bc49e14610a9c5780639d54bdc114610a72578063b1afae0714610923578063b7ab4db51461089d578063bd4231841461083c578063bff05f45146102a2578063dac001fe146101d7578063e8bb5946146101935763facd743b14610152575f80fd5b346101905760203660031901126101905760209060ff906040906001600160a01b0361017c6113eb565b168152600684522054166040519015158152f35b80fd5b503461019057602036600319011261019057600435906004548210156101905760206101be836113c9565b905460405160039290921b1c6001600160a01b03168152f35b5034610190576020366003190112610190576101f1611347565b9060606040516102008161147c565b828152826020820152826040820152015260ff6005541660ff8216908115918215610298575b50506102865761024861024261023d60809361146a565b611401565b506115c6565b61028460405180926060809160018060a01b03815116845260ff602082015116602085015263ffffffff60408201511660408501520151910152565bf35b604051635119e6a360e11b8152600490fd5b1190505f80610226565b503461059c5760e036600319011261059c576102bc611347565b60643567ffffffffffffffff811161059c576102dc903690600401611439565b60843567ffffffffffffffff811161059c576102fc903690600401611439565b919092335f52600660205260ff60405f2054161561082a5761031c61162e565b60ff851615801561081c575b6102865761033861023d8661146a565b5080546001909101549290336001600160a01b0382160361080a5763ffffffff610360611795565b9160a81c16106107f857826040518260c08201602435602084015260a060408401525260e08101845f5b8581106107c75750506103cc90826103b0601f1992838382030160608401528a8c61160a565b60a435608083015260c43560a083015203908101835282611498565b60208151910120036107b557600a54335f52600960205260405f20558061064d575b50506040519384856020600354928381520160035f525f80516020611c60833981519152925f5b81811061062b57505061042a92500386611498565b84515f805b8281106105ee575061044090611826565b955f905f5b8381106105a0575050505060ff167f56a007d3eea04bd347e571f3451382cb2a33ef5fd102b9a63846ff8d787f43cf5f80a361047f611866565b61048a600a54611858565b600a55610495611949565b61049d6116fb565b6001546001600160801b0380194260801b169116176001556104c0600254611858565b6002557f00000000000000000000000000000000000000000000000000000000000000006001600160a01b0316803b1561059c575f92836105239361054560405197889687958694631781ab6160e31b865260a0600487015260a486019161160a565b9060243560248501526044356044850152600319848303016064850152611357565b33608483015203925af1801561059157610562575b506001815580f35b905067ffffffffffffffff811161057d576040525f8061055a565b634e487b7160e01b5f52604160045260245ffd5b6040513d5f823e3d90fd5b5f80fd5b6001600160a01b036105b2828461164f565b5116805f52600760205260ff861660405f2054146105d4575b50600101610445565b8360019294916105e584938d61164f565b520192906105cb565b6001600160a01b03610600828a61164f565b51165f52600760205260ff841660405f205414610620575b60010161042f565b600190910190610618565b84546001600160a01b031683526001948501948a945060209093019201610415565b600354915f5b8281106106615750506103ee565b600581901b8201356001600160a01b038116810361059c576001600160a01b0381165f908152600660205260409020805460ff81166106a6575b505050600101610653565b60ff1916905560076020525f604081205560096020525f60408120555f5b858110610706575b50600191906001600160a01b03167fe1434e25d6611e0db941968fdc97811c982ac1602e951637d206f5fdda9dd8f15f80a2905f8061069b565b61070f81611393565b905460039190911b1c6001600160a01b0390811690831614610733576001016106c4565b855f96939296198101116107a15760019261078c6107999261076e61075a5f198501611393565b888060a01b0391549060031b1c1691611393565b90919060018060a01b038084549260031b9316831b921b1916179055565b6107946117b4565b61181a565b9490916106cc565b634e487b7160e01b5f52601160045260245ffd5b6040516345e679d360e11b8152600490fd5b929350919082356001600160a01b038116919082900361059c5790815286939260209182019291019060010161038a565b60405163dea7e86b60e01b8152600490fd5b604051631f046f9760e21b8152600490fd5b5060055460ff861611610328565b604051631c6a4ddd60e01b8152600490fd5b3461059c57602036600319011261059c5760043560055481101561059c57610865608091611401565b506001815491015463ffffffff6040519260018060a01b038116845260ff8160a01c16602085015260a81c1660408301526060820152f35b3461059c575f36600319011261059c57604051806003549182815260208091019260035f525f80516020611c60833981519152915f905b828210610903576108ff856108eb81890382611498565b604051918291602083526020830190611357565b0390f35b83546001600160a01b0316865294850194600193840193909101906108d4565b3461059c575f36600319011261059c57604051637ad9028f60e01b815233600482015260209081816024817f00000000000000000000000000000000000000000000000000000000000000006001600160a01b03165afa908115610591575f91610a3c575b501561082a57335f526006815260ff60405f205416610a2a57600354600160401b81101561057d576109c38160016109e19301600355611393565b81546001600160a01b0360039290921b91821b19163390911b179055565b335f526006815260405f20600160ff198254161790556009600a54915260405f2055337fe366c1c0452ed8eec96861e9e54141ebff23c9ec89fe27b996b45f5ec38849875f80a2005b60405163028de34960e31b8152600490fd5b90508181813d8311610a6b575b610a538183611498565b8101031261059c5751801515810361059c5782610988565b503d610a49565b3461059c575f36600319011261059c576108ff6040516108eb81610a95816114f1565b0382611498565b3461059c57602036600319011261059c57610ab5611347565b60ff81168015908115610af3575b506102865763ffffffff610adb61023d60209361146a565b505460a81c16610ae9611795565b1115604051908152f35b90506005541082610ac3565b3461059c575f36600319011261059c576020600a54604051908152f35b3461059c57602036600319011261059c576001600160a01b03610b3d6113eb565b165f526008602052602060ff60405f205416604051908152f35b3461059c57602036600319011261059c576001600160a01b03610b786113eb565b165f526007602052602060405f2054604051908152f35b3461059c575f36600319011261059c576020610ba9611795565b604051908152f35b3461059c575f36600319011261059c5760406001548151906001600160801b038116825260801c6020820152f35b3461059c575f36600319011261059c57600554610bfb816115ae565b610c086040519182611498565b81815260209060208101928360055f527f036b6384b5eca791c62761152d0c79bb0604c104a5fb6f4eb0703f3154bb3db05f915b838310610cbb5760408051602080825287519082018190528992820190895f5b828110610c695784840385f35b90919282608082610cac6001948a516060809160018060a01b03815116845260ff602082015116602085015263ffffffff60408201511660408501520151910152565b01960191019492919094610c5c565b600286600192610cca856115c6565b815201920192019190610c3c565b3461059c575f36600319011261059c57335f52600660205260ff60405f2054161561082a57335f52600660205260ff60405f20541615610dca57335f52600660205260405f2060ff19815416905560076020525f604081205560096020525f604081205560038054905f5b828110610d72575b337fe1434e25d6611e0db941968fdc97811c982ac1602e951637d206f5fdda9dd8f15f80a2005b610d7b81611393565b90546001600160a01b0391841b1c81163314610d9a5750600101610d43565b61076e9192610dae610dba955f1901611393565b9054911b1c1691611393565b610dc26117b4565b808080610d4b565b604051634dc80a9b60e11b8152600490fd5b3461059c575f36600319011261059c57602060ff60055416604051908152f35b3461059c575f36600319011261059c576080600a54600454610e1c611765565b610e24611795565b91604051938452602084015260408301526060820152f35b3461059c575f36600319011261059c576020600354604051908152f35b3461059c575f36600319011261059c576020610e736116bd565b6040519015158152f35b3461059c57602036600319011261059c576001600160a01b03610e9e6113eb565b165f526009602052602060405f2054604051908152f35b3461059c57602036600319011261059c576040610ed06113eb565b6001600160a01b0381165f90815260096020528290205490610ef190611663565b825191825215156020820152f35b3461059c57602036600319011261059c576004357f00000000000000000000000000000000000000000000000000000000000000006001600160a01b03163303610f8b576020816001600160801b037fc4dcf1e7351cef05b0dcbe5903857cd86c5a9510ae387d20a71166cd6abe57b493166001600160801b03196001541617600155604051908152a1005b6040516321a9e71f60e11b8152600490fd5b3461059c57602036600319011261059c5760043560035481101561059c576101be602091611393565b3461059c575f36600319011261059c576020600254604051908152f35b3461059c5760208060031936011261059c5760043561100133611663565b6110096116bd565b9015806111f0575b6111de576111c9575b61102261162e565b61102a6114ba565b6110466001600160801b03918280868301511691511690611593565b1642106111b757600554915f805b8460ff82161061117f575b5061116d57600160ff84160160ff81116107a157604051906110808261147c565b33825260ff83830191169485825260408301915f83526060840191868352600160401b81101561057d578060016110ba9201600555611401565b94909461115a57518454915193516001600160c81b03199092166001600160a01b03919091161760a09390931b60ff60a01b169290921760a89290921b63ffffffff60a81b1691909117825560019051910155335f526008815260405f208360ff198254161790556009600a54915260405f205533917f18606676ae94dc828c91c323dfd6416c7671259f5637da4bbfbf91ecb3f437835f80a460015f55005b634e487b7160e01b5f525f60045260245ffd5b60405163de81385760e01b8152600490fd5b61118881611401565b50546001600160a01b031633146111ad5760ff8091169081146107a157600101611054565b505060018461105f565b6040516309af6f5760e01b8152600490fd5b6111d1611866565b6111d96116fb565b61101a565b604051632c38d4f760e21b8152600490fd5b50335f526006835260ff60405f2054168061120c575b15611011565b5080611206565b3461059c575f36600319011261059c5761122b6114ba565b6001600160801b03602060025492015116906108ff60405161125081610a95816114f1565b60405193849384526020840152606060408401526060830190611357565b3461059c57602036600319011261059c57611287611347565b90335f52600660205260ff60405f2054161561133857506112a661162e565b6005549060ff811691821161028657335f52600760205260405f20546113265761023d6112d29161146a565b5090335f52600760205260405f2055600a54600960205260405f205563ffffffff9081815460a81c169182146107a157805463ffffffff60a81b1916600192830160a81b63ffffffff60a81b161790555f55005b604051635803953f60e01b8152600490fd5b631c6a4ddd60e01b8152600490fd5b6004359060ff8216820361059c57565b9081518082526020808093019301915f5b828110611376575050505090565b83516001600160a01b031685529381019392810192600101611368565b6003548110156113b55760035f525f80516020611c6083398151915201905f90565b634e487b7160e01b5f52603260045260245ffd5b6004548110156113b55760045f525f80516020611c8083398151915201905f90565b600435906001600160a01b038216820361059c57565b6005548110156113b55760055f5260011b7f036b6384b5eca791c62761152d0c79bb0604c104a5fb6f4eb0703f3154bb3db001905f90565b9181601f8401121561059c5782359167ffffffffffffffff831161059c576020808501948460051b01011161059c57565b60ff5f199116019060ff82116107a157565b6080810190811067ffffffffffffffff82111761057d57604052565b90601f8019910116810190811067ffffffffffffffff82111761057d57604052565b604051906040820182811067ffffffffffffffff82111761057d576040526001546001600160801b038116835260801c6020830152565b6004549081815260208091019160045f525f80516020611c80833981519152915f905b828210611522575050505090565b83546001600160a01b031685529384019360019384019390910190611514565b6004549081815260208091019160045f525f80516020611c80833981519152915f905b828210611573575050505090565b83546001600160a01b031685529384019360019384019390910190611565565b9190916001600160801b03808094169116019182116107a157565b67ffffffffffffffff811161057d5760051b60200190565b906040516115d38161147c565b82546001600160a01b038116825260a081901c60ff16602083015260a81c63ffffffff166040820152600192909201546060830152565b81835290916001600160fb1b03831161059c5760209260051b809284830137010190565b60025f541461163d5760025f55565b604051633ee5aeb560e01b8152600490fd5b80518210156113b55760209160051b010190565b6040519061167b8261167481611542565b0383611498565b8151915f5b83811061168f57505050505f90565b6001600160a01b03806116a2838561164f565b5116908416146116b457600101611680565b50505050600190565b6116c56114ba565b6116f56001600160801b03916ffffffffffffffffffffffffffffffffe83602083015116915160011b1690611593565b16421190565b6005545f6005558061170a5750565b60016001600160ff1b03821682036107a15760055f527f036b6384b5eca791c62761152d0c79bb0604c104a5fb6f4eb0703f3154bb3db09160011b8201915b82811061175557505050565b5f80825582820155600201611749565b6003546002811061178f576005811061178957600a1161178457600590565b600390565b50600290565b50600190565b60035480156117af5760011c600181018091116107a15790565b505f90565b60035480156117e1575f19016117c981611393565b81546001600160a01b03600392831b1b191690915555565b634e487b7160e01b5f52603160045260245ffd5b60045490600160401b82101561057d5761076e82600161181894016004556113c9565b565b80156107a1575f190190565b90611830826115ae565b61183d6040519182611498565b828152809261184e601f19916115ae565b0190602036910137565b5f1981146107a15760010190565b60408051908160035480825283602080930160035f525f80516020611c60833981519152925f5b858282106118ee575050506118a492500384611498565b8251925f5b8481106118b7575050505050565b6001906001600160a01b036118cc828561164f565b51165f52600784525f8581205560088452845f2060ff198154169055016118a9565b85546001600160a01b031684526001958601958995509301920161188d565b6004545f6004558061191c5750565b60045f525f80516020611c80833981519152908101905b81811061193e575050565b5f8155600101611933565b600390600354908115611c545761195e611765565b91828110611c4c575b61196f61190d565b61197881611826565b915f5b828110611c225750600b92600b5490600a54915f19804301964388116107a1576040948551936020998a8601918252428887015260609244606088015260808701524060a086015260a0855260c085019467ffffffffffffffff958181108782111761057d578852519020600b55875b60018111611b8c5750505050505f93600a54600381115f14611b845760021981019081116107a157935b5f5b82811080611b7b575b15611a77576001600160a01b03611a37828661164f565b5116805f526009895286865f205411611a5a575b50611a5590611858565b611a17565b611a559197611a6b611a70926117f5565b611858565b9690611a4b565b5090965f5b88811080611b72575b15611b2d576001600160a01b0380611a9d838761164f565b511690815f5260098a5287875f20541115611ac3575b5050611abe90611858565b611a7c565b6004545f9182848f5b848310611afd575b505050505015611ae5575b80611ab3565b611abe9197611a6b611af6926117f5565b9690611adf565b8390611b08846113c9565b9054911b1c1614611b1d57600101848f611acc565b5050505060015f8080848f611ad4565b505096505093505050611b6d7f5a67d50d80c07ddacffffa43d630a2de733fe87ffa46a8c0d5fe3e3dcd0b8e6e91600a5493519181839283528201611542565b0390a2565b50818710611a85565b50888710611a20565b505f93611a15565b825487518b810191825282898201528881528381018181108882111761057d5789525190208084558115611c0e57819006906001600160a01b0380611bd1848a61164f565b5116908683018381116107a157611c0994611bfc611c0393611bf3848e61164f565b5116918c61164f565b528961164f565b5261181a565b6119eb565b634e487b7160e01b5f52601260045260245ffd5b80611c2e600192611393565b838060a01b03915490891b1c16611c45828761164f565b520161197b565b915081611967565b91505061181861190d56fec2575a0e9e593c00f959f8c92f12db2869c3395a3b0502d05e2516446f71f85b8a35acfbc15ff81a39ae7d344fd709f28e8600b4aa8c65c6b64bfe7fe36bd19ba2646970667358221220c8f85d4e11ff8c0ca056b489d57214a3d9fc8c69f633f0b7ff98d57acb60f04664736f6c63430008160033","linkReferences":{}},"methodIdentifiers":{"addValidator()":"b1afae07","createProposal(bytes32)":"2542bf06","currentProposals(uint256)":"bd423184","currentRoundNumber()":"9c4780d8","currentRoundValidators(uint256)":"e8bb5946","executeProposal(uint8,bytes32,uint256,address[],bytes32[],bytes32,bytes32)":"bff05f45","getCurrentProposals()":"8105f3b6","getCurrentRoundInfo()":"747dff42","getCurrentRoundValidators()":"9d54bdc1","getNumProposals()":"798974dd","getProposal(uint8)":"dac001fe","getRequiredApprovals()":"8b1e24ab","getState()":"1865c57d","getValidatorActivity(address)":"3eeb907b","getValidatorCount()":"7071688a","getValidators()":"b7ab4db5","hasSubmittedProposal(address)":"9a171629","isProposalReady(uint8)":"9c5bc49e","isRoundExpired()":"6b6f3cd9","isValidator(address)":"facd743b","nextProposalId()":"2ab09d14","removeValidator()":"7f77403d","timeConfig()":"89bfe549","updateTiming(uint256)":"371dcdf2","validatorLastActiveRound(address)":"502e1223","validatorVote(address)":"98e88c95","validators(uint256)":"35aa2e44","voteForProposal(uint8)":"0f42f3c9"},"id":53}