{"abi":[{"type":"constructor","inputs":[{"name":"emissionMultiplier","type":"uint256","internalType":"uint256"},{"name":"_genesisNodes","type":"address[]","internalType":"address[]"}],"stateMutability":"nonpayable"},{"type":"receive","stateMutability":"payable"},{"type":"function","name":"CLOCK_MODE","inputs":[],"outputs":[{"name":"","type":"string","internalType":"string"}],"stateMutability":"view"},{"type":"function","name":"DOMAIN_SEPARATOR","inputs":[],"outputs":[{"name":"","type":"bytes32","internalType":"bytes32"}],"stateMutability":"view"},{"type":"function","name":"allowance","inputs":[{"name":"owner","type":"address","internalType":"address"},{"name":"spender","type":"address","internalType":"address"}],"outputs":[{"name":"","type":"uint256","internalType":"uint256"}],"stateMutability":"view"},{"type":"function","name":"approve","inputs":[{"name":"spender","type":"address","internalType":"address"},{"name":"value","type":"uint256","internalType":"uint256"}],"outputs":[{"name":"","type":"bool","internalType":"bool"}],"stateMutability":"nonpayable"},{"type":"function","name":"balanceOf","inputs":[{"name":"account","type":"address","internalType":"address"}],"outputs":[{"name":"","type":"uint256","internalType":"uint256"}],"stateMutability":"view"},{"type":"function","name":"batchClaimMerkleRewards","inputs":[{"name":"_distributionIds","type":"uint256[]","internalType":"uint256[]"},{"name":"_capacities","type":"uint256[]","internalType":"uint256[]"},{"name":"_merkleProofs","type":"bytes32[][]","internalType":"bytes32[][]"}],"outputs":[],"stateMutability":"nonpayable"},{"type":"function","name":"checkpoints","inputs":[{"name":"account","type":"address","internalType":"address"},{"name":"pos","type":"uint32","internalType":"uint32"}],"outputs":[{"name":"","type":"tuple","internalType":"struct Checkpoints.Checkpoint208","components":[{"name":"_key","type":"uint48","internalType":"uint48"},{"name":"_value","type":"uint208","internalType":"uint208"}]}],"stateMutability":"view"},{"type":"function","name":"claimMerkleRewards","inputs":[{"name":"_distributionId","type":"uint256","internalType":"uint256"},{"name":"_capacity","type":"uint256","internalType":"uint256"},{"name":"_merkleProof","type":"bytes32[]","internalType":"bytes32[]"}],"outputs":[],"stateMutability":"nonpayable"},{"type":"function","name":"clock","inputs":[],"outputs":[{"name":"","type":"uint48","internalType":"uint48"}],"stateMutability":"view"},{"type":"function","name":"createMerkleDistribution","inputs":[{"name":"_merkleRoot","type":"bytes32","internalType":"bytes32"},{"name":"_totalCapacity","type":"uint256","internalType":"uint256"},{"name":"_approvedValidators","type":"address[]","internalType":"address[]"},{"name":"_payments","type":"tuple","internalType":"struct SmartnodesERC20.PaymentAmounts","components":[{"name":"sno","type":"uint128","internalType":"uint128"},{"name":"eth","type":"uint128","internalType":"uint128"}]},{"name":"_dustValidator","type":"address","internalType":"address"}],"outputs":[],"stateMutability":"nonpayable"},{"type":"function","name":"decimals","inputs":[],"outputs":[{"name":"","type":"uint8","internalType":"uint8"}],"stateMutability":"view"},{"type":"function","name":"delegate","inputs":[{"name":"delegatee","type":"address","internalType":"address"}],"outputs":[],"stateMutability":"nonpayable"},{"type":"function","name":"delegateBySig","inputs":[{"name":"delegatee","type":"address","internalType":"address"},{"name":"nonce","type":"uint256","internalType":"uint256"},{"name":"expiry","type":"uint256","internalType":"uint256"},{"name":"v","type":"uint8","internalType":"uint8"},{"name":"r","type":"bytes32","internalType":"bytes32"},{"name":"s","type":"bytes32","internalType":"bytes32"}],"outputs":[],"stateMutability":"nonpayable"},{"type":"function","name":"delegates","inputs":[{"name":"account","type":"address","internalType":"address"}],"outputs":[{"name":"","type":"address","internalType":"address"}],"stateMutability":"view"},{"type":"function","name":"doubleDistributionInterval","inputs":[],"outputs":[],"stateMutability":"nonpayable"},{"type":"function","name":"eip712Domain","inputs":[],"outputs":[{"name":"fields","type":"bytes1","internalType":"bytes1"},{"name":"name","type":"string","internalType":"string"},{"name":"version","type":"string","internalType":"string"},{"name":"chainId","type":"uint256","internalType":"uint256"},{"name":"verifyingContract","type":"address","internalType":"address"},{"name":"salt","type":"bytes32","internalType":"bytes32"},{"name":"extensions","type":"uint256[]","internalType":"uint256[]"}],"stateMutability":"view"},{"type":"function","name":"escrowEthPayment","inputs":[{"name":"_user","type":"address","internalType":"address"},{"name":"_payment","type":"uint256","internalType":"uint256"}],"outputs":[],"stateMutability":"payable"},{"type":"function","name":"escrowPayment","inputs":[{"name":"_user","type":"address","internalType":"address"},{"name":"_payment","type":"uint256","internalType":"uint256"}],"outputs":[],"stateMutability":"nonpayable"},{"type":"function","name":"getCurrentEra","inputs":[],"outputs":[{"name":"","type":"uint256","internalType":"uint256"}],"stateMutability":"view"},{"type":"function","name":"getEmissionRate","inputs":[],"outputs":[{"name":"","type":"uint256","internalType":"uint256"}],"stateMutability":"view"},{"type":"function","name":"getEscrowedPayments","inputs":[{"name":"_user","type":"address","internalType":"address"}],"outputs":[{"name":"","type":"tuple","internalType":"struct SmartnodesERC20.PaymentAmounts","components":[{"name":"sno","type":"uint128","internalType":"uint128"},{"name":"eth","type":"uint128","internalType":"uint128"}]}],"stateMutability":"view"},{"type":"function","name":"getEthBreakdown","inputs":[],"outputs":[{"name":"","type":"tuple","internalType":"struct SmartnodesERC20.EthBreakdown","components":[{"name":"totalContractEth","type":"uint256","internalType":"uint256"},{"name":"unclaimedEth","type":"uint256","internalType":"uint256"},{"name":"escrowedEth","type":"uint256","internalType":"uint256"},{"name":"availableEth","type":"uint256","internalType":"uint256"}]}],"stateMutability":"view"},{"type":"function","name":"getLockInfo","inputs":[{"name":"user","type":"address","internalType":"address"}],"outputs":[{"name":"","type":"tuple","internalType":"struct SmartnodesERC20.LockedTokens","components":[{"name":"locked","type":"bool","internalType":"bool"},{"name":"isValidator","type":"bool","internalType":"bool"},{"name":"unlockTime","type":"uint128","internalType":"uint128"}]}],"stateMutability":"view"},{"type":"function","name":"getPastTotalSupply","inputs":[{"name":"timepoint","type":"uint256","internalType":"uint256"}],"outputs":[{"name":"","type":"uint256","internalType":"uint256"}],"stateMutability":"view"},{"type":"function","name":"getPastVotes","inputs":[{"name":"account","type":"address","internalType":"address"},{"name":"timepoint","type":"uint256","internalType":"uint256"}],"outputs":[{"name":"","type":"uint256","internalType":"uint256"}],"stateMutability":"view"},{"type":"function","name":"getSmartnodesCore","inputs":[],"outputs":[{"name":"","type":"address","internalType":"address"}],"stateMutability":"view"},{"type":"function","name":"getSupplyBreakdown","inputs":[],"outputs":[{"name":"_totalSupply","type":"uint256","internalType":"uint256"},{"name":"_circulating","type":"uint256","internalType":"uint256"},{"name":"_locked","type":"uint256","internalType":"uint256"},{"name":"_unclaimed","type":"uint256","internalType":"uint256"},{"name":"_escrowed","type":"uint256","internalType":"uint256"},{"name":"_stateTime","type":"uint256","internalType":"uint256"},{"name":"_stateReward","type":"uint256","internalType":"uint256"}],"stateMutability":"view"},{"type":"function","name":"getVotes","inputs":[{"name":"account","type":"address","internalType":"address"}],"outputs":[{"name":"","type":"uint256","internalType":"uint256"}],"stateMutability":"view"},{"type":"function","name":"halveDistributionInterval","inputs":[],"outputs":[],"stateMutability":"nonpayable"},{"type":"function","name":"isLocked","inputs":[{"name":"user","type":"address","internalType":"address"}],"outputs":[{"name":"","type":"bool","internalType":"bool"}],"stateMutability":"view"},{"type":"function","name":"lockTokens","inputs":[{"name":"_user","type":"address","internalType":"address"},{"name":"_isValidator","type":"bool","internalType":"bool"}],"outputs":[],"stateMutability":"nonpayable"},{"type":"function","name":"name","inputs":[],"outputs":[{"name":"","type":"string","internalType":"string"}],"stateMutability":"view"},{"type":"function","name":"nonces","inputs":[{"name":"owner","type":"address","internalType":"address"}],"outputs":[{"name":"","type":"uint256","internalType":"uint256"}],"stateMutability":"view"},{"type":"function","name":"numCheckpoints","inputs":[{"name":"account","type":"address","internalType":"address"}],"outputs":[{"name":"","type":"uint32","internalType":"uint32"}],"stateMutability":"view"},{"type":"function","name":"permit","inputs":[{"name":"owner","type":"address","internalType":"address"},{"name":"spender","type":"address","internalType":"address"},{"name":"value","type":"uint256","internalType":"uint256"},{"name":"deadline","type":"uint256","internalType":"uint256"},{"name":"v","type":"uint8","internalType":"uint8"},{"name":"r","type":"bytes32","internalType":"bytes32"},{"name":"s","type":"bytes32","internalType":"bytes32"}],"outputs":[],"stateMutability":"nonpayable"},{"type":"function","name":"releaseEscrowedEthPayment","inputs":[{"name":"_user","type":"address","internalType":"address"},{"name":"_amount","type":"uint256","internalType":"uint256"}],"outputs":[],"stateMutability":"nonpayable"},{"type":"function","name":"releaseEscrowedPayment","inputs":[{"name":"_user","type":"address","internalType":"address"},{"name":"_amount","type":"uint256","internalType":"uint256"}],"outputs":[],"stateMutability":"nonpayable"},{"type":"function","name":"s_claimed","inputs":[{"name":"","type":"uint256","internalType":"uint256"},{"name":"","type":"address","internalType":"address"}],"outputs":[{"name":"","type":"bool","internalType":"bool"}],"stateMutability":"view"},{"type":"function","name":"s_coreSet","inputs":[],"outputs":[{"name":"","type":"bool","internalType":"bool"}],"stateMutability":"view"},{"type":"function","name":"s_currentDistributionId","inputs":[],"outputs":[{"name":"","type":"uint256","internalType":"uint256"}],"stateMutability":"view"},{"type":"function","name":"s_dao","inputs":[],"outputs":[{"name":"","type":"address","internalType":"address"}],"stateMutability":"view"},{"type":"function","name":"s_daoSet","inputs":[],"outputs":[{"name":"","type":"bool","internalType":"bool"}],"stateMutability":"view"},{"type":"function","name":"s_distributionInterval","inputs":[],"outputs":[{"name":"","type":"uint256","internalType":"uint256"}],"stateMutability":"view"},{"type":"function","name":"s_distributions","inputs":[{"name":"","type":"uint256","internalType":"uint256"}],"outputs":[{"name":"merkleRoot","type":"bytes32","internalType":"bytes32"},{"name":"workerReward","type":"tuple","internalType":"struct SmartnodesERC20.PaymentAmounts","components":[{"name":"sno","type":"uint128","internalType":"uint128"},{"name":"eth","type":"uint128","internalType":"uint128"}]},{"name":"totalCapacity","type":"uint256","internalType":"uint256"},{"name":"active","type":"bool","internalType":"bool"},{"name":"timestamp","type":"uint256","internalType":"uint256"}],"stateMutability":"view"},{"type":"function","name":"s_lastDistributionTime","inputs":[],"outputs":[{"name":"","type":"uint256","internalType":"uint256"}],"stateMutability":"view"},{"type":"function","name":"s_smartnodesCoordinator","inputs":[],"outputs":[{"name":"","type":"address","internalType":"contract ISmartnodesCoordinator"}],"stateMutability":"view"},{"type":"function","name":"s_smartnodesCore","inputs":[],"outputs":[{"name":"","type":"address","internalType":"contract ISmartnodesCore"}],"stateMutability":"view"},{"type":"function","name":"s_totalETHDeposited","inputs":[],"outputs":[{"name":"","type":"uint256","internalType":"uint256"}],"stateMutability":"view"},{"type":"function","name":"s_totalETHWithdrawn","inputs":[],"outputs":[{"name":"","type":"uint256","internalType":"uint256"}],"stateMutability":"view"},{"type":"function","name":"s_totalEscrowed","inputs":[],"outputs":[{"name":"sno","type":"uint128","internalType":"uint128"},{"name":"eth","type":"uint128","internalType":"uint128"}],"stateMutability":"view"},{"type":"function","name":"s_totalLocked","inputs":[],"outputs":[{"name":"","type":"uint256","internalType":"uint256"}],"stateMutability":"view"},{"type":"function","name":"s_totalUnclaimed","inputs":[],"outputs":[{"name":"sno","type":"uint128","internalType":"uint128"},{"name":"eth","type":"uint128","internalType":"uint128"}],"stateMutability":"view"},{"type":"function","name":"s_userLockAmount","inputs":[],"outputs":[{"name":"","type":"uint256","internalType":"uint256"}],"stateMutability":"view"},{"type":"function","name":"s_validatorLockAmount","inputs":[],"outputs":[{"name":"","type":"uint256","internalType":"uint256"}],"stateMutability":"view"},{"type":"function","name":"setDAO","inputs":[{"name":"_dao","type":"address","internalType":"address"}],"outputs":[],"stateMutability":"nonpayable"},{"type":"function","name":"setSmartnodes","inputs":[{"name":"_smartnodesCore","type":"address","internalType":"address"},{"name":"_smartnodesCoordinator","type":"address","internalType":"address"}],"outputs":[],"stateMutability":"nonpayable"},{"type":"function","name":"setUserLockAmount","inputs":[{"name":"_newAmount","type":"uint256","internalType":"uint256"}],"outputs":[],"stateMutability":"nonpayable"},{"type":"function","name":"setValidatorLockAmount","inputs":[{"name":"_newAmount","type":"uint256","internalType":"uint256"}],"outputs":[],"stateMutability":"nonpayable"},{"type":"function","name":"symbol","inputs":[],"outputs":[{"name":"","type":"string","internalType":"string"}],"stateMutability":"view"},{"type":"function","name":"totalSupply","inputs":[],"outputs":[{"name":"","type":"uint256","internalType":"uint256"}],"stateMutability":"view"},{"type":"function","name":"transfer","inputs":[{"name":"to","type":"address","internalType":"address"},{"name":"value","type":"uint256","internalType":"uint256"}],"outputs":[{"name":"","type":"bool","internalType":"bool"}],"stateMutability":"nonpayable"},{"type":"function","name":"transferFrom","inputs":[{"name":"from","type":"address","internalType":"address"},{"name":"to","type":"address","internalType":"address"},{"name":"value","type":"uint256","internalType":"uint256"}],"outputs":[{"name":"","type":"bool","internalType":"bool"}],"stateMutability":"nonpayable"},{"type":"function","name":"unlockTokens","inputs":[{"name":"_user","type":"address","internalType":"address"}],"outputs":[],"stateMutability":"nonpayable"},{"type":"event","name":"Approval","inputs":[{"name":"owner","type":"address","indexed":true,"internalType":"address"},{"name":"spender","type":"address","indexed":true,"internalType":"address"},{"name":"value","type":"uint256","indexed":false,"internalType":"uint256"}],"anonymous":false},{"type":"event","name":"DAORewardsDistributed","inputs":[{"name":"distributionId","type":"uint256","indexed":true,"internalType":"uint256"},{"name":"snoAmount","type":"uint256","indexed":false,"internalType":"uint256"},{"name":"ethAmount","type":"uint256","indexed":false,"internalType":"uint256"}],"anonymous":false},{"type":"event","name":"DAOSet","inputs":[{"name":"dao","type":"address","indexed":true,"internalType":"address"}],"anonymous":false},{"type":"event","name":"DelegateChanged","inputs":[{"name":"delegator","type":"address","indexed":true,"internalType":"address"},{"name":"fromDelegate","type":"address","indexed":true,"internalType":"address"},{"name":"toDelegate","type":"address","indexed":true,"internalType":"address"}],"anonymous":false},{"type":"event","name":"DelegateVotesChanged","inputs":[{"name":"delegate","type":"address","indexed":true,"internalType":"address"},{"name":"previousVotes","type":"uint256","indexed":false,"internalType":"uint256"},{"name":"newVotes","type":"uint256","indexed":false,"internalType":"uint256"}],"anonymous":false},{"type":"event","name":"DistributionIntervalUpdated","inputs":[{"name":"oldInterval","type":"uint256","indexed":false,"internalType":"uint256"},{"name":"newInterval","type":"uint256","indexed":false,"internalType":"uint256"}],"anonymous":false},{"type":"event","name":"EIP712DomainChanged","inputs":[],"anonymous":false},{"type":"event","name":"ETHDeposited","inputs":[{"name":"from","type":"address","indexed":true,"internalType":"address"},{"name":"amount","type":"uint256","indexed":false,"internalType":"uint256"}],"anonymous":false},{"type":"event","name":"ETHWithdrawn","inputs":[{"name":"to","type":"address","indexed":true,"internalType":"address"},{"name":"amount","type":"uint256","indexed":false,"internalType":"uint256"}],"anonymous":false},{"type":"event","name":"EscrowReleased","inputs":[{"name":"user","type":"address","indexed":true,"internalType":"address"},{"name":"amount","type":"uint256","indexed":false,"internalType":"uint256"}],"anonymous":false},{"type":"event","name":"EthEscrowReleased","inputs":[{"name":"user","type":"address","indexed":true,"internalType":"address"},{"name":"amount","type":"uint256","indexed":false,"internalType":"uint256"}],"anonymous":false},{"type":"event","name":"EthPaymentEscrowed","inputs":[{"name":"user","type":"address","indexed":true,"internalType":"address"},{"name":"payment","type":"uint256","indexed":false,"internalType":"uint256"}],"anonymous":false},{"type":"event","name":"EthRewardsClaimed","inputs":[{"name":"user","type":"address","indexed":true,"internalType":"address"},{"name":"amount","type":"uint256","indexed":false,"internalType":"uint256"}],"anonymous":false},{"type":"event","name":"MerkleDistributionCreated","inputs":[{"name":"distributionId","type":"uint256","indexed":true,"internalType":"uint256"},{"name":"merkleRoot","type":"bytes32","indexed":false,"internalType":"bytes32"},{"name":"totalSnoRewards","type":"uint256","indexed":false,"internalType":"uint256"},{"name":"totalEthRewards","type":"uint256","indexed":false,"internalType":"uint256"},{"name":"timestamp","type":"uint256","indexed":false,"internalType":"uint256"}],"anonymous":false},{"type":"event","name":"PaymentEscrowed","inputs":[{"name":"user","type":"address","indexed":true,"internalType":"address"},{"name":"payment","type":"uint256","indexed":false,"internalType":"uint256"}],"anonymous":false},{"type":"event","name":"SmartnodesSet","inputs":[{"name":"coreContract","type":"address","indexed":true,"internalType":"address"},{"name":"coordinatorContract","type":"address","indexed":true,"internalType":"address"}],"anonymous":false},{"type":"event","name":"TokenRewardsClaimed","inputs":[{"name":"user","type":"address","indexed":true,"internalType":"address"},{"name":"amount","type":"uint256","indexed":false,"internalType":"uint256"}],"anonymous":false},{"type":"event","name":"TokensLocked","inputs":[{"name":"user","type":"address","indexed":true,"internalType":"address"},{"name":"isValidator","type":"bool","indexed":false,"internalType":"bool"},{"name":"amount","type":"uint256","indexed":false,"internalType":"uint256"}],"anonymous":false},{"type":"event","name":"TokensUnlocked","inputs":[{"name":"user","type":"address","indexed":true,"internalType":"address"},{"name":"isValidator","type":"bool","indexed":false,"internalType":"bool"},{"name":"amount","type":"uint256","indexed":false,"internalType":"uint256"}],"anonymous":false},{"type":"event","name":"Transfer","inputs":[{"name":"from","type":"address","indexed":true,"internalType":"address"},{"name":"to","type":"address","indexed":true,"internalType":"address"},{"name":"value","type":"uint256","indexed":false,"internalType":"uint256"}],"anonymous":false},{"type":"event","name":"UnlockInitiated","inputs":[{"name":"user","type":"address","indexed":true,"internalType":"address"},{"name":"unlockTime","type":"uint256","indexed":false,"internalType":"uint256"}],"anonymous":false},{"type":"event","name":"UserLockAmountUpdated","inputs":[{"name":"oldAmount","type":"uint256","indexed":false,"internalType":"uint256"},{"name":"newAmount","type":"uint256","indexed":false,"internalType":"uint256"}],"anonymous":false},{"type":"event","name":"ValidatorLockAmountUpdated","inputs":[{"name":"oldAmount","type":"uint256","indexed":false,"internalType":"uint256"},{"name":"newAmount","type":"uint256","indexed":false,"internalType":"uint256"}],"anonymous":false},{"type":"event","name":"ValidatorRewardsDistributed","inputs":[{"name":"distributionId","type":"uint256","indexed":true,"internalType":"uint256"},{"name":"validators","type":"address[]","indexed":false,"internalType":"address[]"},{"name":"totalSno","type":"uint256","indexed":false,"internalType":"uint256"},{"name":"totalEth","type":"uint256","indexed":false,"internalType":"uint256"}],"anonymous":false},{"type":"error","name":"CheckpointUnorderedInsertion","inputs":[]},{"type":"error","name":"ECDSAInvalidSignature","inputs":[]},{"type":"error","name":"ECDSAInvalidSignatureLength","inputs":[{"name":"length","type":"uint256","internalType":"uint256"}]},{"type":"error","name":"ECDSAInvalidSignatureS","inputs":[{"name":"s","type":"bytes32","internalType":"bytes32"}]},{"type":"error","name":"ERC20ExceededSafeSupply","inputs":[{"name":"increasedSupply","type":"uint256","internalType":"uint256"},{"name":"cap","type":"uint256","internalType":"uint256"}]},{"type":"error","name":"ERC20InsufficientAllowance","inputs":[{"name":"spender","type":"address","internalType":"address"},{"name":"allowance","type":"uint256","internalType":"uint256"},{"name":"needed","type":"uint256","internalType":"uint256"}]},{"type":"error","name":"ERC20InsufficientBalance","inputs":[{"name":"sender","type":"address","internalType":"address"},{"name":"balance","type":"uint256","internalType":"uint256"},{"name":"needed","type":"uint256","internalType":"uint256"}]},{"type":"error","name":"ERC20InvalidApprover","inputs":[{"name":"approver","type":"address","internalType":"address"}]},{"type":"error","name":"ERC20InvalidReceiver","inputs":[{"name":"receiver","type":"address","internalType":"address"}]},{"type":"error","name":"ERC20InvalidSender","inputs":[{"name":"sender","type":"address","internalType":"address"}]},{"type":"error","name":"ERC20InvalidSpender","inputs":[{"name":"spender","type":"address","internalType":"address"}]},{"type":"error","name":"ERC2612ExpiredSignature","inputs":[{"name":"deadline","type":"uint256","internalType":"uint256"}]},{"type":"error","name":"ERC2612InvalidSigner","inputs":[{"name":"signer","type":"address","internalType":"address"},{"name":"owner","type":"address","internalType":"address"}]},{"type":"error","name":"ERC5805FutureLookup","inputs":[{"name":"timepoint","type":"uint256","internalType":"uint256"},{"name":"clock","type":"uint48","internalType":"uint48"}]},{"type":"error","name":"ERC6372InconsistentClock","inputs":[]},{"type":"error","name":"InvalidAccountNonce","inputs":[{"name":"account","type":"address","internalType":"address"},{"name":"currentNonce","type":"uint256","internalType":"uint256"}]},{"type":"error","name":"InvalidShortString","inputs":[]},{"type":"error","name":"ReentrancyGuardReentrantCall","inputs":[]},{"type":"error","name":"SafeCastOverflowedUintDowncast","inputs":[{"name":"bits","type":"uint8","internalType":"uint8"},{"name":"value","type":"uint256","internalType":"uint256"}]},{"type":"error","name":"StringTooLong","inputs":[{"name":"str","type":"string","internalType":"string"}]},{"type":"error","name":"Token__AlreadyLocked","inputs":[]},{"type":"error","name":"Token__CoreAlreadySet","inputs":[]},{"type":"error","name":"Token__CoreNotSet","inputs":[]},{"type":"error","name":"Token__DAOAlreadySet","inputs":[]},{"type":"error","name":"Token__DAONotSet","inputs":[]},{"type":"error","name":"Token__DistributionNotActive","inputs":[]},{"type":"error","name":"Token__DistributionTooEarly","inputs":[]},{"type":"error","name":"Token__ETHTransferFailed","inputs":[]},{"type":"error","name":"Token__InsufficientBalance","inputs":[]},{"type":"error","name":"Token__InvalidAddress","inputs":[]},{"type":"error","name":"Token__InvalidInterval","inputs":[]},{"type":"error","name":"Token__InvalidMerkleProof","inputs":[]},{"type":"error","name":"Token__InvalidMerkleRoot","inputs":[]},{"type":"error","name":"Token__InvalidValidatorLength","inputs":[]},{"type":"error","name":"Token__NotLocked","inputs":[]},{"type":"error","name":"Token__OnlyDAO","inputs":[]},{"type":"error","name":"Token__RewardsAlreadyClaimed","inputs":[]},{"type":"error","name":"Token__TransferFailed","inputs":[]},{"type":"error","name":"Token__UnlockPending","inputs":[]},{"type":"error","name":"VotesExpiredSignature","inputs":[{"name":"expiry","type":"uint256","internalType":"uint256"}]}],"bytecode":{"object":"0x6101a0604052346200008a576200002062000019620000f9565b9062000268565b60405161440690816200114982396080518161316f015260a0518161322a015260c05181613139015260e051816131be015261010051816131e4015261012051816112a2015261014051816112cb015261016051818181611d580152612489015261018051815050f35b5f80fd5b634e487b7160e01b5f52604160045260245ffd5b604081019081106001600160401b03821117620000be57604052565b6200008e565b601f909101601f19168101906001600160401b03821190821017620000be57604052565b60405190620000f782620000a2565b565b6200558f908138038060405193620001128286620000c4565b843982016040838203126200008a5782516020808501516001600160401b0395929391928682116200008a570181601f820112156200008a578051958611620000be578560051b90604051966200016c85840189620000c4565b875283808801928201019283116200008a578301905b8282106200019257505050509190565b81516001600160a01b03811681036200008a57815290830190830162000182565b60405190620001c282620000a2565b60018252565b60405190620001d782620000a2565b600f82526e29b6b0b93a3737b232b9aa37b5b2b760891b6020830152565b634e487b7160e01b5f52601160045260245ffd5b90610e1091808302928304036200021c57565b620001f5565b908160021b91808304600414901517156200021c57565b634e487b7160e01b5f52603260045260245ffd5b8051821015620002625760209160051b010190565b62000239565b62000272620001c8565b6200027c620001c8565b90604051906200028c82620000a2565b60038252602062534e4f60e81b81840152620002a7620001b3565b603160f81b828201908152855190959194916001600160401b038211620000be57620002e082620002da600354620004d1565b6200050c565b8390601f83116001146200043857926200032483620003aa9a9896946200032d94620003a59b99975f926200042c575b50508160011b915f199060031b1c19161790565b60035562000660565b620003388262000811565b6101205262000347836200091b565b61014052815191012060e052519020610100524660a0526200036862000a22565b6080523060c0526200037a6001600b55565b4261016052610180819052600d805460ff60a01b19169055600e805460ff60a01b1916905562000209565b601755565b620003be69d3c21bcecceda1000000600f55565b620003d168056bc75e2d63100000601055565b8051905f5b828110620003e357505050565b806200042562000407620003fa600194866200024d565b516001600160a01b031690565b6200041e62000418600f5462000222565b60011c90565b9062000749565b01620003d6565b015190505f8062000310565b60035f52601f19831691907fc2575a0e9e593c00f959f8c92f12db2869c3395a3b0502d05e2516446f71f85b925f5b818110620004b95750936200032d93620003a59a98969360019383620003aa9e9c9a9810620004a0575b505050811b0160035562000660565b01515f1960f88460031b161c191690555f808062000491565b92938760018192878601518155019501930162000467565b90600182811c9216801562000501575b6020831014620004ed57565b634e487b7160e01b5f52602260045260245ffd5b91607f1691620004e1565b601f811162000519575050565b60035f5260205f20906020601f840160051c8301931062000556575b601f0160051c01905b8181106200054a575050565b5f81556001016200053e565b909150819062000535565b601f81116200056e575050565b60045f5260205f20906020601f840160051c83019310620005ab575b601f0160051c01905b8181106200059f575050565b5f815560010162000593565b90915081906200058a565b601f8111620005c3575050565b60055f5260205f20906020601f840160051c8301931062000600575b601f0160051c01905b818110620005f4575050565b5f8155600101620005e8565b9091508190620005df565b601f811162000618575050565b60065f5260205f20906020601f840160051c8301931062000655575b601f0160051c01905b81811062000649575050565b5f81556001016200063d565b909150819062000634565b80519091906001600160401b038111620000be576200068c8162000686600454620004d1565b62000561565b602080601f8311600114620006c457508190620006bf93945f926200042c5750508160011b915f199060031b1c19161790565b600455565b60045f52601f198316949091907f8a35acfbc15ff81a39ae7d344fd709f28e8600b4aa8c65c6b64bfe7fe36bd19b925f905b8782106200073057505083600195961062000717575b505050811b01600455565b01515f1960f88460031b161c191690555f80806200070c565b80600185968294968601518155019501930190620006f6565b91906001600160a01b0383168015620007f9576002548281018091116200021c576002556001600160a01b0384165f90815260208181526040808320805486019055518481527fddf252ad1be2c89b69c2b068fc378daa952ba7f163c4a11628f55a4df523b3ef9190a3600254926001600160d01b038411620007d357620000f792935062000b2c565b604051630e58ae9360e11b8152600481018590526001600160d01b036024820152604490fd5b60405163ec442f0560e01b81525f6004820152602490fd5b90815160208082105f1462000831575050906200082e9062000ab1565b90565b6001600160401b038211620000be57620008588262000852600554620004d1565b620005b6565b602090601f831160011462000893575081906200088b93945f926200042c5750508160011b915f199060031b1c19161790565b60055560ff90565b60055f52601f198316949091907f036b6384b5eca791c62761152d0c79bb0604c104a5fb6f4eb0703f3154bb3db0925f905b87821062000902575050836001959610620008e9575b505050811b0160055560ff90565b01515f1960f88460031b161c191690555f8080620008db565b80600185968294968601518155019501930190620008c5565b90815160208082105f1462000938575050906200082e9062000ab1565b6001600160401b038211620000be576200095f8262000959600654620004d1565b6200060b565b602090601f83116001146200099a575081906200099293945f926200042c5750508160011b915f199060031b1c19161790565b60065560ff90565b60065f52601f198316949091907ff652222313e28459528d920b65115c16c04f3efc82aaedc97be59f3f377c0d3f925f905b87821062000a09575050836001959610620009f0575b505050811b0160065560ff90565b01515f1960f88460031b161c191690555f8080620009e2565b80600185968294968601518155019501930190620009cc565b60e051610100516040519060208201927f8b73c3c69bb8fe3d512ecc4cf759cc79239f7b179b0ffacaa9a75d522b39400f8452604083015260608201524660808201523060a082015260a0815260c0810181811060018060401b03821117620000be5760405251902090565b60208151910151906020811062000aa3575090565b5f199060200360031b1b1690565b601f81511162000acc5762000ac68162000a8e565b90511790565b6040519063305a27a960e01b82528160208060048301528251908160248401525f935b82851062000b12575050604492505f838284010152601f80199101168101030190fd5b848101820151868601604401529381019385935062000aef565b9062000b388162000c2e565b9165ffffffffffff80431162000c0f57600a548062000bde575062000b709062000b67620000f7955f62001114565b90431662000f50565b50506001600160a01b0390811690811562000bc1575b60086020527f5eff886ea0ce6ca488a3d6e336d6c0f75f46d19b42c06ce5ee98e42c96d256c7545f9283526040909220548116911662000d23565b62000bd662000bd08462000c2e565b62000c62565b505062000b86565b905f199180838101116200021c57620000f79562000b709362000b6792600a5f5260205f2001015460301c62001114565b6040516306dfcc6560e41b815260306004820152436024820152604490fd5b6001600160d01b039081811162000c43571690565b604490604051906306dfcc6560e41b825260d060048301526024820152fd5b65ffffffffffff80431162000c0f57600a548062000c8f575062000b6762000c8b925f6200112e565b9091565b5f199281848101116200021c57600a5f5292015f805160206200554f833981519152015462000c8b9262000b679160301c6200112e565b65ffffffffffff9081431162000c0f5780548062000cf9575062000cef62000c8b935f62001114565b9143169062001049565b5f199381858101116200021c5762000c8b9462000cef92845f5260205f2001015460301c62001114565b6001600160a01b0380831693929190811690818514158062000e82575b62000d4d575b5050505050565b8162000dc7575b50508262000d65575b808062000d46565b6001600160a01b03165f9081526009602052604090205f805160206200556f8339815191529162000da39162000d9c909162000c2e565b9062000cc6565b604080516001600160d01b039384168152919092166020820152a25f808062000d5d565b6001600160a01b03165f90815260096020526040902062000de88462000c2e565b9065ffffffffffff9081431162000c0f5780548062000e4657509062000e239162000cef5f805160206200556f833981519152945f6200112e565b604080516001600160d01b039384168152919092166020820152a25f8062000d54565b91905f199280848101116200021c575f805160206200556f8339815191529462000e239462000cef92845f5260205f2001015460301c6200112e565b5083151562000d40565b5f198101919082116200021c57565b600a549068010000000000000000821015620000be576001820180600a558210156200026257600a5f5280516020919091015160301b65ffffffffffff191665ffffffffffff91909116175f805160206200554f83398151915290910155565b90815468010000000000000000811015620000be576001810180845581101562000262575f9283526020928390208251929093015160301b65ffffffffffff191665ffffffffffff9290921691909117910155565b600a5491929180156200101b5762000f6c62000f839162000e8c565b600a5f525f805160206200554f8339815191520190565b9081549165ffffffffffff90818416918316808311620010095786920362000fcb5762000fc492509065ffffffffffff82549181199060301b169116179055565b60301c9190565b5050620010039062000fee62000fe0620000e8565b65ffffffffffff9092168252565b6001600160d01b038516602082015262000e9b565b62000fc4565b604051632520601d60e01b8152600490fd5b5062001044906200102f62000fe0620000e8565b6001600160d01b038416602082015262000e9b565b5f9190565b80549293928015620010ea57620010646200106f9162000e8c565b825f5260205f200190565b9182549265ffffffffffff918285169281168084116200100957879303620010b1575062000fc492509065ffffffffffff82549181199060301b169116179055565b9150506200100391620010d5620010c7620000e8565b65ffffffffffff9093168352565b6001600160d01b038616602083015262000efb565b50906200104491620010ff620010c7620000e8565b6001600160d01b038516602083015262000efb565b6001600160d01b03918216908216019081116200021c5790565b6001600160d01b03918216908216039081116200021c579056fe60806040526004361015610022575b3615610018575f80fd5b610020612bc1565b005b5f3560e01c8063012775911461040c57806306fdde0314610407578063095ea7b31461040257806312bc9f8c146103fd5780631342c727146103f857806318160ddd146103f35780631f763531146103ee57806323b872dd146103e95780632e54575d146103e4578063313ce567146103df5780633644e515146103da5780633a46b1a8146103d55780634a4fbeec146103d05780634b667916146103cb5780634bf5d7e9146103c657806353803211146103c1578063587cde1e146103bc5780635c19a95c146103b75780635dc437e3146103b2578063601c438d146103ad5780636b451ba9146103995780636fcfff45146103a857806370a08231146103a357806370e2709a1461039e578063714bd915146103995780637238ccdb1461039457806377bea8c51461038f5780637855328f1461038a5780637ecebe00146103855780638180c1c21461038057806384b0196e1461037b5780638b1297e0146103765780638e539e8c14610371578063918a93d11461036c57806391ddadf41461036757806395d89b4114610362578063961690171461035d5780639a3e13f0146103585780639ab24eb0146103535780639fb404131461034e578063a9059cbb14610349578063addfbd7614610344578063c0a77da91461033f578063c2227ac71461033a578063c3cda52014610335578063cb67f94814610330578063d25074cf1461032b578063d250b6cb14610326578063d505accf14610321578063dc8bde811461031c578063dd62ed3e14610317578063e21f2df814610312578063e73a914c1461030d578063ec5188b514610308578063f0c0189a14610303578063f1127ed8146102fe578063f1a9e631146102f9578063f63b7738146102f4578063f6a89727146102ef578063f721ed12146102ea578063f76dfeac146102e5578063f91c67ed146102e05763fd4f19ea0361000e5761232a565b612281565b612228565b612195565b612178565b612116565b6120f9565b612047565b612022565b611ffa565b611f6c565b611f4f565b611ef8565b611eb2565b611d7f565b611d3f565b611d22565b611b2c565b611a63565b611a26565b611a0c565b61198c565b611829565b6117f8565b6117b1565b6116cb565b61161e565b611579565b61154e565b611529565b611462565b611380565b61128a565b611215565b6111dd565b6110e4565b611096565b610fe7565b610f05565b610fca565b610f93565b610f2d565b610dc5565b610da8565b610d86565b610d4d565b610c0b565b610b7a565b610a5f565b610a22565b610949565b610927565b61090c565b6108bd565b6107e2565b61071d565b610700565b6106e3565b61065b565b61062a565b6104f4565b61041f565b5f91031261041b57565b5f80fd5b3461041b575f36600319011261041b5760025461043a612479565b906013549182820382811161049d576001600160801b0380601154169081830392831161049d57601254169081830392831161049d5760e09560175493604051968752602087015260408601526060850152608084015260a083015260c0820152f35b612352565b91908251928382525f5b8481106104cc575050825f602080949584010152601f8019910116010190565b6020818301810151848301820152016104ac565b9060206104f19281815201906104a2565b90565b3461041b575f36600319011261041b576040515f60035461051481612381565b808452906020906001908181169081156105aa5750600114610551575b61054d856105418187038261191d565b604051918291826104e0565b0390f35b60035f90815293507fc2575a0e9e593c00f959f8c92f12db2869c3395a3b0502d05e2516446f71f85b5b838510610597575050505081016020016105418261054d610531565b805486860184015293820193810161057b565b86955061054d9693506020925061054194915060ff191682840152151560051b8201019293610531565b600435906001600160a01b038216820361041b57565b602435906001600160a01b038216820361041b57565b60a435906001600160a01b038216820361041b57565b35906001600160a01b038216820361041b57565b3461041b57604036600319011261041b576106506106466105d4565b6024359033613772565b602060405160018152f35b3461041b57602036600319011261041b57600e54600435906001600160a01b0316806106c5575b601080549083905560408051918252602082018490527fed5bb45b5ea80d4d6d134cc17453fb509c42ac4ac7da4a2a68036b6f41184c4c9190819081015b0390a1005b33036106d1575f610682565b60405163077d5fb960e01b8152600490fd5b3461041b575f36600319011261041b576020601654604051908152f35b3461041b575f36600319011261041b576020600254604051908152f35b3461041b575f36600319011261041b57600e546001600160a01b0316806107d6575b50610748612bff565b61075660175460011c601755565b600d54610773906001600160a01b03165b6001600160a01b031690565b60175490803b1561041b57604051631b8ee6f960e11b815260048101839052905f908290818381602481015b03925af180156107d1576107b8575b6100206001600b55565b806107c56107cb92611863565b80610411565b806107ae565b6123d7565b33036106d1575f61073f565b3461041b57606036600319011261041b576107fb6105d4565b6108036105ea565b6001600160a01b0382165f9081526001602090815260408083203384529091529020604435919054925f19841061084b575b61083f9350612c22565b60405160018152602090f35b828410610867576108628361083f9503338361380b565b610835565b604051637dc7a0d960e11b81523360048201526024810185905260448101849052606490fd5b9181601f8401121561041b578235916001600160401b03831161041b576020808501948460051b01011161041b57565b3461041b57606036600319011261041b576044356001600160401b03811161041b576108f061090591369060040161088d565b906108f9612bff565b60243560043533612e11565b6001600b55005b3461041b575f36600319011261041b57602060405160128152f35b3461041b575f36600319011261041b576020610941613136565b604051908152f35b3461041b57604036600319011261041b576001600160a01b0361096a6105d4565b165f52600960205260405f20610981602435613250565b8154905f8291600584116109d4575b61099b935084613b02565b90816109b957505060205f5b6040516001600160d01b039091168152f35b6109c4602092612366565b905f52815f20015460301c6109a7565b91926109df81613971565b810390811161049d5761099b93855f5265ffffffffffff808360205f20015416908516105f14610a10575091610990565b929150610a1c906124cd565b90610990565b3461041b57602036600319011261041b576001600160a01b03610a436105d4565b165f52601b602052602060ff60405f2054166040519015158152f35b3461041b57606036600319011261041b576001600160401b0360043581811161041b57610a9090369060040161088d565b919060243582811161041b57610aaa90369060040161088d565b92909160443582811161041b57610ac590369060040161088d565b959091610ad0612bff565b858214801590610b70575b610b5e575f5b828110610af2576100206001600b55565b610afd8184846123f6565b3590610b0a8189896123f6565b359189821015610b5957600582811b870135601e198836030181121561041b5787019081359189831161041b576020839101911b3603811361041b57600194610b539333612e11565b01610ae1565b6123e2565b604051633682629560e11b8152600490fd5b5086821415610adb565b3461041b575f36600319011261041b57610b934361393f565b65ffffffffffff80610ba44361393f565b16911603610bf95761054d604051610bbb816118b1565b601d81527f6d6f64653d626c6f636b6e756d6265722666726f6d3d64656661756c7400000060208201526040519182916020835260208301906104a2565b6040516301bfc1c560e61b8152600490fd5b60408060031936011261041b57610c206105d4565b600c549091602435916001600160a01b039081168015610d3c573303610d2b578316928315610d2b5782158015610d22575b610d115791610d0c91610cfe610ce37f2e2b30c44aa6173c25ae27b0cd4614d3f9abaa2aa6da86969b0f6b25709edd4495610cd8610caa6001600160801b0387169260018060a01b03165f52601c60205260405f2090565b610cb883825460801c612406565b81546001600160801b031660809190911b6001600160801b031916179055565b60125460801c612406565b6001600160801b036012549181199060801b16911617601255565b519081529081906020820190565b0390a2005b815163e1c399a560e01b8152600490fd5b50823410610c52565b8151633682629560e11b8152600490fd5b825163bb4b979b60e01b8152600490fd5b3461041b57602036600319011261041b5760206001600160a01b0380610d716105d4565b165f526008825260405f205416604051908152f35b3461041b57602036600319011261041b57610020610da26105d4565b33613291565b3461041b575f36600319011261041b576020601554604051908152f35b3461041b5760408060031936011261041b57610ddf6105d4565b600c549091602435916001600160a01b039081168015610d3c573303610d2b578316928315610d2b5782158015610eca575b610d115791610d0c91610cfe610eae7fe327b247066bdf32cf2493778e3fce4339b69c1e379a3b0dc780779bf67fe15595610e9d610e696001600160801b0387169260018060a01b03165f52601c60205260405f2090565b610e8383610e7e83546001600160801b031690565b612421565b6001600160801b03166001600160801b0319825416179055565b6012546001600160801b0316612421565b6001600160801b03166001600160801b03196012541617601255565b5082610eff6001600160801b03610ef18460018060a01b03165f52601c60205260405f2090565b54166001600160801b031690565b10610e11565b3461041b575f36600319011261041b57600c546040516001600160a01b039091168152602090f35b3461041b57602036600319011261041b576001600160a01b03610f4e6105d4565b165f52600960205260405f205463ffffffff90818111610f745760209160405191168152f35b604490604051906306dfcc6560e41b8252602060048301526024820152fd5b3461041b57602036600319011261041b576001600160a01b03610fb46105d4565b165f525f602052602060405f2054604051908152f35b3461041b575f36600319011261041b576020601854604051908152f35b3461041b57602036600319011261041b5761054d6110036105d4565b6040905f8280516110138161187b565b828152826020820152015260018060a01b03165f52601b602052805f20906001600160801b038151926110458461187b565b5460ff81161515845260ff8160081c161515602085015260101c1681830152519182918291909160406001600160801b03816060840195805115158552602081015115156020860152015116910152565b3461041b57604036600319011261041b57602060ff6110d86110b66105ea565b6004355f52601a845260405f209060018060a01b03165f5260205260405f2090565b54166040519015158152f35b3461041b5760408060031936011261041b576110fe6105d4565b600c549091602435916001600160a01b039081168015610d3c573303610d2b578316928315610d2b57821580156111bc575b610d115791610d0c91610cfe610eae7fd00ba715ae3c46d053c474becf1eac7e6e95a328aa284790d807e1d8a0d9a5459561116c853083612c22565b6001600160a01b03165f908152601c602052604090206001600160801b038516906111ab90610e83836111a683546001600160801b031690565b612406565b6012546001600160801b0316612406565b506001600160a01b0381165f90815260208190526040902083905410611130565b3461041b57602036600319011261041b576001600160a01b036111fe6105d4565b165f526007602052602060405f2054604051908152f35b3461041b57602036600319011261041b57600e54600435906001600160a01b03168061127e575b600f80549083905560408051918252602082018490527f9c9b85b44c3f57e8968e60b806f2fdac5ccdb819a9eb784900cc23cbf80451679190819081016106c0565b33036106d1575f61123c565b3461041b575f36600319011261041b576113236112c67f0000000000000000000000000000000000000000000000000000000000000000613cb1565b6112ef7f0000000000000000000000000000000000000000000000000000000000000000613daf565b604051906112fc826118cc565b5f8252611331602091604051958695600f60f81b875260e0602088015260e08701906104a2565b9085820360408701526104a2565b4660608501523060808501525f60a085015283810360c0850152602080845192838152019301915f5b82811061136957505050500390f35b83518552869550938101939281019260010161135a565b3461041b5760408060031936011261041b5761139a6105d4565b600c549091602435916001600160a01b039081168015610d3c573303610d2b578316928315610d2b578215801561143e575b610d115791610d0c91610cfe610ce37f3356fc2afc21a405a1995355aed4bcb93f799b0b103e3c32c6035e9158dc3488956114336114246001600160801b0387169260018060a01b03165f52601c60205260405f2090565b610cb883610e7e835460801c90565b60125460801c612421565b506001600160a01b0381165f908152601c6020526040902054839060801c106113cc565b3461041b57602036600319011261041b5761147e600435613250565b600a54905f8291600584116114d0575b6114989350613a9c565b806114a957506040515f8152602090f35b6114b4602091612366565b600a5f525f805160206143b1833981519152015460301c6109a7565b91926114db81613971565b810390811161049d5761149893600a5f5265ffffffffffff80835f805160206143b1833981519152015416908516105f1461151757509161148e565b929150611523906124cd565b9061148e565b3461041b575f36600319011261041b57602060ff600e5460a01c166040519015158152f35b3461041b575f36600319011261041b5760206115694361393f565b65ffffffffffff60405191168152f35b3461041b575f36600319011261041b576040515f60045461159981612381565b808452906020906001908181169081156105aa57506001146115c55761054d856105418187038261191d565b60045f90815293507f8a35acfbc15ff81a39ae7d344fd709f28e8600b4aa8c65c6b64bfe7fe36bd19b5b83851061160b575050505081016020016105418261054d610531565b80548686018401529382019381016115ef565b3461041b575f36600319011261041b575f606060405161163d81611896565b828152826020820152826040820152015261054d4761165e60115460801c90565b60125460801c6116866001600160801b038093169261167d8486612374565b92168092612374565b9161168f61193e565b84815260208082019283526040808301948552606092830195865280519687529251908601529151908401529051908201529081906080820190565b3461041b57604036600319011261041b576116e46105d4565b6116ec6105ea565b600e5490916001600160a01b03918216806117a5575b5060ff600d5460a01c16611793578116918215610b5e57826bffffffffffffffffffffffff60a01b600c541617600c55169061175a8260018060a01b03166bffffffffffffffffffffffff60a01b600d541617600d55565b600d805460ff60a01b1916600160a01b1790557f83de200b1ed6a3409606cc977ec14552eb63af6b7323e3791825056342f2312e5f80a3005b60405163653ce49960e01b8152600490fd5b33036106d1575f611702565b3461041b57602036600319011261041b576001600160a01b036117d26105d4565b165f526009602052602060018060d01b036117ef60405f20613391565b16604051908152f35b3461041b575f36600319011261041b57601154604080516001600160801b038316815260809290921c602083015290f35b3461041b57604036600319011261041b576106506118456105d4565b6024359033612c22565b634e487b7160e01b5f52604160045260245ffd5b6001600160401b03811161187657604052565b61184f565b606081019081106001600160401b0382111761187657604052565b608081019081106001600160401b0382111761187657604052565b604081019081106001600160401b0382111761187657604052565b602081019081106001600160401b0382111761187657604052565b60a081019081106001600160401b0382111761187657604052565b60c081019081106001600160401b0382111761187657604052565b90601f801991011681019081106001600160401b0382111761187657604052565b6040519061194b82611896565b565b6040519061194b826118b1565b6040519061194b826118e7565b90604051611974816118b1565b91546001600160801b038116835260801c6020830152565b3461041b57602036600319011261041b576004355f52601960205260c060405f208054906119bc60018201611967565b9060028101546119f9600460ff600385015416930154936040519586526020860190602090816001600160801b0391828151168552015116910152565b60608401521515608083015260a0820152f35b3461041b575f36600319011261041b576020610941612479565b3461041b575f36600319011261041b576020601454604051908152f35b6064359060ff8216820361041b57565b6084359060ff8216820361041b57565b3461041b5760c036600319011261041b57611a7c6105d4565b60443590602435611a8b611a43565b834211611b1357611b0761002094611b0e926040519060208201927fe48329057bfd03d55e49b547132e39cffd9c1820ad7b9d4c5307691425d15adf845260018060a01b0388166040840152866060840152608083015260808252611aef826118e7565b611b0260a4359360843593519020613428565b61344e565b9182613466565b613291565b604051632341d78760e11b815260048101859052602490fd5b3461041b57602036600319011261041b57611b456105d4565b600c546001600160a01b039081168015611d10573303610b5e578116908115610b5e576001600160a01b0381165f908152601b6020526040902090611b92611b8e835460ff1690565b1590565b15611c7d5781546001600160801b038160101c168015611c6b57611bb5906124bd565b4210611c59577f4923eb765bbfdcb92d06db224c77f6826606231d7bee79a6d0668c3c0988895c92611c319160081c60ff1615611c4c57611c27600f5480945b611c09611c0483601354612374565b601355565b6001600160a01b0381165f908152601b602052604081205530612c22565b5460081c60ff1690565b60408051911515825260208201929092529081908101610d0c565b611c276010548094611bf5565b604051631441f76b60e31b8152600490fd5b6040516310818add60e31b8152600490fd5b50610d0c611cf682611cb47f77635f8f13ee1a01d11246347c649817c6ee9fa7620ce4c6adfa2452bfa162b29460ff198154169055565b805471ffffffffffffffffffffffffffffffff000019164260101b71ffffffffffffffffffffffffffffffff0000161781555460101c6001600160801b031690565b6040516001600160801b0390911681529081906020820190565b60405163bb4b979b60e01b8152600490fd5b3461041b575f36600319011261041b576020601754604051908152f35b3461041b575f36600319011261041b5760206301e133807f0000000000000000000000000000000000000000000000000000000000000000420304610941565b3461041b5760e036600319011261041b57611d986105d4565b611da06105ea565b60443590606435611daf611a53565b814211611e99576001600160a01b038581165f8181526007602090815260409182902080546001810190915582517f6e71edae12b1b97f4d1f60370fef10105fa2faae0126114a169c64845d6126c99281019283529283019390935292861660608201526080810187905260a081019190915260c080820194909452928352611e52929091611e3f60e08361191d565b611b0260c4359360a43593519020613428565b6001600160a01b0384811690821603611e6f575061002092613772565b6040516325c0072360e11b81526001600160a01b0391821660048201529084166024820152604490fd5b60405163313c898160e11b815260048101839052602490fd5b3461041b57604036600319011261041b57611ecb6105d4565b602435801515810361041b57600c546001600160a01b03168015611d10573303610b5e57610020916124e8565b3461041b57604036600319011261041b576020611f46611f166105d4565b611f1e6105ea565b6001600160a01b039182165f9081526001855260408082209290931681526020919091522090565b54604051908152f35b3461041b575f36600319011261041b576020601354604051908152f35b3461041b57602036600319011261041b57611f856105d4565b600e549060ff8260a01c16611fe8576001600160a01b0316908115610b5e5760ff60a01b1982166001600160a81b031990911617600160a01b17600e557f8aad84fcad50e723fa3bcf0fb32c5bea4c71078b77b9aedfa638f146f3a3f7b95f80a2005b60405163271270ff60e01b8152600490fd5b3461041b575f36600319011261041b57600d546040516001600160a01b039091168152602090f35b3461041b575f36600319011261041b57602060ff600d5460a01c166040519015158152f35b3461041b57604036600319011261041b576120606105d4565b6024359063ffffffff8216820361041b5761054d916120af916120816125fd565b5061208a6125fd565b506001600160a01b03165f9081526009602052604090206120a96125fd565b50613f99565b50604051906120bd826118b1565b5465ffffffffffff811680835260309190911c60209283019081526040805192835290516001600160d01b031692820192909252918291820190565b3461041b575f36600319011261041b576020601054604051908152f35b3461041b57602036600319011261041b5761212f6105d4565b6121376125fd565b5060018060a01b03165f52601c6020526040612154815f20611967565b61217682518092602090816001600160801b0391828151168552015116910152565bf35b3461041b575f36600319011261041b576020600f54604051908152f35b3461041b575f36600319011261041b57600e546001600160a01b03168061221c575b506121c0612bff565b6017548060011b908082046002149015171561049d576017819055600d546121f0906001600160a01b0316610767565b803b1561041b57604051631b8ee6f960e11b815260048101839052905f9082908183816024810161079f565b33036106d1575f6121b7565b3461041b575f36600319011261041b57601254604080516001600160801b038316815260809290921c602083015290f35b6001600160401b0381116118765760051b60200190565b604090606319011261041b57606490565b3461041b5760c036600319011261041b576044356001600160401b03811161041b573660238201121561041b578060040135906122bd82612259565b906122cb604051928361191d565b8282526020926024602084019160051b8301019136831161041b57602401905b82821061231357610020846122ff36612270565b612307610600565b91602435600435612615565b84809161231f84610616565b8152019101906122eb565b3461041b575f36600319011261041b57600e546040516001600160a01b039091168152602090f35b634e487b7160e01b5f52601160045260245ffd5b5f1981019190821161049d57565b9190820391821161049d57565b90600182811c921680156123af575b602083101461239b57565b634e487b7160e01b5f52602260045260245ffd5b91607f1691612390565b81156123c3570490565b634e487b7160e01b5f52601260045260245ffd5b6040513d5f823e3d90fd5b634e487b7160e01b5f52603260045260245ffd5b9190811015610b595760051b0190565b9190916001600160801b038080941691160191821161049d57565b6001600160801b03918216908216039190821161049d57565b9060038202918083046003149015171561049d57565b90600a820291808304600a149015171561049d57565b8181029291811591840414171561049d57565b610e106124b96124b06301e133807f00000000000000000000000000000000000000000000000000000000000000004203046133b9565b60175490612466565b0490565b9062127500820180921161049d57565b906001820180921161049d57565b9190820180921161049d57565b6001600160a01b038116918215610b5e5780156125f457600f54905b6001600160a01b0383165f908152602081905260409020829054106125e2576001600160a01b0383165f908152601b6020526040902092612546845460ff1690565b6125d057826125b49161259e84876125867fd282563949681e6cfdb94fd670bbab7a4b30fafa6b5da45661f03e04685d75ab99600160ff19825416179055565b9061ff00825491151560081b169061ff001916179055565b6125ad611c04836013546124db565b3090612c22565b604080519115158252602082019290925290819081015b0390a2565b6040516339ae9ed160e21b8152600490fd5b60405163e1c399a560e01b8152600490fd5b60105490612504565b6040519061260a826118b1565b5f6020838281520152565b600c549094939192906001600160a01b03168015611d10573303610b5e5761263b612bff565b60ff612648825160ff1690565b1615612b015761267a61266861265c612479565b61267461266886612b12565b6001600160801b031690565b906124db565b926126886020809401612b12565b6126a261269361194d565b6001600160801b039096168652565b6001600160801b039081168585018181529194908015159081612af7575b506125e2576126d0601654612b26565b956126da87601655565b6127036126686126fc6126f761266885516001600160801b031690565b61243a565b6064900490565b986127216126686126fc6126f761266888516001600160801b031690565b9461273c61272d61194d565b6001600160801b03909c168c52565b612752848c019687906001600160801b03169052565b61275a6125fd565b508061288657505061284e61287c996128417f0aaf6549779ef42fddc20bd28c3cd20c8e59d204a284de7da0eb6f80d00fa8949561280c8b98966127e16127d16127c36127b161285c9a516001600160801b031690565b88516001600160801b03165b90612421565b94516001600160801b031690565b89516001600160801b03166127bd565b906127fc6127ed61194d565b6001600160801b039095168552565b8301906001600160801b03169052565b985b600e546001600160a01b031683516001600160801b0316918061283889516001600160801b031690565b169216906134bc565b516001600160801b031690565b91516001600160801b031690565b604080516001600160801b039384168152919092166020820152a261362b565b61194b6001600b55565b90828996949895928c8895516128a2906001600160801b031690565b6001600160801b03166128b490612450565b606490046001600160801b03169a85516128d4906001600160801b031690565b6001600160801b03166128e690612450565b606490046001600160801b0316916128fc61194d565b6001600160801b03909d168d52818d01926129209084906001600160801b03169052565b84518d906001600160801b031690516001600160801b031661294191612421565b90516001600160801b031661295591612421565b918651612968906001600160801b031690565b90516001600160801b031661297c91612421565b88516001600160801b031661299091612421565b9261299961194d565b6001600160801b039093168352818301936129bd9085906001600160801b03169052565b826129c661195a565b878152928301526040820152600160608201524260808201526129f1875f52601960205260405f2090565b906129fb91612b34565b516001600160801b03166011546001600160801b031690612a1b91612406565b612a3b906001600160801b03166001600160801b03196011541617601155565b516001600160801b031660115460801c90612a5591612406565b612a74906001600160801b036011549181199060801b16911617601155565b519151604080519283526001600160801b0393841660208401529216918101919091524260608201527ff352171dfced38c74ab597e5a5447272758c10820c878b8f9cb2bbd4385c458490608090a261285c61284e61287c996128417f0aaf6549779ef42fddc20bd28c3cd20c8e59d204a284de7da0eb6f80d00fa8949561280e565b905047105f6126c0565b60405162ab110160e81b8152600490fd5b356001600160801b038116810361041b5790565b5f19811461049d5760010190565b90608060049180518455612b9960018501602083015160206001600160801b0391612b788382511685906001600160801b03166001600160801b0319825416179055565b015182546001600160801b0316911660801b6001600160801b031916179055565b60408101516002850155600384016060820151151560ff801983541691161790550151910155565b60145434810180911161049d576014556040513481527f6c703791f399558807424f489ccd811c72b4ff0b74af547264fad7c646776df060203392a2565b6002600b5414612c10576002600b55565b604051633ee5aeb560e01b8152600490fd5b6001600160a01b0380821694939291908515612d155782168015612cfd576001600160a01b0382165f9081526020819052604090205495848710612cce578461194b969703612c808460018060a01b03165f525f60205260405f2090565b556001600160a01b0384165f908152602081815260409182902080548801905590518681527fddf252ad1be2c89b69c2b068fc378daa952ba7f163c4a11628f55a4df523b3ef9190a36140f7565b60405163391434e360e21b81526001600160a01b03841660048201526024810188905260448101869052606490fd5b60405163ec442f0560e01b81525f6004820152602490fd5b604051634b637e8f60e11b81525f6004820152602490fd5b9060405160a081018181106001600160401b038211176118765760405260806004829480548452612d6060018201611967565b60208501526002810154604085015260ff600382015416151560608501520154910152565b9291612d9082612259565b91612d9e604051938461191d565b829481845260208094019160051b810192831161041b57905b828210612dc45750505050565b81358152908301908301612db7565b3d15612e0c573d906001600160401b0382116118765760405191612e01601f8201601f19166020018461191d565b82523d5f602084013e565b606090565b9290939193612e30612e2b825f52601960205260405f2090565b612d2d565b91612e41611b8e6060850151151590565b61312457612e7a612e7386612e5e855f52601a60205260405f2090565b9060018060a01b03165f5260205260405f2090565b5460ff1690565b61311257604080516001600160a01b038716602082019081528183018990528282529195612ecb93611b8e939092612ec69190612eb860608261191d565b519020928751923691612d85565b613843565b61310157612ee284915f52601a60205260405f2090565b6001600160a01b039091165f90815260209190915260409020805460ff1916600117905581810151906020019381818651602001612f28906001600160801b0390511690565b6001600160801b031690612f3b91612466565b90612f45916123b9565b6001600160801b03169451516001600160801b03166001600160801b031690612f6d91612466565b90612f77916123b9565b6001600160801b03166001600160801b03848116918215159182806130f8575b6130e757612fc9612fae88610e7e60115460801c90565b6001600160801b036011549181199060801b16911617601155565b612ffe612fe283610e7e6011546001600160801b031690565b6001600160801b03166001600160801b03196011541617601155565b811680613095575b5050613013575b50505050565b5f80808361302c61302783966015546124db565b601555565b865af1613037612dd3565b501561308557516001600160801b039290921682526001600160a01b0316907fd47529329a0e6a3a4d8321064e299cc377b5a846bf6c5a0e261f2b29f2cc1ecf90602090a25f80808061300d565b51630414e46960e21b8152600490fd5b61309f9086613894565b83516001600160801b039190911681526001600160a01b038516907ff717aae6ba7053fb1ceb6012f0b2d339fa867c054ad6823ce040d1860806d60390602090a25f80613006565b845163e1c399a560e01b8152600490fd5b50834710612f97565b825163676bf8dd60e01b8152600490fd5b604051633b5bf5d560e01b8152600490fd5b604051633582183360e11b8152600490fd5b307f00000000000000000000000000000000000000000000000000000000000000006001600160a01b03161480613227575b15613191577f000000000000000000000000000000000000000000000000000000000000000090565b60405160208101907f8b73c3c69bb8fe3d512ecc4cf759cc79239f7b179b0ffacaa9a75d522b39400f82527f000000000000000000000000000000000000000000000000000000000000000060408201527f000000000000000000000000000000000000000000000000000000000000000060608201524660808201523060a082015260a0815261322181611902565b51902090565b507f00000000000000000000000000000000000000000000000000000000000000004614613168565b65ffffffffffff6132604361393f565b168082101561327357506104f19061393f565b6044925060405191637669fc0f60e11b835260048301526024820152fd5b6001600160a01b039081165f81815260086020526040812080548585166001600160a01b03198216811790925561194b959416939290918491907f3134e8a2e6d97e929a7e54011ea5485d7d196dd5f0ba4d4ef95803e8e3fc257f9080a45f60205260405f205491601b60205260405f205460ff8116613312575b50613b61565b90929060081c60ff161561334557600f545b80821061333c5761333491612374565b915b5f61330c565b50505f91613336565b601054613324565b600a548061335a57505f90565b805f1981011161049d57600a5f527fc65a7bb8d6351c1cf70c95a316cc6a92839c986682d98bc35f958f4883f9d2a7015460301c90565b80548061339e5750505f90565b5f1991818381011161049d575f5260205f2001015460301c90565b80156134195769013c27422cbd5e200000905f905b8082106133da57505090565b90916117709081810291818304149015171561049d576127109004916816c4abbebea0100000808411156134125750600101906133ce565b9250505090565b5069013c27422cbd5e20000090565b604290613433613136565b906040519161190160f01b8352600283015260228201522090565b916104f1939161345d93613e6c565b90929192613f0c565b6001600160a01b0381165f908152600760205260409020805460018101909155809203613491575050565b6040516301d4b62360e61b81526001600160a01b039190911660048201526024810191909152604490fd5b908215159081806135ab575b6125e25780613559575b506134db575050565b6134ea613027836015546124db565b5f80808085855af16134fa612dd3565b5015613547576040516001600160801b039290921682526001600160a01b0316907fd47529329a0e6a3a4d8321064e299cc377b5a846bf6c5a0e261f2b29f2cc1ecf9080602081016125cb565b604051630414e46960e21b8152600490fd5b6135638184613894565b6040516001600160801b039190911681526001600160a01b038316907ff717aae6ba7053fb1ceb6012f0b2d339fa867c054ad6823ce040d1860806d60390602090a25f6134d2565b508347106134c8565b8051821015610b595760209160051b010190565b9190939293606083019060608452805180925260808401916020809201915f5b82811061360e575050505090604091946001600160801b03809216602085015216910152565b83516001600160a01b0316855293810193928101926001016135e8565b909192613639825160ff1690565b9061364e61266885516001600160801b031690565b9160ff61366861266860208801516001600160801b031690565b91169161367583856123b9565b936136a261369761368686866123b9565b926136918789612466565b90612374565b936136918684612466565b905f5b85811061370a5750505050505050907fb51a41382edfd0798f2ed160e2936e3327b0be1c4d536bb8bba6dc0e09bcdca5916125cb6136fe60206136ef85516001600160801b031690565b9401516001600160801b031690565b604051938493846135c8565b613724613717828a6135b4565b516001600160a01b031690565b6001600160a01b038082169291908315610b5e5760019361374f928b9187938a1614613755576134bc565b016136a5565b915050613762888b6124db565b61376c87876124db565b916134bc565b6001600160a01b0380821692919083156137f35782169384156137db57806137d17f8c5be1e5ebec7d5bd14f71427d1e84f3dd0314c0f7b2291e5b200ac8c7c3b92594612e5e60209560018060a01b03165f52600160205260405f2090565b55604051908152a3565b604051634a1406b160e11b81525f6004820152602490fd5b60405163e602df0560e01b81525f6004820152602490fd5b906001600160a01b03808316156137f3578116156137db57612e5e6138409260018060a01b03165f52600160205260405f2090565b55565b929091905f915b845183101561388c5761385d83866135b4565b51908181101561387b575f52602052600160405f205b92019161384a565b905f52602052600160405f20613873565b915092501490565b91906001600160a01b0383168015612cfd5760025482810180911161049d576002556001600160a01b0384165f90815260208181526040808320805486019055518481527fddf252ad1be2c89b69c2b068fc378daa952ba7f163c4a11628f55a4df523b3ef9190a3600254926001600160d01b0384116139195761194b92935061407a565b604051630e58ae9360e11b8152600481018590526001600160d01b036024820152604490fd5b65ffffffffffff90818111613952571690565b604490604051906306dfcc6560e41b8252603060048301526024820152fd5b60018111156104f157600181600160801b811015613a8a575b613a32613a28613a1e613a14613a0a613a00613a3e97600488600160401b613a399a1015613a7d575b640100000000811015613a70575b62010000811015613a63575b610100811015613a57575b6010811015613a4b575b1015613a43575b60030260011c6139f9818b6123b9565b0160011c90565b6139f9818a6123b9565b6139f981896123b9565b6139f981886123b9565b6139f981876123b9565b6139f981866123b9565b80936123b9565b821190565b900390565b60011b6139e9565b811c9160021b916139e2565b60081c91811b916139d8565b60101c9160081b916139cd565b60201c9160101b916139c1565b60401c9160201b916139b3565b50600160401b9050608082901c61398a565b905b828110613aaa57505090565b90918082169080831860011c820180921161049d57600a5f5265ffffffffffff80835f805160206143b1833981519152015416908516105f14613af05750915b90613a9e565b929150613afc906124cd565b90613aea565b91905b838210613b125750505090565b9091928083169080841860011c820180921161049d57845f5265ffffffffffff808360205f20015416908416105f14613b4f5750925b9190613b05565b939250613b5b906124cd565b91613b48565b6001600160a01b03808316939291908116908185141580613ca8575b613b89575b5050505050565b81613c0d575b505082613b9e575b8080613b82565b6001600160a01b03165f9081526009602052604090207fdec2bacdd2f05b59de34da9b523dff8be42e5e38e818c82fdb0bae774387a72491613bea91613be49091613fae565b90613fe1565b604080516001600160d01b039384168152919092166020820152a25f8080613b97565b6001600160a01b03165f908152600960205260409020613c2c84613fae565b613c354361393f565b6001600160d01b03918280613c4986613391565b16911690039282841161049d577fdec2bacdd2f05b59de34da9b523dff8be42e5e38e818c82fdb0bae774387a72493613c9e92613c85926142f6565b6040805192851683529316602082015291829190820190565b0390a25f80613b8f565b50831515613b7d565b60ff8114613cef5760ff811690601f8211613cdd5760405191613cd3836118b1565b8252602082015290565b604051632cd44ac360e21b8152600490fd5b50604051600554815f613d0183612381565b80835292602090600190818116908115613d8b5750600114613d2c575b50506104f19250038261191d565b91509260055f527f036b6384b5eca791c62761152d0c79bb0604c104a5fb6f4eb0703f3154bb3db0935f925b828410613d7357506104f19450505081016020015f80613d1e565b85548785018301529485019486945092810192613d58565b915050602092506104f194915060ff191682840152151560051b8201015f80613d1e565b60ff8114613dd15760ff811690601f8211613cdd5760405191613cd3836118b1565b50604051600654815f613de383612381565b80835292602090600190818116908115613d8b5750600114613e0d5750506104f19250038261191d565b91509260065f527ff652222313e28459528d920b65115c16c04f3efc82aaedc97be59f3f377c0d3f935f925b828410613e5457506104f19450505081016020015f80613d1e565b85548785018301529485019486945092810192613e39565b91907f7fffffffffffffffffffffffffffffff5d576e7357a4501ddfe92f46681b20a08411613ee3579160209360809260ff5f9560405194855216868401526040830152606082015282805260015afa156107d1575f516001600160a01b03811615613ed957905f905f90565b505f906001905f90565b5050505f9160039190565b60041115613ef857565b634e487b7160e01b5f52602160045260245ffd5b613f1581613eee565b80613f1e575050565b613f2781613eee565b60018103613f415760405163f645eedf60e01b8152600490fd5b613f4a81613eee565b60028103613f6b5760405163fce698f760e01b815260048101839052602490fd5b80613f77600392613eee565b14613f7f5750565b6040516335e2f38360e21b81526004810191909152602490fd5b8054821015610b59575f5260205f2001905f90565b6001600160d01b0390818111613fc2571690565b604490604051906306dfcc6560e41b825260d060048301526024820152fd5b90613feb4361393f565b6001600160d01b03918280613fff86613391565b1691160191821161049d57614013926142f6565b9091565b6140204361393f565b906001600160d01b0390818061403461334d565b1691160190811161049d5761401391614210565b6140514361393f565b906001600160d01b0390818061406561334d565b169116900390811161049d5761401391614210565b9061194b9161409061408b83613fae565b614017565b50506001600160a01b039081169081156140df575b60086020527f5eff886ea0ce6ca488a3d6e336d6c0f75f46d19b42c06ce5ee98e42c96d256c7545f92835260409092205481169116613b61565b6140f06140eb84613fae565b614048565b50506140a5565b61194b92916001600160a01b0391821691908190831561414b575b16918215614138575b5f5260086020528060405f205416915f5260405f20541690613b61565b6141446140eb85613fae565b505061411b565b61415761408b86613fae565b5050614112565b600a5490600160401b821015611876576001820180600a55821015610b5957600a5f52805160209091015160301b65ffffffffffff191665ffffffffffff91909116175f805160206143b183398151915290910155565b8054600160401b811015611876576141d291600182018155613f99565b6141fd57815160209092015160301b65ffffffffffff191665ffffffffffff92909216919091179055565b634e487b7160e01b5f525f60045260245ffd5b600a5491929180156142cd5761422861423e91612366565b600a5f525f805160206143b18339815191520190565b9081549165ffffffffffff908184169183168083116142bb578692036142835761427c92509065ffffffffffff82549181199060301b169116179055565b60301c9190565b50506142b6906142a261429461194d565b65ffffffffffff9092168252565b6001600160d01b038516602082015261415e565b61427c565b604051632520601d60e01b8152600490fd5b506142f1906142dd61429461194d565b6001600160d01b038416602082015261415e565b5f9190565b8054929392801561438b5761430d61431891612366565b825f5260205f200190565b9182549265ffffffffffff918285169281168084116142bb57879303614357575061427c92509065ffffffffffff82549181199060301b169116179055565b9150506142b69161437761436961194d565b65ffffffffffff9093168352565b6001600160d01b03861660208301526141b5565b50906142f19161439c61436961194d565b6001600160d01b03851660208301526141b556fec65a7bb8d6351c1cf70c95a316cc6a92839c986682d98bc35f958f4883f9d2a8a2646970667358221220161cb5b23f4ac563c977a8566947a2e514b5364230dc430373322728d3213a6464736f6c63430008160033c65a7bb8d6351c1cf70c95a316cc6a92839c986682d98bc35f958f4883f9d2a8dec2bacdd2f05b59de34da9b523dff8be42e5e38e818c82fdb0bae774387a724","linkReferences":{}},"methodIdentifiers":{"CLOCK_MODE()":"4bf5d7e9","DOMAIN_SEPARATOR()":"3644e515","allowance(address,address)":"dd62ed3e","approve(address,uint256)":"095ea7b3","balanceOf(address)":"70a08231","batchClaimMerkleRewards(uint256[],uint256[],bytes32[][])":"4b667916","checkpoints(address,uint32)":"f1127ed8","claimMerkleRewards(uint256,uint256,bytes32[])":"2e54575d","clock()":"91ddadf4","createMerkleDistribution(bytes32,uint256,address[],(uint128,uint128),address)":"f91c67ed","decimals()":"313ce567","delegate(address)":"5c19a95c","delegateBySig(address,uint256,uint256,uint8,bytes32,bytes32)":"c3cda520","delegates(address)":"587cde1e","doubleDistributionInterval()":"f721ed12","eip712Domain()":"84b0196e","escrowEthPayment(address,uint256)":"53803211","escrowPayment(address,uint256)":"7855328f","getCurrentEra()":"d250b6cb","getEmissionRate()":"c0a77da9","getEscrowedPayments(address)":"f63b7738","getEthBreakdown()":"96169017","getLockInfo(address)":"7238ccdb","getPastTotalSupply(uint256)":"8e539e8c","getPastVotes(address,uint256)":"3a46b1a8","getSmartnodesCore()":"714bd915","getSupplyBreakdown()":"01277591","getVotes(address)":"9ab24eb0","halveDistributionInterval()":"1f763531","isLocked(address)":"4a4fbeec","lockTokens(address,bool)":"dc8bde81","name()":"06fdde03","nonces(address)":"7ecebe00","numCheckpoints(address)":"6fcfff45","permit(address,address,uint256,uint256,uint8,bytes32,bytes32)":"d505accf","releaseEscrowedEthPayment(address,uint256)":"8b1297e0","releaseEscrowedPayment(address,uint256)":"601c438d","s_claimed(uint256,address)":"77bea8c5","s_coreSet()":"f0c0189a","s_currentDistributionId()":"1342c727","s_dao()":"fd4f19ea","s_daoSet()":"918a93d1","s_distributionInterval()":"d25074cf","s_distributions(uint256)":"addfbd76","s_lastDistributionTime()":"70e2709a","s_smartnodesCoordinator()":"ec5188b5","s_smartnodesCore()":"6b451ba9","s_totalETHDeposited()":"c2227ac7","s_totalETHWithdrawn()":"5dc437e3","s_totalEscrowed()":"f76dfeac","s_totalLocked()":"e21f2df8","s_totalUnclaimed()":"9fb40413","s_userLockAmount()":"f1a9e631","s_validatorLockAmount()":"f6a89727","setDAO(address)":"e73a914c","setSmartnodes(address,address)":"9a3e13f0","setUserLockAmount(uint256)":"12bc9f8c","setValidatorLockAmount(uint256)":"8180c1c2","symbol()":"95d89b41","totalSupply()":"18160ddd","transfer(address,uint256)":"a9059cbb","transferFrom(address,address,uint256)":"23b872dd","unlockTokens(address)":"cb67f948"},"id":56}