{"abi":[{"type":"constructor","inputs":[{"name":"_token","type":"address","internalType":"address"},{"name":"_votingPeriod","type":"uint256","internalType":"uint256"},{"name":"_quorumPercentage","type":"uint256","internalType":"uint256"}],"stateMutability":"nonpayable"},{"type":"receive","stateMutability":"payable"},{"type":"function","name":"GRACE_PERIOD","inputs":[],"outputs":[{"name":"","type":"uint256","internalType":"uint256"}],"stateMutability":"view"},{"type":"function","name":"MAX_TARGETS","inputs":[],"outputs":[{"name":"","type":"uint256","internalType":"uint256"}],"stateMutability":"view"},{"type":"function","name":"MAX_VOTING_PERIOD","inputs":[],"outputs":[{"name":"","type":"uint256","internalType":"uint256"}],"stateMutability":"view"},{"type":"function","name":"MINIMUM_PROPOSAL_THRESHOLD","inputs":[],"outputs":[{"name":"","type":"uint256","internalType":"uint256"}],"stateMutability":"view"},{"type":"function","name":"MIN_VOTING_PERIOD","inputs":[],"outputs":[{"name":"","type":"uint256","internalType":"uint256"}],"stateMutability":"view"},{"type":"function","name":"TIMELOCK_DELAY","inputs":[],"outputs":[{"name":"","type":"uint256","internalType":"uint256"}],"stateMutability":"view"},{"type":"function","name":"batchClaimRefunds","inputs":[{"name":"proposalIds","type":"uint256[]","internalType":"uint256[]"}],"outputs":[],"stateMutability":"nonpayable"},{"type":"function","name":"cancel","inputs":[{"name":"proposalId","type":"uint256","internalType":"uint256"}],"outputs":[],"stateMutability":"nonpayable"},{"type":"function","name":"claimRefund","inputs":[{"name":"proposalId","type":"uint256","internalType":"uint256"}],"outputs":[],"stateMutability":"nonpayable"},{"type":"function","name":"execute","inputs":[{"name":"proposalId","type":"uint256","internalType":"uint256"}],"outputs":[],"stateMutability":"nonpayable"},{"type":"function","name":"getProposal","inputs":[{"name":"proposalId","type":"uint256","internalType":"uint256"}],"outputs":[{"name":"","type":"tuple","internalType":"struct SmartnodesDAO.Proposal","components":[{"name":"id","type":"uint128","internalType":"uint128"},{"name":"startTime","type":"uint128","internalType":"uint128"},{"name":"endTime","type":"uint128","internalType":"uint128"},{"name":"queueTime","type":"uint128","internalType":"uint128"},{"name":"forVotes","type":"uint128","internalType":"uint128"},{"name":"againstVotes","type":"uint128","internalType":"uint128"},{"name":"proposer","type":"address","internalType":"address"},{"name":"executed","type":"bool","internalType":"bool"},{"name":"canceled","type":"bool","internalType":"bool"},{"name":"queued","type":"bool","internalType":"bool"},{"name":"targets","type":"address[]","internalType":"address[]"},{"name":"calldatas","type":"bytes[]","internalType":"bytes[]"},{"name":"values","type":"uint256[]","internalType":"uint256[]"},{"name":"description","type":"string","internalType":"string"}]}],"stateMutability":"view"},{"type":"function","name":"getProposalVotes","inputs":[{"name":"proposalId","type":"uint256","internalType":"uint256"}],"outputs":[{"name":"forVotes","type":"uint256","internalType":"uint256"},{"name":"againstVotes","type":"uint256","internalType":"uint256"},{"name":"totalVotes","type":"uint256","internalType":"uint256"}],"stateMutability":"view"},{"type":"function","name":"getVotesOf","inputs":[{"name":"proposalId","type":"uint256","internalType":"uint256"},{"name":"voter","type":"address","internalType":"address"}],"outputs":[{"name":"voted","type":"bool","internalType":"bool"},{"name":"lockedTokens","type":"uint256","internalType":"uint256"}],"stateMutability":"view"},{"type":"function","name":"hasVoted","inputs":[{"name":"","type":"uint256","internalType":"uint256"},{"name":"","type":"address","internalType":"address"}],"outputs":[{"name":"","type":"bool","internalType":"bool"}],"stateMutability":"view"},{"type":"function","name":"proposalCount","inputs":[],"outputs":[{"name":"","type":"uint256","internalType":"uint256"}],"stateMutability":"view"},{"type":"function","name":"proposals","inputs":[{"name":"","type":"uint256","internalType":"uint256"}],"outputs":[{"name":"id","type":"uint128","internalType":"uint128"},{"name":"startTime","type":"uint128","internalType":"uint128"},{"name":"endTime","type":"uint128","internalType":"uint128"},{"name":"queueTime","type":"uint128","internalType":"uint128"},{"name":"forVotes","type":"uint128","internalType":"uint128"},{"name":"againstVotes","type":"uint128","internalType":"uint128"},{"name":"proposer","type":"address","internalType":"address"},{"name":"executed","type":"bool","internalType":"bool"},{"name":"canceled","type":"bool","internalType":"bool"},{"name":"queued","type":"bool","internalType":"bool"},{"name":"description","type":"string","internalType":"string"}],"stateMutability":"view"},{"type":"function","name":"propose","inputs":[{"name":"targets","type":"address[]","internalType":"address[]"},{"name":"calldatas","type":"bytes[]","internalType":"bytes[]"},{"name":"values","type":"uint256[]","internalType":"uint256[]"},{"name":"description","type":"string","internalType":"string"}],"outputs":[{"name":"","type":"uint256","internalType":"uint256"}],"stateMutability":"nonpayable"},{"type":"function","name":"queue","inputs":[{"name":"proposalId","type":"uint256","internalType":"uint256"}],"outputs":[],"stateMutability":"nonpayable"},{"type":"function","name":"quorumPercentage","inputs":[],"outputs":[{"name":"","type":"uint256","internalType":"uint256"}],"stateMutability":"view"},{"type":"function","name":"quorumRequired","inputs":[],"outputs":[{"name":"","type":"uint256","internalType":"uint256"}],"stateMutability":"view"},{"type":"function","name":"state","inputs":[{"name":"proposalId","type":"uint256","internalType":"uint256"}],"outputs":[{"name":"","type":"uint8","internalType":"enum SmartnodesDAO.ProposalState"}],"stateMutability":"view"},{"type":"function","name":"token","inputs":[],"outputs":[{"name":"","type":"address","internalType":"contract IERC20"}],"stateMutability":"view"},{"type":"function","name":"tokensLocked","inputs":[{"name":"","type":"uint256","internalType":"uint256"},{"name":"","type":"address","internalType":"address"}],"outputs":[{"name":"","type":"uint256","internalType":"uint256"}],"stateMutability":"view"},{"type":"function","name":"totalTokensLockedBy","inputs":[{"name":"","type":"address","internalType":"address"}],"outputs":[{"name":"","type":"uint256","internalType":"uint256"}],"stateMutability":"view"},{"type":"function","name":"vote","inputs":[{"name":"proposalId","type":"uint256","internalType":"uint256"},{"name":"support","type":"bool","internalType":"bool"},{"name":"tokensToLock","type":"uint256","internalType":"uint256"}],"outputs":[],"stateMutability":"nonpayable"},{"type":"function","name":"votingPeriod","inputs":[],"outputs":[{"name":"","type":"uint256","internalType":"uint256"}],"stateMutability":"view"},{"type":"event","name":"ProposalCanceled","inputs":[{"name":"proposalId","type":"uint256","indexed":true,"internalType":"uint256"}],"anonymous":false},{"type":"event","name":"ProposalCreated","inputs":[{"name":"id","type":"uint256","indexed":true,"internalType":"uint256"},{"name":"proposer","type":"address","indexed":true,"internalType":"address"},{"name":"targets","type":"address[]","indexed":false,"internalType":"address[]"},{"name":"startTime","type":"uint256","indexed":false,"internalType":"uint256"},{"name":"endTime","type":"uint256","indexed":false,"internalType":"uint256"},{"name":"description","type":"string","indexed":false,"internalType":"string"}],"anonymous":false},{"type":"event","name":"ProposalExecuted","inputs":[{"name":"proposalId","type":"uint256","indexed":true,"internalType":"uint256"}],"anonymous":false},{"type":"event","name":"ProposalQueued","inputs":[{"name":"proposalId","type":"uint256","indexed":true,"internalType":"uint256"},{"name":"executionTime","type":"uint256","indexed":false,"internalType":"uint256"}],"anonymous":false},{"type":"event","name":"RefundClaimed","inputs":[{"name":"proposalId","type":"uint256","indexed":true,"internalType":"uint256"},{"name":"voter","type":"address","indexed":true,"internalType":"address"},{"name":"amount","type":"uint256","indexed":false,"internalType":"uint256"}],"anonymous":false},{"type":"event","name":"Voted","inputs":[{"name":"proposalId","type":"uint256","indexed":true,"internalType":"uint256"},{"name":"voter","type":"address","indexed":true,"internalType":"address"},{"name":"support","type":"bool","indexed":false,"internalType":"bool"},{"name":"votes","type":"uint256","indexed":false,"internalType":"uint256"},{"name":"tokensStaked","type":"uint256","indexed":false,"internalType":"uint256"}],"anonymous":false},{"type":"error","name":"ReentrancyGuardReentrantCall","inputs":[]},{"type":"error","name":"SafeERC20FailedOperation","inputs":[{"name":"token","type":"address","internalType":"address"}]},{"type":"error","name":"SmartnodesDAO__AlreadyVoted","inputs":[]},{"type":"error","name":"SmartnodesDAO__ExecutionFailed","inputs":[{"name":"idx","type":"uint256","internalType":"uint256"}]},{"type":"error","name":"SmartnodesDAO__GracePeriodExpired","inputs":[]},{"type":"error","name":"SmartnodesDAO__InsufficientProposalThreshold","inputs":[]},{"type":"error","name":"SmartnodesDAO__InsufficientTokens","inputs":[]},{"type":"error","name":"SmartnodesDAO__InvalidProposalId","inputs":[]},{"type":"error","name":"SmartnodesDAO__InvalidQuorumPercentage","inputs":[]},{"type":"error","name":"SmartnodesDAO__InvalidVotingPeriod","inputs":[]},{"type":"error","name":"SmartnodesDAO__MismatchedArrays","inputs":[]},{"type":"error","name":"SmartnodesDAO__NoLockedTokens","inputs":[]},{"type":"error","name":"SmartnodesDAO__NotProposer","inputs":[]},{"type":"error","name":"SmartnodesDAO__ProposalAlreadyExecuted","inputs":[]},{"type":"error","name":"SmartnodesDAO__ProposalDidNotPass","inputs":[]},{"type":"error","name":"SmartnodesDAO__ProposalNotActive","inputs":[]},{"type":"error","name":"SmartnodesDAO__ProposalNotQueued","inputs":[]},{"type":"error","name":"SmartnodesDAO__QuorumNotReached","inputs":[]},{"type":"error","name":"SmartnodesDAO__TimelockNotMet","inputs":[]},{"type":"error","name":"SmartnodesDAO__TooManyTargets","inputs":[]},{"type":"error","name":"SmartnodesDAO__ZeroAddress","inputs":[]}],"bytecode":{"object":"0x60a0346200012257601f620022d938819003918201601f191683019291906001600160401b0384118385101762000126578160609284926040968752833981010312620001225780516001600160a01b038116919082900362000122578260208201519101519160015f5580156200011157620151808210801562000104575b620000f35782158015620000e7575b620000d6576080526002556003555161219e90816200013b823960805181818161093701528181610d9c0152818161111701528181611260015281816114aa0152611a0b0152f35b83516326ac471d60e01b8152600490fd5b5061271083116200008e565b835163e2ef755360e01b8152600490fd5b5062278d0082116200007f565b83516341c548b760e01b8152600490fd5b5f80fd5b634e487b7160e01b5f52604160045260245ffdfe6080604052600436101561001a575b3615610018575f80fd5b005b5f3560e01c8063013cf08b146101b957806302a251a3146101b457806307000746146101af578063088868e8146101aa5780631a806b8d146101a5578063215809ca146101a05780633e4f49e61461019b578063407e636d1461019657806340e58ee514610191578063438596321461018c57806347c66140146101875780634cfdebb9146101825780634fa76ec91461017d5780635b7baf64146101785780635ba1c1a914610173578063a64e024a1461016e578063c1a287e214610169578063c7f758a814610164578063d46a5d7e1461015f578063d77d1a3f1461015a578063da35c66414610155578063ddf0b00914610150578063e993a3ae1461014b578063f6b25a4014610146578063fc0c546a146101415763fe0d94c10361000e5761128f565b61124b565b611230565b61108c565b610f7f565b610f62565b610f15565b610cd4565b610c36565b610a1a565b6109fd565b6109e0565b610859565b61083c565b610819565b6107c3565b610771565b61068d565b610614565b6105e5565b6105aa565b6104f5565b6104a3565b610468565b61043a565b6103a4565b90600182811c921680156101ec575b60208310146101d857565b634e487b7160e01b5f52602260045260245ffd5b91607f16916101cd565b634e487b7160e01b5f52604160045260245ffd5b6101c081019081106001600160401b0382111761022657604052565b6101f6565b90601f801991011681019081106001600160401b0382111761022657604052565b9060405191825f825461025e816101be565b908184526020946001916001811690815f146102cc575060011461028e575b50505061028c9250038361022b565b565b5f90815285812095935091905b8183106102b457505061028c93508201015f808061027d565b8554888401850152948501948794509183019161029b565b9250505061028c94925060ff191682840152151560051b8201015f808061027d565b91908251928382525f5b848110610318575050825f602080949584010152601f8019910116010190565b6020818301810151848301820152016102f8565b6001600160801b0391821681529181166020830152918216604082015291811660608301529182166080820152911660a08201526001600160a01b0390911660c082015290151560e08201529015156101008201529015156101208201526103a19190610160908161014082015201906102ee565b90565b34610436576020366003190112610436576004355f52600460205260405f2080546104326001600160801b03926001810154926002820154936103ee60076003850154940161024c565b9260405196879660ff8360b01c169460ff8460a81c169460ff8560a01c169460018060a01b031693808460801c941692818360801c9316918160801c91168c61032c565b0390f35b5f80fd5b34610436575f366003190112610436576020600254604051908152f35b6001600160a01b0381160361043657565b346104365760203660031901126104365760043561048581610457565b60018060a01b03165f526007602052602060405f2054604051908152f35b34610436575f3660031901126104365760206104bd611495565b604051908152f35b9181601f84011215610436578235916001600160401b038311610436576020808501948460051b01011161043657565b34610436576080366003190112610436576001600160401b03600435818111610436576105269036906004016104c5565b916024358181116104365761053f9036906004016104c5565b6044939193358381116104365761055a9036906004016104c5565b916064359585871161043657366023880112156104365786600401359586116104365736602487890101116104365761043297602461059a9801956119c5565b6040519081529081906020820190565b34610436575f366003190112610436576020604051620151808152f35b600811156105d157565b634e487b7160e01b5f52602160045260245ffd5b3461043657602036600319011261043657610601600435611bf7565b60405160088210156105d1576020918152f35b3461043657604036600319011261043657604060043561067e60243561063981610457565b5f838152600560209081528582206001600160a01b038416835290526040902060ff905416925f526006602052835f209060018060a01b03165f5260205260405f2090565b54825191151582526020820152f35b346104365760203660031901126104365760043580158015610766575b610754575f81815260046020526040902060030180546106da906001600160a01b03165b6001600160a01b031690565b33036107425760076106eb83611bf7565b6106f4816105c7565b1461073057805460ff60a81b1916600160a81b1790557f789cf55be980739dad1d0699b93b58e806b51c9d96619bfa8fe0a28abaa7b30c5f80a2005b604051633b9f797560e11b8152600490fd5b604051637bba0c7f60e01b8152600490fd5b60405163498bf59d60e11b8152600490fd5b5060015481116106aa565b3461043657604036600319011261043657602060ff6107b760243561079581610457565b6004355f526005845260405f209060018060a01b03165f5260205260405f2090565b54166040519015158152f35b34610436576020366003190112610436576004355f526004602052600260405f2001546001600160801b0381169060801c908181018082116108145760609260405192835260208301526040820152f35b611481565b34610436575f366003190112610436576020604051683635c9adc5dea000008152f35b34610436575f366003190112610436576020600354604051908152f35b346104365760203660031901126104365760043561087561204a565b801580156109d5575b6107545761088b81611bf7565b610894816105c7565b600181149081156109c3575b506109b1576108cc6108ba825f52600660205260405f2090565b335f9081526020919091526040902090565b5490811561099f575f610900336108eb845f52600660205260405f2090565b9060018060a01b03165f5260205260405f2090565b55335f90815260076020526040902054828082106109975761092191611cf2565b335f9081526007602052604090205561095b82337f000000000000000000000000000000000000000000000000000000000000000061206b565b60405191825233917ff3f402280ef0a7905e124aa621b65eaeb2725c343e8b36d398ed78c29daf285c9080602081015b0390a361001860015f55565b50505f610921565b6040516325f4f2fb60e11b8152600490fd5b604051634d1e81df60e01b8152600490fd5b90506109ce816105c7565b155f6108a0565b50600154811161087e565b34610436575f3660031901126104365760206040516202a3008152f35b34610436575f36600319011261043657602060405162278d008152f35b34610436575f366003190112610436576020604051621275008152f35b9081518082526020808093019301915f5b828110610a56575050505090565b83516001600160a01b031685529381019392810192600101610a48565b90808251908181526020809101926020808460051b8301019501935f915b848310610aa15750505050505090565b9091929394958480610abf600193601f198682030187528a516102ee565b9801930193019194939290610a91565b9081518082526020808093019301915f5b828110610aee575050505090565b835185529381019392810192600101610ae0565b906103a19160208152610b216020820183516001600160801b03169052565b60208201516001600160801b0316604082015260408201516001600160801b0316606082015260608201516001600160801b0316608082015260808201516001600160801b031660a082015260a08201516001600160801b031660c082015260c08201516001600160a01b031660e082015260e0820151610ba9610100918284019015159052565b820151610bbd610120918284019015159052565b820151610bd1610140918284019015159052565b820151906101c0610bef6101609382858501526101e0840190610a37565b92840151610c26610c0f601f199561018093878783030185880152610a73565b91860151916101a092868683030184870152610acf565b94015192828503019101526102ee565b346104365760203660031901126104365760606101a0604051610c588161020a565b5f81525f60208201525f60408201525f838201525f60808201525f60a08201525f60c08201525f60e08201525f6101008201525f6101208201528261014082015282610160820152826101808201520152610432610cc8610cc36004355f52600460205260405f2090565b611e5b565b60405191829182610b02565b3461043657606036600319011261043657602435600435811515820361043657604435610cff61204a565b81158015610f0a575b61075457610d1e825f52600460205260405f2090565b610d38610d2c825460801c90565b6001600160801b031690565b42108015610eea575b6109b157610d64610d5d6108ba855f52600560205260405f2090565b5460ff1690565b610ed8578115610ec6578161098b91610dc07f72977ad883f7d5821678747ec7baf0a5afb5fcb5da86f061dbd347b408edef449430337f00000000000000000000000000000000000000000000000000000000000000006120ba565b610de6610dd9336108eb885f52600560205260405f2090565b805460ff19166001179055565b81610dfd336108eb885f52600660205260405f2090565b55335f908152600760205260409020610e17838254611586565b90558515610e82576002610e639101610e496001600160801b038416610e4483546001600160801b031690565b611f5c565b6001600160801b03166001600160801b0319825416179055565b6040805195151586526020860182905285015233939081906060820190565b6002610ec19101610ea16001600160801b038416610e44835460801c90565b81546001600160801b031660809190911b6001600160801b031916179055565b610e63565b6040516364ffd68360e01b8152600490fd5b604051632b18fea560e01b8152600490fd5b50610f02610d2c60018301546001600160801b031690565b421015610d41565b506001548211610d08565b34610436576040366003190112610436576020610f59602435610f3781610457565b6004355f526006835260405f209060018060a01b03165f5260205260405f2090565b54604051908152f35b34610436575f366003190112610436576020600154604051908152f35b3461043657602036600319011261043657600435610f9b61204a565b80158015611081575b61075457805f52600460205260405f206004610fbf83611bf7565b610fc8816105c7565b0361106f5760038101805460ff60b01b1916600160b01b1790557f9a2e42fd6722813d69113e7d0079d3d940171428df7373df9c7f7617cfda2892906110639061104990611042600161101d610d2c42611566565b920180546001600160801b031660809390931b6001600160801b031916929092178255565b5460801c90565b6040516001600160801b0390911681529081906020820190565b0390a261001860015f55565b60405163223b485f60e11b8152600490fd5b506001548111610fa4565b34610436576020366003190112610436576004356001600160401b038111610436576110bc9036906004016104c5565b906110c561204a565b5f915f5b8181106111495783806110e0575b61001860015f55565b335f90815260076020526040902061113b919054818082106111415761110591611cf2565b335f90815260076020526040902055337f000000000000000000000000000000000000000000000000000000000000000061206b565b806110d7565b50505f611105565b611154818385611547565b3580158015611225575b61120a5761116b81611bf7565b611174816105c7565b60018114908115611213575b5061120a5761119b336108eb835f52600660205260405f2090565b54806111ae575b50506001905b016110c9565b6111d48160019493975f6111ce336108eb8c5f52600660205260405f2090565b55611586565b6040519182529533917ff3f402280ef0a7905e124aa621b65eaeb2725c343e8b36d398ed78c29daf285c90602090a3905f6111a2565b506001906111a8565b905061121e816105c7565b155f611180565b50600154811161115e565b34610436575f36600319011261043657602060405160038152f35b34610436575f366003190112610436576040517f00000000000000000000000000000000000000000000000000000000000000006001600160a01b03168152602090f35b3461043657602080600319360112610436576004908135916112af61204a565b8215801561145c575b61144d576112ce835f52600460205260405f2090565b9160056112da85611bf7565b6112e3816105c7565b0361143d576001926001600160801b03611301600183015460801c90565b1680421061142c5761131290611576565b421161141b5760038101805460ff60a01b1916600160a01b17905591808301908154935f926005600683019201935b86811061137657887f712ae1383f79ac853f8d882153778e0260ef8f03b504e2866e0593e04d2b291f5f80a261001860015f55565b6113986113838284611f77565b905460039190911b1c6001600160a01b031690565b5f806113b16113a78588611f77565b90549060031b1c90565b926113cf6113bf868b611f77565b5094604095865192838092611f8c565b03925af1906113dc61200c565b91156113eb5750508701611341565b81518893918791156114005750505080519101fd5b51633c822bd760e11b81529081019182529081906020010390fd5b60405163b0aaa2e560e01b81528390fd5b604051635c8cf7f560e01b81528490fd5b5060405163071a412d60e41b8152fd5b60405163498bf59d60e11b8152fd5b5060015483116112b8565b90816020910312610436575190565b6040513d5f823e3d90fd5b634e487b7160e01b5f52601160045260245ffd5b6040516318160ddd60e01b81526020816004817f00000000000000000000000000000000000000000000000000000000000000006001600160a01b03165afa90811561152e575f916114ff575b506003549081810291818304149015171561081457612710900490565b611521915060203d602011611527575b611519818361022b565b810190611467565b5f6114e2565b503d61150f565b611476565b634e487b7160e01b5f52603260045260245ffd5b91908110156115575760051b0190565b611533565b356103a181610457565b906202a300820180921161081457565b9062127500820180921161081457565b9190820180921161081457565b81811061159e575050565b5f8155600101611593565b918181106115b657505050565b61028c925f5260205f209182019101611593565b906001600160401b03831161022657600160401b8311610226576115f3838354818555846115a9565b905f526020805f20905f5b84811061160c575050505050565b6001908285359561161c87610457565b019481850155016115fe565b903590601e198136030182121561043657018035906001600160401b0382116104365760200191813603831361043657565b9190601f811161166957505050565b61028c925f5260205f20906020601f840160051c83019310611693575b601f0160051c0190611593565b9091508190611686565b9092916001600160401b038111610226576116c2816116bc84546101be565b8461165a565b5f601f82116001146117005781906116f19394955f926116f5575b50508160011b915f199060031b1c19161790565b9055565b013590505f806116dd565b601f19821694611713845f5260205f2090565b915f5b87811061174d575083600195969710611734575b505050811b019055565b01355f19600384901b60f8161c191690555f808061172a565b90926020600181928686013581550194019101611716565b600160401b83116102265780548382558084106117c5575b509061178d81925f5260205f2090565b905f925b84841061179f575050505050565b60016020826117b96117b2849587611628565b908861169d565b01930193019291611791565b815f528360205f2091820191015b8181106117e0575061177d565b806117ed600192546101be565b806117fa575b50016117d3565b601f9081811184146118125750505f81555b5f6117f3565b8361183292611824855f5260205f2090565b920160051c82019101611593565b5f818152602081208183555561180c565b906001600160401b03831161022657600160401b83116102265761186c838354818555846115a9565b905f526020805f20905f5b848110611885575050505050565b83358382015592810192600101611877565b9092916001600160401b038111610226576118b6816116bc84546101be565b5f601f82116001146118e45781906116f19394955f926116f55750508160011b915f199060031b1c19161790565b601f198216946118f7845f5260205f2090565b915f5b87811061191757508360019596971061173457505050811b019055565b909260206001819286860135815501940191016118fa565b9081548082526020809201925f5260205f20915f905b828210611953575050505090565b83546001600160a01b031685529384019360019384019390910190611945565b859394919261198d6020979460808452608084019061192f565b956001600160801b03809216888401521660408201526060818603910152818452848401375f828201840152601f01601f1916010190565b959396929091949682158015611bed575b611bdb57828203611bc957604080516370a0823160e01b81523360048083019190915291906020816024816001600160a01b037f0000000000000000000000000000000000000000000000000000000000000000165afa801561152e57683635c9adc5dea00000915f91611baa575b5010611b99575f5b858a818310611b68575050505050600154611a689060010190565b600155600154978896611a83885f52600460205260405f2090565b600381018054336001600160a01b031990911617905542608081901b6001600160801b0319166001600160801b038b16178255600254919591611ac591611586565b6001860180546001600160801b0319166001600160801b0392909216919091178155996004860196611af791886115ca565b611b049160058601611765565b611b119160068401611843565b611b1f838560078401611897565b5460801c94546001600160801b0316916040519384933397611b419486611973565b037f8eeb33349adcf7a55586112538ccae97fb83570bf041b2b86b85b96359e7fbe491a390565b611b7983611b7e936106ce93611547565b61155c565b15611b8b57600101611a4d565b50516341c548b760e01b8152fd5b6040516265fc8960e51b8152600490fd5b611bc3915060203d60201161152757611519818361022b565b5f611a45565b604051633ddc224160e11b8152600490fd5b60405163be631aa760e01b8152600490fd5b50600383116119d6565b80158015611ce7575b61075457611c16905f52600460205260405f2090565b600381015460ff8160a81c16611ce05760ff8160a01c16611cd957611c3f610d2c835460801c90565b4210611cd3576001820154916001600160801b03908184164210611cca576002611c67611495565b9101549182169160801c90611c7c8284611586565b10918215611cbf575b5050611cb85760b01c60ff16611c9b5750600490565b611ca79060801c611576565b421015611cb357600590565b600690565b5050600390565b111590505f80611c85565b50505050600190565b50505f90565b5050600790565b5050600290565b506001548111611c00565b9190820391821161081457565b6040519061028c8261020a565b9061028c611d20926040519384809261192f565b038361022b565b908154916001600160401b03831161022657602092600560409260405195611d54818560051b018861022b565b8387525f918252808220948188015b858410611d735750505050505050565b8151835f92895492611d84846101be565b808252600194808616908115611df25750600114611dba575b50611dac81600196038261022b565b815201970193019295611d63565b5f8c81528481209650905b808210611ddb5750810183019450611dac611d9d565b865483830186015295850195889490910190611dc5565b60ff191685840152501515891b810183019450611dac611d9d565b90604051918281549182825260209260208301915f5260205f20935f905b828210611e415750505061028c9250038361022b565b855484526001958601958895509381019390910190611e2b565b90611f546007611e69611cff565b84546001600160801b038082168352919591611ed291611e8d9060801c6020890152565b60018301548181166001600160801b0316604089015260801c6060880152611ec8600284015491821660808901906001600160801b03169052565b60801c60a0870152565b60038101546001600160a01b03811660c0870152611f189060ff9060a081901c8216151560e089015260a881901c8216151561010089015260b01c161515610120870152565b611f2460048201611d0c565b610140860152611f3660058201611d27565b610160860152611f4860068201611e0d565b6101808601520161024c565b6101a0830152565b9190916001600160801b038080941691160191821161081457565b8054821015611557575f5260205f2001905f90565b5f92918154611f9a816101be565b92600191808316908115611ff15750600114611fb7575b50505050565b9091929394505f5260209060205f20905f915b858310611fe0575050505001905f808080611fb1565b805485840152918301918101611fca565b60ff191684525050508115159091020191505f808080611fb1565b3d15612045573d906001600160401b038211610226576040519161203a601f8201601f19166020018461022b565b82523d5f602084013e565b606090565b60025f54146120595760025f55565b604051633ee5aeb560e01b8152600490fd5b60405163a9059cbb60e01b60208201526001600160a01b03909216602483015260448083019390935291815260808101916001600160401b038311828410176102265761028c9260405261210e565b6040516323b872dd60e01b60208201526001600160a01b03928316602482015292909116604483015260648083019390935291815260a08101918183106001600160401b038411176102265761028c926040525b905f602091828151910182855af115611476575f513d61215f57506001600160a01b0381163b155b61213d5750565b604051635274afe760e01b81526001600160a01b039091166004820152602490fd5b6001141561213656fea2646970667358221220c2d6f3e732d2d5dfac786f4eb3ff03e14a9683ccb9a746731f71634183f5109764736f6c63430008160033","linkReferences":{}},"methodIdentifiers":{"GRACE_PERIOD()":"c1a287e2","MAX_TARGETS()":"f6b25a40","MAX_VOTING_PERIOD()":"a64e024a","MINIMUM_PROPOSAL_THRESHOLD()":"4cfdebb9","MIN_VOTING_PERIOD()":"215809ca","TIMELOCK_DELAY()":"5ba1c1a9","batchClaimRefunds(uint256[])":"e993a3ae","cancel(uint256)":"40e58ee5","claimRefund(uint256)":"5b7baf64","execute(uint256)":"fe0d94c1","getProposal(uint256)":"c7f758a8","getProposalVotes(uint256)":"47c66140","getVotesOf(uint256,address)":"407e636d","hasVoted(uint256,address)":"43859632","proposalCount()":"da35c664","proposals(uint256)":"013cf08b","propose(address[],bytes[],uint256[],string)":"1a806b8d","queue(uint256)":"ddf0b009","quorumPercentage()":"4fa76ec9","quorumRequired()":"088868e8","state(uint256)":"3e4f49e6","token()":"fc0c546a","tokensLocked(uint256,address)":"d77d1a3f","totalTokensLockedBy(address)":"07000746","vote(uint256,bool,uint256)":"d46a5d7e","votingPeriod()":"02a251a3"},"id":55}