{"abi":[{"type":"constructor","inputs":[{"name":"_genesisNodes","type":"address[]","internalType":"address[]"}],"stateMutability":"nonpayable"},{"type":"function","name":"allowance","inputs":[{"name":"owner","type":"address","internalType":"address"},{"name":"spender","type":"address","internalType":"address"}],"outputs":[{"name":"","type":"uint256","internalType":"uint256"}],"stateMutability":"view"},{"type":"function","name":"approve","inputs":[{"name":"spender","type":"address","internalType":"address"},{"name":"value","type":"uint256","internalType":"uint256"}],"outputs":[{"name":"","type":"bool","internalType":"bool"}],"stateMutability":"nonpayable"},{"type":"function","name":"balanceOf","inputs":[{"name":"account","type":"address","internalType":"address"}],"outputs":[{"name":"","type":"uint256","internalType":"uint256"}],"stateMutability":"view"},{"type":"function","name":"claimAllRewards","inputs":[],"outputs":[],"stateMutability":"nonpayable"},{"type":"function","name":"claimEthRewards","inputs":[],"outputs":[],"stateMutability":"nonpayable"},{"type":"function","name":"claimTokenRewards","inputs":[],"outputs":[],"stateMutability":"nonpayable"},{"type":"function","name":"decimals","inputs":[],"outputs":[{"name":"","type":"uint8","internalType":"uint8"}],"stateMutability":"view"},{"type":"function","name":"escrowEthPayment","inputs":[{"name":"_user","type":"address","internalType":"address"},{"name":"_payment","type":"uint256","internalType":"uint256"},{"name":"_networkId","type":"uint8","internalType":"uint8"}],"outputs":[],"stateMutability":"payable"},{"type":"function","name":"escrowPayment","inputs":[{"name":"_user","type":"address","internalType":"address"},{"name":"_payment","type":"uint256","internalType":"uint256"},{"name":"_networkId","type":"uint8","internalType":"uint8"}],"outputs":[],"stateMutability":"nonpayable"},{"type":"function","name":"getContractEthBalance","inputs":[],"outputs":[{"name":"ethBalance","type":"uint256","internalType":"uint256"}],"stateMutability":"view"},{"type":"function","name":"getDaoFunds","inputs":[],"outputs":[{"name":"snoFunds","type":"uint128","internalType":"uint128"},{"name":"ethFunds","type":"uint128","internalType":"uint128"}],"stateMutability":"view"},{"type":"function","name":"getEmissionRate","inputs":[],"outputs":[{"name":"emissionRate","type":"uint256","internalType":"uint256"}],"stateMutability":"view"},{"type":"function","name":"getEscrowedPayments","inputs":[{"name":"_user","type":"address","internalType":"address"}],"outputs":[{"name":"","type":"tuple","internalType":"struct SmartnodesToken.PaymentAmounts","components":[{"name":"sno","type":"uint128","internalType":"uint128"},{"name":"eth","type":"uint128","internalType":"uint128"}]}],"stateMutability":"view"},{"type":"function","name":"getEthBreakdown","inputs":[],"outputs":[{"name":"breakdown","type":"tuple","internalType":"struct SmartnodesToken.EthBreakdown","components":[{"name":"totalContractEth","type":"uint256","internalType":"uint256"},{"name":"unclaimedEth","type":"uint256","internalType":"uint256"},{"name":"daoEth","type":"uint256","internalType":"uint256"},{"name":"escrowedEth","type":"uint256","internalType":"uint256"},{"name":"availableEth","type":"uint256","internalType":"uint256"}]}],"stateMutability":"view"},{"type":"function","name":"getLockAmounts","inputs":[],"outputs":[{"name":"validatorAmount","type":"uint256","internalType":"uint256"},{"name":"userAmount","type":"uint256","internalType":"uint256"}],"stateMutability":"view"},{"type":"function","name":"getLockedTokens","inputs":[{"name":"_user","type":"address","internalType":"address"}],"outputs":[{"name":"","type":"tuple","internalType":"struct SmartnodesToken.LockedTokens","components":[{"name":"locked","type":"bool","internalType":"bool"},{"name":"isValidator","type":"bool","internalType":"bool"},{"name":"unlockTime","type":"uint128","internalType":"uint128"}]}],"stateMutability":"view"},{"type":"function","name":"getSmartnodesCore","inputs":[],"outputs":[{"name":"","type":"address","internalType":"address"}],"stateMutability":"view"},{"type":"function","name":"getSupply","inputs":[],"outputs":[{"name":"totalSupply_","type":"uint256","internalType":"uint256"},{"name":"totalLocked","type":"uint256","internalType":"uint256"},{"name":"totalUnclaimed","type":"uint256","internalType":"uint256"}],"stateMutability":"view"},{"type":"function","name":"getSupplyBreakdown","inputs":[],"outputs":[{"name":"breakdown","type":"tuple","internalType":"struct SmartnodesToken.SupplyBreakdown","components":[{"name":"totalSupply","type":"uint256","internalType":"uint256"},{"name":"circulating","type":"uint256","internalType":"uint256"},{"name":"locked","type":"uint256","internalType":"uint256"},{"name":"unclaimed","type":"uint256","internalType":"uint256"},{"name":"escrowed","type":"uint256","internalType":"uint256"}]}],"stateMutability":"view"},{"type":"function","name":"getTotalClaimed","inputs":[{"name":"_user","type":"address","internalType":"address"}],"outputs":[{"name":"","type":"tuple","internalType":"struct SmartnodesToken.PaymentAmounts","components":[{"name":"sno","type":"uint128","internalType":"uint128"},{"name":"eth","type":"uint128","internalType":"uint128"}]}],"stateMutability":"view"},{"type":"function","name":"getTotalUnclaimed","inputs":[],"outputs":[{"name":"snoUnclaimed","type":"uint128","internalType":"uint128"},{"name":"ethUnclaimed","type":"uint128","internalType":"uint128"}],"stateMutability":"view"},{"type":"function","name":"getUnclaimedRewards","inputs":[{"name":"_user","type":"address","internalType":"address"}],"outputs":[{"name":"","type":"tuple","internalType":"struct SmartnodesToken.PaymentAmounts","components":[{"name":"sno","type":"uint128","internalType":"uint128"},{"name":"eth","type":"uint128","internalType":"uint128"}]}],"stateMutability":"view"},{"type":"function","name":"isUserLocked","inputs":[{"name":"_user","type":"address","internalType":"address"}],"outputs":[{"name":"","type":"bool","internalType":"bool"}],"stateMutability":"view"},{"type":"function","name":"lockTokens","inputs":[{"name":"_user","type":"address","internalType":"address"},{"name":"_isValidator","type":"bool","internalType":"bool"}],"outputs":[],"stateMutability":"nonpayable"},{"type":"function","name":"mintRewards","inputs":[{"name":"_validators","type":"address[]","internalType":"address[]"},{"name":"_workers","type":"address[]","internalType":"address[]"},{"name":"_capacities","type":"uint256[]","internalType":"uint256[]"},{"name":"_payments","type":"tuple","internalType":"struct SmartnodesToken.PaymentAmounts","components":[{"name":"sno","type":"uint128","internalType":"uint128"},{"name":"eth","type":"uint128","internalType":"uint128"}]}],"outputs":[],"stateMutability":"nonpayable"},{"type":"function","name":"name","inputs":[],"outputs":[{"name":"","type":"string","internalType":"string"}],"stateMutability":"view"},{"type":"function","name":"owner","inputs":[],"outputs":[{"name":"","type":"address","internalType":"address"}],"stateMutability":"view"},{"type":"function","name":"releaseEscrowedEthPayment","inputs":[{"name":"_user","type":"address","internalType":"address"},{"name":"_amount","type":"uint256","internalType":"uint256"}],"outputs":[],"stateMutability":"nonpayable"},{"type":"function","name":"releaseEscrowedPayment","inputs":[{"name":"_user","type":"address","internalType":"address"},{"name":"_amount","type":"uint256","internalType":"uint256"}],"outputs":[],"stateMutability":"nonpayable"},{"type":"function","name":"renounceOwnership","inputs":[],"outputs":[],"stateMutability":"nonpayable"},{"type":"function","name":"s_coreSet","inputs":[],"outputs":[{"name":"","type":"bool","internalType":"bool"}],"stateMutability":"view"},{"type":"function","name":"s_daoFunds","inputs":[],"outputs":[{"name":"sno","type":"uint128","internalType":"uint128"},{"name":"eth","type":"uint128","internalType":"uint128"}],"stateMutability":"view"},{"type":"function","name":"s_smartnodesCore","inputs":[],"outputs":[{"name":"","type":"address","internalType":"contract ISmartnodesCore"}],"stateMutability":"view"},{"type":"function","name":"s_totalUnclaimed","inputs":[],"outputs":[{"name":"sno","type":"uint128","internalType":"uint128"},{"name":"eth","type":"uint128","internalType":"uint128"}],"stateMutability":"view"},{"type":"function","name":"s_userLockAmount","inputs":[],"outputs":[{"name":"","type":"uint256","internalType":"uint256"}],"stateMutability":"view"},{"type":"function","name":"s_validatorLockAmount","inputs":[],"outputs":[{"name":"","type":"uint256","internalType":"uint256"}],"stateMutability":"view"},{"type":"function","name":"setSmartnodesCore","inputs":[{"name":"_smartnodesCore","type":"address","internalType":"address"}],"outputs":[],"stateMutability":"nonpayable"},{"type":"function","name":"symbol","inputs":[],"outputs":[{"name":"","type":"string","internalType":"string"}],"stateMutability":"view"},{"type":"function","name":"totalSupply","inputs":[],"outputs":[{"name":"","type":"uint256","internalType":"uint256"}],"stateMutability":"view"},{"type":"function","name":"transfer","inputs":[{"name":"to","type":"address","internalType":"address"},{"name":"value","type":"uint256","internalType":"uint256"}],"outputs":[{"name":"","type":"bool","internalType":"bool"}],"stateMutability":"nonpayable"},{"type":"function","name":"transferFrom","inputs":[{"name":"from","type":"address","internalType":"address"},{"name":"to","type":"address","internalType":"address"},{"name":"value","type":"uint256","internalType":"uint256"}],"outputs":[{"name":"","type":"bool","internalType":"bool"}],"stateMutability":"nonpayable"},{"type":"function","name":"transferOwnership","inputs":[{"name":"newOwner","type":"address","internalType":"address"}],"outputs":[],"stateMutability":"nonpayable"},{"type":"function","name":"unlockTokens","inputs":[{"name":"_user","type":"address","internalType":"address"}],"outputs":[],"stateMutability":"nonpayable"},{"type":"event","name":"Approval","inputs":[{"name":"owner","type":"address","indexed":true,"internalType":"address"},{"name":"spender","type":"address","indexed":true,"internalType":"address"},{"name":"value","type":"uint256","indexed":false,"internalType":"uint256"}],"anonymous":false},{"type":"event","name":"CoreContractSet","inputs":[{"name":"coreContract","type":"address","indexed":true,"internalType":"address"}],"anonymous":false},{"type":"event","name":"EscrowReleased","inputs":[{"name":"user","type":"address","indexed":true,"internalType":"address"},{"name":"amount","type":"uint256","indexed":false,"internalType":"uint256"}],"anonymous":false},{"type":"event","name":"EthEscrowReleased","inputs":[{"name":"user","type":"address","indexed":true,"internalType":"address"},{"name":"amount","type":"uint256","indexed":false,"internalType":"uint256"}],"anonymous":false},{"type":"event","name":"EthPaymentEscrowed","inputs":[{"name":"user","type":"address","indexed":true,"internalType":"address"},{"name":"payment","type":"uint256","indexed":false,"internalType":"uint256"},{"name":"networkId","type":"uint8","indexed":false,"internalType":"uint8"}],"anonymous":false},{"type":"event","name":"EthRewardsClaimed","inputs":[{"name":"user","type":"address","indexed":true,"internalType":"address"},{"name":"amount","type":"uint256","indexed":false,"internalType":"uint256"}],"anonymous":false},{"type":"event","name":"OwnershipTransferred","inputs":[{"name":"previousOwner","type":"address","indexed":true,"internalType":"address"},{"name":"newOwner","type":"address","indexed":true,"internalType":"address"}],"anonymous":false},{"type":"event","name":"PaymentEscrowed","inputs":[{"name":"user","type":"address","indexed":true,"internalType":"address"},{"name":"payment","type":"uint256","indexed":false,"internalType":"uint256"},{"name":"networkId","type":"uint8","indexed":false,"internalType":"uint8"}],"anonymous":false},{"type":"event","name":"TokenRewardsClaimed","inputs":[{"name":"user","type":"address","indexed":true,"internalType":"address"},{"name":"amount","type":"uint256","indexed":false,"internalType":"uint256"}],"anonymous":false},{"type":"event","name":"TokensLocked","inputs":[{"name":"user","type":"address","indexed":true,"internalType":"address"},{"name":"isValidator","type":"bool","indexed":false,"internalType":"bool"},{"name":"amount","type":"uint256","indexed":false,"internalType":"uint256"}],"anonymous":false},{"type":"event","name":"TokensUnlocked","inputs":[{"name":"user","type":"address","indexed":true,"internalType":"address"},{"name":"isValidator","type":"bool","indexed":false,"internalType":"bool"},{"name":"amount","type":"uint256","indexed":false,"internalType":"uint256"}],"anonymous":false},{"type":"event","name":"Transfer","inputs":[{"name":"from","type":"address","indexed":true,"internalType":"address"},{"name":"to","type":"address","indexed":true,"internalType":"address"},{"name":"value","type":"uint256","indexed":false,"internalType":"uint256"}],"anonymous":false},{"type":"event","name":"UnlockInitiated","inputs":[{"name":"user","type":"address","indexed":true,"internalType":"address"},{"name":"unlockTime","type":"uint256","indexed":false,"internalType":"uint256"}],"anonymous":false},{"type":"error","name":"ERC20InsufficientAllowance","inputs":[{"name":"spender","type":"address","internalType":"address"},{"name":"allowance","type":"uint256","internalType":"uint256"},{"name":"needed","type":"uint256","internalType":"uint256"}]},{"type":"error","name":"ERC20InsufficientBalance","inputs":[{"name":"sender","type":"address","internalType":"address"},{"name":"balance","type":"uint256","internalType":"uint256"},{"name":"needed","type":"uint256","internalType":"uint256"}]},{"type":"error","name":"ERC20InvalidApprover","inputs":[{"name":"approver","type":"address","internalType":"address"}]},{"type":"error","name":"ERC20InvalidReceiver","inputs":[{"name":"receiver","type":"address","internalType":"address"}]},{"type":"error","name":"ERC20InvalidSender","inputs":[{"name":"sender","type":"address","internalType":"address"}]},{"type":"error","name":"ERC20InvalidSpender","inputs":[{"name":"spender","type":"address","internalType":"address"}]},{"type":"error","name":"OwnableInvalidOwner","inputs":[{"name":"owner","type":"address","internalType":"address"}]},{"type":"error","name":"OwnableUnauthorizedAccount","inputs":[{"name":"account","type":"address","internalType":"address"}]},{"type":"error","name":"Token__AlreadyLocked","inputs":[]},{"type":"error","name":"Token__CoreAlreadySet","inputs":[]},{"type":"error","name":"Token__CoreNotSet","inputs":[]},{"type":"error","name":"Token__InsufficientBalance","inputs":[]},{"type":"error","name":"Token__InvalidAddress","inputs":[]},{"type":"error","name":"Token__NotLocked","inputs":[]},{"type":"error","name":"Token__TransferFailed","inputs":[]},{"type":"error","name":"Token__UnlockPending","inputs":[]}],"bytecode":{"object":"0x604060a08152346200050f576200257a803803806200001e8162000533565b928339810160209081838203126200050f5782516001600160401b03938482116200050f570191601f8281850112156200050f57835192858411620003fb5760059484861b9084806200007381850162000533565b8098815201928201019283116200050f578401905b828210620004ee575050506200009d62000513565b94600f86526e29b6b0b93a3737b232b9aa37b5b2b760891b83870152620000c362000513565b9160039081845262534e4f60e81b858501528751838111620003fb5782546001998a82811c92168015620004e3575b88831014620004cf5781848493116200047e575b5087908483116001146200041b575f926200040f575b50505f1982851b1c191690891b1782555b8351928311620003fb5760049384548981811c91168015620003f0575b87821014620003dd57908183869594931162000388575b508691841160011462000321575f9362000315575b505082881b925f19911b1c19161781555b3315620002ff578354336001600160a01b03198216811786556001600160a01b039182167f8be0079c531659141344cd1fd0a4f28419497f9722a3daafe3b4186f6b6457e05f80a36007936969e10de76676d0800000600755681b1ae4d6e2ef5000006008554260805260ff60a01b19600654166006558051955f5b8781106200022a57895161202090816200055a823960805181818161041401526109f40152f35b8251811015620002ec57838682841b85010151168754808b1b90600290808304821490151715620002d9578215620002c357805490828201809211620002b057898d9594938f5f947fddf252ad1be2c89b69c2b068fc378daa952ba7f163c4a11628f55a4df523b3ef945585855284835280852082815401905551908152a30162000203565b601189634e487b7160e01b5f525260245ffd5b8c5163ec442f0560e01b81525f818a0152602490fd5b601188634e487b7160e01b5f525260245ffd5b603285634e487b7160e01b5f525260245ffd5b6024905f875191631e4fbdf760e01b8352820152fd5b015191505f8062000176565b9190899450601f19841692865f52875f20935f5b8982821062000371575050851162000357575b50505050811b01815562000187565b01519060f8845f19921b161c191690555f80808062000348565b8385015187558d9890960195938401930162000335565b9091929350855f52865f20838087018b1c820192898810620003d3575b918c91889796959493018c1c01915b828110620003c457505062000161565b5f81558796508c9101620003b4565b92508192620003a5565b602286634e487b7160e01b5f525260245ffd5b90607f16906200014a565b634e487b7160e01b5f52604160045260245ffd5b015190505f806200011c565b908b9350601f19831691865f52895f20925f5b8b8282106200046757505084116200044f575b505050811b0182556200012d565b01515f1983871b60f8161c191690555f808062000441565b8385015186558f979095019493840193016200042e565b909150845f52875f20848085018c1c8201928a8610620004c5575b918d9186959493018d1c01915b828110620004b657505062000106565b5f81558594508d9101620004a6565b9250819262000499565b634e487b7160e01b5f52602260045260245ffd5b91607f1691620000f2565b81516001600160a01b03811681036200050f57815290840190840162000088565b5f80fd5b60408051919082016001600160401b03811183821017620003fb57604052565b6040519190601f01601f191682016001600160401b03811183821017620003fb5760405256fe6080604052600480361015610012575f80fd5b5f3560e01c90816301277591146118ca57816306fdde03146117d9578163095ea7b31461173f5781630b83a727146115945781630ec32977146114d657816318160ddd146114b95781631d7f53111461149557816323b872dd146113a857816327596fce146112d157816330d0050514611274578163313ce56714611259578163336e038c1461117c5781634de57d7514611161578163503e5ecf14610a23578163522bf1d414611111578163533b3bfc14610a85578163601c438d1461104557816369a69e2914610ff55781636b2d95d414610f5b5781636b451ba914610ebc5781636c9c2faf14610f1b57816370a0823114610ee4578163714bd91514610ebc578163715018a614610e61578163812a56bf14610d895781638b1297e014610c905781638da5cb5b14610c6857816395d89b4114610b6a5781639616901714610ab65781639fb4041314610a85578163a9059cbb14610a54578163afa4bcdf14610a23578163c0a77da9146109d8578163cb67f94814610839578163dc8bde811461070e578163dd62ed3e146106c1578163eeea05ff14610634578163f00e264014610376578163f0c0189a14610351578163f1a9e63114610334578163f2fde38b146102a857508063f63b7738146102165763f6a89727146101f5575f80fd5b34610212575f366003190112610212576020600754604051908152f35b5f80fd5b346102125760203660031901126102125761022f6119ab565b5f602060405161023e81611a6c565b828152015260018060a01b03165f52600e6020526102a460405f206040519061026682611a6c565b546001600160801b038116825260801c60208201526040519182918291909160206040820193816001600160801b0391828151168552015116910152565b0390f35b34610212576020366003190112610212576102c16119ab565b6102c9611d25565b6001600160a01b0390811691821561031d5750600554826bffffffffffffffffffffffff60a01b821617600555167f8be0079c531659141344cd1fd0a4f28419497f9722a3daafe3b4186f6b6457e05f80a3005b6024905f60405191631e4fbdf760e01b8352820152fd5b34610212575f366003190112610212576020600854604051908152f35b34610212575f36600319011261021257602060ff60065460a01c166040519015158152f35b346102125760a03660031901126102125767ffffffffffffffff908035828111610212576103a79036908301611a0b565b929091602435828111610212576103c19036908301611a0b565b9092604435908111610212576103da9036908401611a0b565b9390926040366063190112610212576006546001600160a01b0316801561062457330361061557506001600160801b0361043b6301e133807f0000000000000000000000000000000000000000000000000000000000000000420304611d51565b166064356001600160801b03811681036102125761045891611b2a565b608435906001600160801b038216820361021257610613976001600160801b0397888060646104a461060e97836040519e8f996104948b611a6c565b1691828a52166020890152611b91565b0416818060646104b98260208a015116611b91565b041691816104e0604051926104cd84611a6c565b80845260208401958652828a5116611b11565b168752816104f7818551168260208b015116611b11565b1660208801525116906105298361051360095494828616611b2a565b169283851980968195511692161760801c611b2a565b60801b16176009556001600160801b03845116906105746001600160801b03610557600a5494828616611b2a565b169283836001600160801b0360208a01511692161760801c611b2a565b60801b1617600a555f602060405161058b81611a6c565b82815201526001600160801b036105f284828060206105e58260646105c4828581846105b9828d5116611ba7565b041699015116611ba7565b041694836040519b6105d58d611a6c565b828d52848d019788525116611b11565b9e01511691511690611b11565b816040519b6106008d611a6c565b168b521660208a0152611df6565b611ecd565b005b604051633682629560e11b8152fd5b5060405163bb4b979b60e01b8152fd5b346102125760203660031901126102125761064d6119ab565b610655611d25565b6006549060ff8260a01c166106b0576001600160a01b031691821561061557506001600160a81b0319168117600160a01b176006557f8d89ce07775041e0065183ceb1e2520d1e3073ec452bc29784c78205d71270ba5f80a2005b60405163653ce49960e01b81528390fd5b34610212576040366003190112610212576106da6119ab565b6106e26119c1565b9060018060a01b038091165f52600160205260405f2091165f52602052602060405f2054604051908152f35b34610212576040366003190112610212576107276119ab565b906024359081151591828103610212576006546001600160a01b03908116801561082857330361081757841692831561081757811561080e57600754925b845f525f6020528360405f2054106107ff57845f52600b60205260405f209182549160ff83166107f05750956107d4926001869361ff007fd282563949681e6cfdb94fd670bbab7a4b30fafa6b5da45661f03e04685d75ab999a60081b169061ffff1916171790553090611c63565b604080519115158252602082019290925290819081015b0390a2005b6040516339ae9ed160e21b8152fd5b60405163e1c399a560e01b8152fd5b60085492610765565b604051633682629560e11b81528390fd5b60405163bb4b979b60e01b81528490fd5b34610212576020366003190112610212576108526119ab565b6006546001600160a01b03908116801561082857330361081757811691821561061557825f52600b60205260405f2090815460ff8116155f1461096957508154906001600160801b038260101c1680156109595762127500810180911161094657421061093757507f4923eb765bbfdcb92d06db224c77f6826606231d7bee79a6d0668c3c0988895c929160ff9160081c82161561092a5761090760075480945b875f52600b6020525f604081205530611c63565b5460081c166107eb60405192839283602090939291936040810194151581520152565b61090760085480946108f3565b604051631441f76b60e31b8152fd5b601182634e487b7160e01b5f525260245ffd5b506040516310818add60e31b8152fd5b7f77635f8f13ee1a01d11246347c649817c6ee9fa7620ce4c6adfa2452bfa162b29350602092915071ffffffffffffffffffffffffffffffff00004260101b169071ffffffffffffffffffffffffffffffff00ff1916178091556001600160801b036040519160101c168152a2005b34610212575f366003190112610212576020610a1b6301e133807f0000000000000000000000000000000000000000000000000000000000000000420304611d51565b604051908152f35b34610212575f36600319011261021257600954604080516001600160801b038316815260809290921c602083015290f35b3461021257604036600319011261021257610a7a610a706119ab565b6024359033611c63565b602060405160018152f35b34610212575f36600319011261021257600a54604080516001600160801b038316815260809290921c602083015290f35b34610212575f36600319011261021257610ace611ac6565b5060a047600a5460801c60095460801c818184610aeb8284611b84565b8610610b6057610b0392610afe91611af0565b611af0565b915b60405193610b1285611a3c565b8452602084015260408301525f60608301526080820152610b5e604051809260808091805184526020810151602085015260408101516040850152606081015160608501520151910152565bf35b5050505f91610b05565b34610212575f366003190112610212576040515f9180549060018260011c9160018416938415610c5e575b6020948585108114610c4b57848752908115610c295750600114610bd0575b6102a485610bc481890382611aa4565b60405191829182611964565b5f9081529294507f8a35acfbc15ff81a39ae7d344fd709f28e8600b4aa8c65c6b64bfe7fe36bd19b5b828410610c1657505050816102a493610bc4928201019385610bb4565b8054858501870152928501928101610bf9565b60ff191686860152505050151560051b8201019150610bc4816102a485610bb4565b602283634e487b7160e01b5f525260245ffd5b92607f1692610b95565b34610212575f366003190112610212576005546040516001600160a01b039091168152602090f35b3461021257604036600319011261021257610ca96119ab565b600654602435916001600160a01b039182168015610d78573303610d6757169182156106155781158015610d4f575b6107ff575060207f3356fc2afc21a405a1995355aed4bcb93f799b0b103e3c32c6035e9158dc348891835f52600e8252610d4660405f20610d266001600160801b038416825460801c611b11565b81546001600160801b031660809190911b6001600160801b031916179055565b604051908152a2005b50825f52600e6020528160405f205460801c10610cd8565b604051633682629560e11b81528490fd5b60405163bb4b979b60e01b81528590fd5b3461021257610d97366119d7565b6006549293929091906001600160a01b039081168015610d78573303610d675784169283156106155781158015610e4d575b6107ff5750610dfc817fee0ff3e52600f7a61f2fc240be6c307c8b72d65355ba26ec8055288127685aa994953090611c63565b5f848152600e6020526040902080546001600160801b03610e21848216838316611b2a565b6001600160801b031990921691161790556040805191825260ff909216602082015290819081016107eb565b50835f525f6020528160405f205410610dc9565b34610212575f36600319011261021257610e79611d25565b600580546001600160a01b031981169091555f906001600160a01b03167f8be0079c531659141344cd1fd0a4f28419497f9722a3daafe3b4186f6b6457e08280a3005b34610212575f366003190112610212576006546040516001600160a01b039091168152602090f35b34610212576020366003190112610212576001600160a01b03610f056119ab565b165f525f602052602060405f2054604051908152f35b34610212575f366003190112610212576060600254305f525f60205260405f20546001600160801b03600a54169060405192835260208301526040820152f35b3461021257602036600319011261021257610f746119ab565b5f60408051610f8281611a88565b828152826020820152015260018060a01b03165f52600b602052606060405f206040805191610fb083611a88565b5460ff8116151592838152602081019060ff8360081c16151582526001600160801b03938491019260101c168252604051938452511515602084015251166040820152f35b346102125760203660031901126102125761100e6119ab565b5f602060405161101d81611a6c565b828152015260018060a01b03165f52600c6020526102a460405f206040519061026682611a6c565b346102125760403660031901126102125761105e6119ab565b600654602435916001600160a01b039182168015610d78573303610d67571691821561061557811580156110f3575b6107ff575060207fe327b247066bdf32cf2493778e3fce4339b69c1e379a3b0dc780779bf67fe155916001600160801b03845f52600e835260405f20908154906110db818516828416611b11565b16906001600160801b031916179055604051908152a2005b50825f52600e602052816001600160801b0360405f2054161061108d565b346102125760203660031901126102125761112a6119ab565b5f602060405161113981611a6c565b828152015260018060a01b03165f52600d6020526102a460405f206040519061026682611a6c565b34610212575f36600319011261021257602047604051908152f35b611185366119d7565b600654919290916001600160a01b039190821680156112485733036112375716918215610d67578015801561122e575b61121d57907f35ca67d471a8751100a51e5a9022ff4da17ed2196b18be2b62f13543fb4bf61891835f52600e60205261120260405f20610d266001600160801b038416825460801c611b2a565b6040805191825260ff909216602082015290819081016107eb565b60405163e1c399a560e01b81528490fd5b508034106111b5565b604051633682629560e11b81528590fd5b60405163bb4b979b60e01b81528690fd5b34610212575f36600319011261021257602060405160128152f35b34610212576020366003190112610212576001600160a01b036112956119ab565b165f52600b602052602060405f205460ff81169081156112bb575b506040519015158152f35b6001600160801b03915060101c161515826112b0565b34610212575f36600319011261021257335f52600c60205260405f205460801c9081156107ff57335f52600c60205260405f206001600160801b0390818154169055600a54906001600160801b031961132d858460801c611b11565b60801b16911617600a55335f52600d60205261135460405f20610d2684825460801c611b2a565b5f80808085335af1611364611b45565b501561139957506040519081527fd47529329a0e6a3a4d8321064e299cc377b5a846bf6c5a0e261f2b29f2cc1ecf60203392a2005b6040516357a21ee560e11b8152fd5b34610212576060366003190112610212576113c16119ab565b6113c96119c1565b6044359160018060a01b038116805f52600160205260405f20335f5260205260405f2054945f198610611403575b5050610a7a9350611c63565b84861061146957811561145257331561143b5750610a7a9484915f52600160205260405f20335f526020520360405f205584806113f7565b6024905f60405191634a1406b160e11b8352820152fd5b6024905f6040519163e602df0560e01b8352820152fd5b60408051637dc7a0d960e11b815233928101928352602083018890529082018690529081906060010390fd5b34610212575f36600319011261021257604060075460085482519182526020820152f35b34610212575f366003190112610212576020600254604051908152f35b34610212575f36600319011261021257335f52600c6020526001600160801b038060405f2054169182156107ff5750335f52600c60205260405f20906001600160801b031991828154169055600a54828261153386828516611b11565b16911617600a55335f52600d60205260405f209182549161155685828516611b2a565b1691161790556115668133611bee565b6040519081527ff717aae6ba7053fb1ceb6012f0b2d339fa867c054ad6823ce040d1860806d60360203392a2005b34610212575f36600319011261021257335f526020600c815260405f20604051906115be82611a6c565b546001600160801b03918282169182825260801c84820192818452159081611736575b50611725578290335f52600c85525f604081205561162b828251168361160c600a5492828416611b11565b16906001600160801b03199283918383888a511692161760801c611b11565b60801b1617600a5582825116335f52600d875260405f209184611652845493828516611b2a565b16911617905561167882845116335f52600d8752610d2660405f2091825460801c611b2a565b81815116806116e6575b50508151168061168e57005b5f80808093335af161169e611b45565b50156116d55751604051911681523392507fd47529329a0e6a3a4d8321064e299cc377b5a846bf6c5a0e261f2b29f2cc1ecf9190a2005b6040516357a21ee560e11b81528490fd5b6116f09033611bee565b51166040519081527ff717aae6ba7053fb1ceb6012f0b2d339fa867c054ad6823ce040d1860806d603843392a2818580611682565b60405163e1c399a560e01b81528590fd5b905015866115e1565b34610212576040366003190112610212576117586119ab565b6024359033156117c2576001600160a01b031691821561143b5750335f52600160205260405f20825f526020528060405f20556040519081527f8c5be1e5ebec7d5bd14f71427d1e84f3dd0314c0f7b2291e5b200ac8c7c3b92560203392a3602060405160018152f35b60405163e602df0560e01b81525f81850152602490fd5b34610212575f366003190112610212576040515f9160035460018160011c916001811680156118c0575b60209485851082146118ad575083865290811561188d5750600114611833575b6102a484610bc481880382611aa4565b60035f9081529294507fc2575a0e9e593c00f959f8c92f12db2869c3395a3b0502d05e2516446f71f85b5b82841061187a57505050816102a493610bc49282010193611823565b805485850187015292850192810161185e565b60ff1916858501525050151560051b8201019150610bc4816102a4611823565b602290634e487b7160e01b5f525260245ffd5b92607f1692611803565b34610212575f366003190112610212576118e2611ac6565b5060a0600254305f525f60205260405f20546001600160801b03600a54169061190b8184611af0565b6040519361191885611a3c565b84526020840152604083015260608201525f6080820152610b5e604051809260808091805184526020810151602085015260408101516040850152606081015160608501520151910152565b602080825282518183018190529093925f5b82811061199757505060409293505f838284010152601f8019910116010190565b818101860151848201604001528501611976565b600435906001600160a01b038216820361021257565b602435906001600160a01b038216820361021257565b6060906003190112610212576004356001600160a01b038116810361021257906024359060443560ff811681036102125790565b9181601f840112156102125782359167ffffffffffffffff8311610212576020808501948460051b01011161021257565b60a0810190811067ffffffffffffffff821117611a5857604052565b634e487b7160e01b5f52604160045260245ffd5b6040810190811067ffffffffffffffff821117611a5857604052565b6060810190811067ffffffffffffffff821117611a5857604052565b90601f8019910116810190811067ffffffffffffffff821117611a5857604052565b60405190611ad382611a3c565b5f6080838281528260208201528260408201528260608201520152565b91908203918211611afd57565b634e487b7160e01b5f52601160045260245ffd5b6001600160801b039182169082160391908211611afd57565b9190916001600160801b0380809416911601918211611afd57565b3d15611b7f573d9067ffffffffffffffff8211611a585760405191611b74601f8201601f191660200184611aa4565b82523d5f602084013e565b606090565b91908201809211611afd57565b90600582029180830460051490151715611afd57565b90600a820291808304600a1490151715611afd57565b81810292918115918404141715611afd57565b8115611bda570490565b634e487b7160e01b5f52601260045260245ffd5b6001600160a01b0316908115611c4b577fddf252ad1be2c89b69c2b068fc378daa952ba7f163c4a11628f55a4df523b3ef602082611c2f5f94600254611b84565b60025584845283825260408420818154019055604051908152a3565b60405163ec442f0560e01b81525f6004820152602490fd5b916001600160a01b03808416928315611d0d5716928315611c4b57825f525f60205260405f205490828210611cdb5750817fddf252ad1be2c89b69c2b068fc378daa952ba7f163c4a11628f55a4df523b3ef92602092855f525f84520360405f2055845f5260405f20818154019055604051908152a3565b60405163391434e360e21b81526001600160a01b03919091166004820152602481019190915260448101829052606490fd5b604051634b637e8f60e11b81525f6004820152602490fd5b6005546001600160a01b03163303611d3957565b60405163118cdaa760e01b8152336004820152602490fd5b8015611daf5769013c27422cbd5e200000905f905b808210611d7257505090565b90916005900491600392838102938185041490151715611afd57681bc16d674ec800000080841115611da8575060010190611d66565b9250505090565b5069013c27422cbd5e20000090565b9190811015611dce5760051b0190565b634e487b7160e01b5f52603260045260245ffd5b356001600160a01b03811681036102125790565b91908015611ec8576001600160801b039182611e158382845116611bd0565b169083611e29848260208095015116611bd0565b169360409360405193611e3b85611a6c565b8452602084019586525f5b818110611e57575050505050505050565b80611ec2611e70611e6b600194868d611dbe565b611de2565b8588511690848060a01b031690815f52600c908189528a5f209088611e99835492828416611b2a565b16906001600160801b031916179055868b5116915f528752610d26895f2091825460801c611b2a565b01611e46565b505050565b939091928215611fe3575f925f5b828110611fc357508315611fbb575f5b818110611efb5750505050505050565b80611fb5611f0f611e6b600194868c611dbe565b610d26611f1d84888c611dbe565b35916001600160801b03928984611f578d611f4383611f4883611f4389848a5116611bbd565b611bd0565b16958460208097015116611bbd565b1694604093828551611f6881611a6c565b85815201968752898060a01b031695865f52600c93848452855f209083611f93835492828416611b2a565b16906001600160801b0319161790555116945f52525f2091825460801c611b2a565b01611eeb565b505050505050565b93611fdc600191611fd587868a611dbe565b3590611b84565b9401611edb565b505050505056fea2646970667358221220a3b9a379a2a38bc25b665b2889d29c19addedc74fb58b511d08456c2a5f3a4ac64736f6c63430008160033","linkReferences":{}},"methodIdentifiers":{"allowance(address,address)":"dd62ed3e","approve(address,uint256)":"095ea7b3","balanceOf(address)":"70a08231","claimAllRewards()":"0b83a727","claimEthRewards()":"27596fce","claimTokenRewards()":"0ec32977","decimals()":"313ce567","escrowEthPayment(address,uint256,uint8)":"336e038c","escrowPayment(address,uint256,uint8)":"812a56bf","getContractEthBalance()":"4de57d75","getDaoFunds()":"afa4bcdf","getEmissionRate()":"c0a77da9","getEscrowedPayments(address)":"f63b7738","getEthBreakdown()":"96169017","getLockAmounts()":"1d7f5311","getLockedTokens(address)":"6b2d95d4","getSmartnodesCore()":"714bd915","getSupply()":"6c9c2faf","getSupplyBreakdown()":"01277591","getTotalClaimed(address)":"522bf1d4","getTotalUnclaimed()":"533b3bfc","getUnclaimedRewards(address)":"69a69e29","isUserLocked(address)":"30d00505","lockTokens(address,bool)":"dc8bde81","mintRewards(address[],address[],uint256[],(uint128,uint128))":"f00e2640","name()":"06fdde03","owner()":"8da5cb5b","releaseEscrowedEthPayment(address,uint256)":"8b1297e0","releaseEscrowedPayment(address,uint256)":"601c438d","renounceOwnership()":"715018a6","s_coreSet()":"f0c0189a","s_daoFunds()":"503e5ecf","s_smartnodesCore()":"6b451ba9","s_totalUnclaimed()":"9fb40413","s_userLockAmount()":"f1a9e631","s_validatorLockAmount()":"f6a89727","setSmartnodesCore(address)":"eeea05ff","symbol()":"95d89b41","totalSupply()":"18160ddd","transfer(address,uint256)":"a9059cbb","transferFrom(address,address,uint256)":"23b872dd","transferOwnership(address)":"f2fde38b","unlockTokens(address)":"cb67f948"},"id":29}